:020000040800F2
:1000000000080020AD0D00082B010008950D000828
:100010002B0100082B0100082B0100080000000044
:100020000000000000000000000000002B0100089C
:100030002B010008000000002B0100082B01000824
:100040002B0100082B0100082B0100082B010008E0
:100050002B0100083902000855020008710200084F
:10006000000000002B0100082B0100082B010008F4
:100070002B0100082B0100082B01000809030008D0
:100080003D03000871030008A503000800000000FC
:10009000D90300082B0100080D0400082B010008FB
:1000A0002B0100082B0100082B0100082B01000880
:1000B0002B0100082B0100080B4611461A4680B59B
:1000C00000F035F880BDC0460A46002180B500F03A
:1000D0002EF880BD2846A04700F004FA694624396E
:1000E000016002E080F30988FFE740464946524636
:1000F0005B460FB5F0B4EFF314800223584080F351
:100100001488BFF36F8FF0BC0FBC804689469246BF
:100110009B4600BD4046494652465B460FB5F0B48B
:10012000684600F06FFD08B000BD20BFFDE700236A
:100130009A4202D0C1545B1CFAE77047F8B50C46EE
:10014000054620260029374603D0204600F02BF82C
:100150000746002D03D0284600F025F80646B81BB8
:100160001F2801D90020F8BD01D12846F8BDF94368
:1001700089191F22131A2A469A40401CC5400020A4
:1001800000290DD0D30F6D00ED18EB43E31800D517
:100190002D1B52001043DB0F491C02461846EFE7A7
:1001A00051000843F8BD70B5010C4A424A411101A3
:1001B00010224A40D040FF221202024053425341D3
:1001C000DA0008235340D840F02303405C425C41EE
:1001D000A30004245C40E0400C24044065426541D7
:1001E0006C00022526466E40F0402D1A400801267C
:1001F000F6430643701C28405118C91809190818FD
:1002000070BDB0B5514343435918030C140C1D463F
:100210006543491992B2534380B24243150CEB181F
:100220001D0C49199BB260431818030CC91800042F
:1002300092B28018B0BDD4D405480168C90701D076
:10024000012101600168890701D502210160704721
:100250001404014005480168490701D504210160E3
:100260000168090701D508210160704714040140A5
:1002700022480168C90601D510210160016889067C
:1002800001D5202101600168490601D540210160A6
:100290000168090608D5802101601949096800290B
:1002A00002D0184901220A7001210268D20501D545
:1002B0000A0202600268920501D54A0202600268E1
:1002C000520501D58A0202600268120501D5CA02F0
:1002D00002600268D20401D50A0302600268920437
:1002E00001D54A0302600268520401D58A03026004
:1002F0000268120401D5C90301607047140401406B
:10030000E00D0020CC0E002010B50B4C204600F074
:1003100097F8A06800280CD00169C90708D00169C6
:10032000012291430161A16C002901D0606C8847D2
:1003300010BD30BFFDE7C0460008002010B50B4CD3
:10034000204600F07DF8A06800280CD00169C9079C
:1003500008D00169012291430161A16C002901D0FB
:10036000606C884710BD30BFFDE7C04678080020AC
:1003700010B50B4C204600F063F8A06800280CD0A4
:100380000169C90708D00169012291430161A16C8B
:10039000002901D0606C884710BD30BFFDE7C04622
:1003A000F008002010B50B4C204600F049F8A0687A
:1003B00000280CD00169C90708D0016901229143C6
:1003C0000161A16C002901D0606C884710BD30BF6D
:1003D000FDE7C0466809002010B50B4C204600F030
:1003E0002FF8A06800280CD00169C90708D001695E
:1003F000012291430161A16C002901D0606C884702
:1004000010BD30BFFDE7C046580A002010B50B4CA8
:10041000204600F015F8A06800280CD00169C90733
:1004200008D00169012291430161A16C002901D02A
:10043000606C884710BD30BFFDE7C046E009002072
:1004400010B5002842D08168002941D00A6992077E
:100450000BD5036D002B08D0C16C0022044610465A
:1004600098472046A168002934D00A6952070BD565
:10047000836D002B08D0416D012204461046984739
:100480002046A168002927D00A6912070BD5036E00
:10049000002B08D0C16D0222044610469847204622
:1004A000A16800291AD00A69D2060AD5836E002BEA
:1004B00007D0416E0322044610469847A1680029E0
:1004C0000ED008691E229043086110BD30BFFDE7C1
:1004D00030BFFDE730BFFDE730BFFDE730BFFDE7D0
:1004E00030BFFDE780B50D48006800280CD0416999
:1004F00000290BD009680A4A914209D109490968C3
:10050000090607D030BFFDE730BFFDE730BFFDE78C
:1005100030BFFDE71030FFF7E1FD80BDE40D0020A6
:1005200075F53BB804ED00E0B0B50546202000F0BD
:1005300035F80446284600F031F8134901604119A6
:100540000A46243A2261606118D010481060081FE2
:100550000F4A0260203900220A60EFF3108072B661
:100560000C490B68002B00D01C6022600C600A490B
:100570000A68002A04D080F31088B0BD30BFFDE7C0
:100580000C6080F31088B0BD75F53BB8C90D00084C
:10059000D5000008340E0020300E0020F0B58DB0DC
:1005A000002805D0E9490968090604D030BFFDE7F5
:1005B000EF480DB0F0BD1621C943884201D330BFCA
:1005C000FDE707461737EB490C684B680022641CAF
:1005D0005341E94D2E68301828600C60686850411E
:1005E00001973F09E54C26680297F6192660686076
:1005F0004B60606850416060E1480068E14BE2494F
:10060000C91A0391E14E04461346844205940492AC
:1006100055D1D9B2002951D0012900D041E2FFF7CC
:1006200079FD00200690C0430C90D948006800284E
:1006300058D0EFF30884D748051B042D52D3D64871
:10064000036806E0D14E0B9C0A9D241D2D1F032D2F
:1006500048D92068B042F8D39842F6D2801BC1082E
:1006600006220A408109595CD1408907EDD00A95DC
:100670000B94040904E00320C043E243024314192D
:10068000A5085E5DAA2EF6D0A007470F3046F840B9
:100690000321084002280C9AF1D00328D2D0B94097
:1006A000314359552001B94E801900D1F7E1DC4A98
:1006B000116801601060B8480368C4E70123D94994
:1006C00009680022059F8F4214469ED0BC08B2499B
:1006D00009680C5DBD076D0FEC40A40700D15DE11A
:1006E0007C1C92E70398042840D3AB480368039C22
:1006F000A44D06E0A54E0B9C0A9D2D1D241F032C26
:1007000034D92868B042F8D39842F6D2801BC10889
:1007100006220A408109595CD1408907EDD00A952B
:100720000B94040904E00320C043E243024314197C
:10073000A5085E5DAA2EF6D0A007470F3046F84008
:100740000321084002280C9AF1D00328D2D0B940E6
:100750003143595520018D4E801900D19BE1B04A9B
:100760001168016010608C480368C4E7069AEFF3D3
:10077000108072B6AC49096880F3108800290CD14A
:100780000792A7480368002B00D1E1E08248076880
:100790006EE0002806930A46F2D00792EFF310822B
:1007A00072B6A1480368002B0BD018689E490860F8
:1007B0009E480068984202D100209C4908600020B1
:1007C000186082F310880B93B34231D372480368E8
:1007D0000B9898422CD26D480B99081AC108062232
:1007E0000A408109595CD140890721D0040904E0FD
:1007F0000320C043E14301430C19A2089D5CAA2DCC
:10080000F6D0A007460F2846F040032738400228BC
:100810000C99F1D003280BD0B7402F439F542001EF
:10082000DD49401800D138E1DC4A116801601060F0
:10083000EFF3108072B6069900290B9B00D00B6075
:10084000002BD54E079A00D121E10021196080F3D9
:100850001088EFF3108172B6D148006881F31088D8
:10086000002A194695D0114693E72B46002B6FD0EE
:100870001D68CA4805600993981BC10806220892A2
:1008800011408209BA5CCA4001211140891C030948
:10089000032900D15B1C1C01A019B8420ED21C0117
:1008A0009808385C9907490FC84003210140022984
:1008B00004D11034A0195B1CB842F1D30999701A05
:1008C0000419083C042CD0D308312B460D4607E010
:1008D000B14E099B0B9C0A9D2D1D241F032CC5D9CD
:1008E0002868B042F8D3B842F6D2801BC108089AF3
:1008F00011408209BA5CCA409107EDD00A950B9469
:100900000993050904E00320C043EB4303435D1949
:10091000AA08BC5CAA2CF6D0A807410F2646CE40F8
:1009200003200640022E0C9BF1D0032ED0D088402D
:100930002043B8542801984E831900D1A9E0974963
:10094000086818600B6093480768C3E704ED00E08F
:10095000EFF3108072B6EFF3108172B6904A12680E
:1009600081F31088002A21D080F31088079AFEE6D0
:10097000200E0020080E0020F80D0020000E0020A0
:10098000F00D002000080020600F0020600F002004
:10099000E40D002000080020E80D00207C1C049AD3
:1009A000521C029DAA4200D02FE67CE07D49069AA7
:1009B0000A607B49079A0A6080F3108874480068CF
:1009C000794909680B91002952D078490A68079241
:1009D000496806916F4909680C9100220121009134
:1009E000099208920A920BE0099B5B1C0993089BF1
:1009F0004B41089300990A91521C0B9991423AD0AD
:100A000096080C998D5D91074B0F2C46DC40032115
:100A10000C40C0467C4424796400A744180919227C
:100A2000EC0D0020F40D0020300E0020340E0020CC
:100A300099408D430C998D550021079C641C069D9F
:100A40004D415A4B07941C6006955D60CCE7D3E797
:100A50000A9CE4070AD099408D430C998D550021DA
:100A6000C2E7022199408D430C998D550021C2E7C0
:100A70000021099108914E4A1168099BC91811601B
:100A80005168089B594151600223434E17E630BF1D
:100A9000FDE730BFFDE730BFFDE730BFFDE730BF0A
:100AA000FDE730BFFDE73A4804600298261AB20815
:100AB0008B5CB407640F0125A5401D438D540C9633
:100AC000BE4256D03024019A1440871E102C0C9838
:100AD000024625D0421C96088B5D0B9395076B0F41
:100AE00002250A959D400B9B1D438D55202C17D048
:100AF000821C9308CD5C0B959607760F3D460A9FA6
:100B0000B7400B9E3743CF542F46302C08D0C21C21
:100B10009308CC5C95076D0F0A98A8402043C854F1
:100B2000032F059825D3531C9C080D5D9B075E0F72
:100B300002231F46B7402F430F55941CA5076D0F86
:100B40001E46AE40A4080D5D35430D55D41CA507C7
:100B50006D0F1E46AE40A4080D5D35430D5594073C
:100B6000640FA340121D94080D5D1D430D55904266
:100B7000D9D10F220199914308390C980001064AF6
:100B8000851808352846FFF79FFA28460DB0F0BDB6
:100B9000F00D0020E80D0020600F0020EC0D00207B
:100BA000300E0020340E0020F40D0020100E002026
:100BB000180E00200448416802680023521C02609D
:100BC0004B4143607047C046280E0020B0B5094C29
:100BD000094D281B40304121FFF7B0FA0146281A81
:100BE000064A1060021B1209054B1A60FFF76CFAE7
:100BF000B0BDC046600F002000200020E80D00209E
:100C0000F40D0020F0B583B0034644480068002886
:100C100038D044498B4200D27EE04148026893427A
:100C20007AD2581AC10806230B408109515CD94079
:100C3000890771D000090021C943029104E0032112
:100C4000C943C3430B4318188408115DAA29F6D081
:100C500083075E0F0D46F54003273D40022D029BA2
:100C6000F1D0032D2F4B57D0B7400F43175500013C
:100C7000C01805D02C490A680260086003B0F0BDB6
:100C800030BFFDE72948C41A042C45D32448066820
:100C90000020C0430290234D06E0019B009C214DA3
:100CA0001B1D241F032C37D91868A842F8D3B04263
:100CB000F6D2421BD008062101409009305CC840A2
:100CC0008007EDD000940193170904E00320C1438D
:100CD000F8430843C719BA08B15CAA29F6D0B80787
:100CE000440F0D46E54003231D40022D0298F1D02C
:100CF000032DD2D0A3400B43B3543801094D401902
:100D000008D0094A11680160106005480668019B17
:100D1000009CC5E730BFFDE703B0F0BDE40D002047
:100D2000E80D0020600F0020EC0D002000080020DE
:100D30001348144981420CD0002204C1814208D0DA
:100D400004C1814205D004C1814202D004C1814264
:100D5000F2D10D480D49814211D00D4A136808C1E6
:100D600081420CD0536808C1814208D0936808C101
:100D7000814204D0D36808C110328142EED170475D
:100D8000600F0020E00D0020DC0D00200008002096
:100D9000D04D0008044801680A0600D5C26809045D
:100DA00000D5006930BFFDE728ED00E0FFF7C0FF88
:100DB00000F000F8FFF70AFF02480068FFF7B4FBF5
:100DC00000F004F8CC4D000800F026F80F4C104D50
:100DD000104E08E000270F6080F31088316008692A
:100DE000FFF780F93760EFF3108072B621680029B1
:100DF00007D00A6822602A688A42EBD100222A6062
:100E0000E8E780F3108820BFEDE7C046300E0020F1
:100E1000340E0020E40D002000F002F800F02AFC5F
:100E2000F0B50322D0025F490B6883430120C4025E
:100E30001B190B601F210C025B4B5D68A54304036B
:100E40002C195C601C6804430825AC431C601C68BA
:100E5000640708D41C68640705D41C68640702D4BE
:100E60001C686407F3D505061C68AC431C60440687
:100E70001E68264208D01E68264205D01E682642FB
:100E800002D01E682642F3D1FD263604DF68B74340
:100E90001126B604BE19DE601E682E431E601D6852
:100EA000254208D11D68254205D11D68254202D181
:100EB0001D682542F3D03D4C2568ED070ED125680D
:100EC000054325602568ED0708D12568ED0705D1A4
:100ED0002568ED0702D12568ED07F3D0DC68F02521
:100EE000AC43DC60DC681443DC60DC681440032C39
:100EF0000BD0DC681440032C07D0DC681440032CB2
:100F000003D0DC681440032CEFD18402DD68254354
:100F1000DD604403DD682543DD605C6B04252C4304
:100F20005C63234B9D62234C9C855C6904435C613C
:100F30001C68812525431D601F4B9C68002C0CD02C
:100F4000A58D1425DD632569854325611B4C9C64B3
:100F5000DC6BF02C03D330BFFDE730BFFDE7A50706
:100F60009443174AA658ED0EFF27AF40BE43C12752
:100F7000AF403743A750DA6B140A01D030BFFDE70A
:100F8000114004468C40510989000E4A8C500E4A8B
:100F90008C509968002903D0CA680243CA60F0BD2A
:100FA00030BFFDE70070004000100240002002400A
:100FB00000080140FFF90000580A0020B50B0008A6
:100FC00000E400E080E200E000E100E0F0B58DB078
:100FD0000A2800D9B8E0C046784400794000874428
:100FE00005961BBABF8EABAFB3D0CA00012010402C
:100FF0000843F34B186800D0C7E0401C232800DDED
:1010000000201860002800D182E103461233232B10
:1010100000DDADE11846ACE14D0156010024701928
:1010200023466341F24F099119460C923A462346F2
:10103000FFF7E7F8480869080918CF0A7108081887
:10104000C50AE819EB4A21462346FFF7DAF842427F
:101050000B952A468A4140420A973B468B419903A9
:10106000830C58180999C9010F1AE349781892039B
:101070009A180C9BDB019D1A6A180121BD420B4690
:1010800037DD23460E4636DD059300DC2A460496FE
:101090003B4600DC0346D9481B18079310180C90F8
:1010A000384678432A466A431018CA06101A0613AF
:1010B000CB43012E2146099200DA8BE008930A986F
:1010C000C0B2CF49085C0B9A8018C0B20A5C0420F9
:1010D0000242394600D029462346284600D03846E9
:1010E000D40700D0404292071C466AD5089B59435A
:1010F00069E00E46C8DC26460593C7DDC7E7002336
:10110000FF2000900193084611461A462FE0012067
:1011100002400A43B54A10683FD1401C232800DD35
:1011200000201060002800D108E102461232232A74
:1011300000DD21E1104620E1242936D330BFFDE750
:10114000242935D330BFFDE7002917D1D1008020F5
:1011500008400DB0F0BD002300930193FF2403E08D
:10116000002400940194FF2308461146224600F013
:10117000E1F90DB0F0BD500081421EDB00200DB042
:10118000F0BDD000C0B20DB0F0BD814200D0E3E0B0
:10119000242900D2BCE030BFFDE7814200D0E1E06D
:1011A000242900D2CAE030BFFDE78800DB4901E016
:1011B0008800D94908580DB0F0BD3F2000020DB09D
:1011C000F0BD4900089B099A081876433114494339
:1011D000090C41430891D249781806906F18079D71
:1011E000284668430C9949430818101A011301292D
:1011F000264628DB039726460B98049A80180A9AFD
:10120000059C1219D2B2C74CA25C1018C0B2205C67
:10121000042210422F4600D00C9F00D00C95C2072C
:10122000344602D00C9A52420C92099A800701D59A
:101230005F4300E07F000C98381849430914494384
:101240000E0C4643039F069D284668433946794362
:101250000818101A0013012824DB1C460A99491C9F
:10126000C9B2B04A515C0B9B5918491CC9B2525CB7
:1012700004210A42294608D0394607D1D30708D0AD
:101280007F42920707D44C0006E0F7D02F46D307E1
:10129000F6D19207F7D54C43E1194043001440437F
:1012A000040C4C4308983018001900129E4B43431D
:1012B000D80CC1B2FF200A4642405B001C0FA500BB
:1012C0009A4F7B195E7856430F2C3C4600D01C1D6C
:1012D00067784F43BF19FF37060237400B93934B94
:1012E0005D5D55430C90207848434019FF30000A5B
:1012F000C0B2C0190B9B9B785343A2784A43D118C4
:10130000090289190C9A12040A4080180DB0F0BD28
:101310009000F823034056205843000A5408E4B2D2
:10132000D20112B2002A00D5A2E03F2C00D9C2E0BF
:101330001F2C00D9BBE0C3430022D1E089007C4AC6
:10134000505C40083F305054531800229A7059782E
:1013500049080C31597088E003461233232B0FDC07
:1013600018460EE002461232232A4BDC10464AE0B1
:101370001238002826D10AE0123800285BD148E054
:101380001238814218D1242901D330BFFDE750081B
:10139000C4B29000F823034056205843000AD201FB
:1013A00012B2002A00D579E0202222403F2C6ED8CC
:1013B000002A63D0C24390E0242903D330BFFDE765
:1013C000C80E002088005A4A115CF2235943090ACA
:1013D000115414180020E070A0785843020AA2703B
:1013E00060785843000A60708CE0C046C80E002048
:1013F0003FD7B35DE862193600C0FFFF860D0000DD
:101400006C4B00081238814211D1242901D330BF1E
:10141000FDE78900464A505C4008801C5054531830
:101420005978490859709A783F329A701DE02429FA
:1014300001D330BFFDE788003D4A13185978105C8E
:101440009A78904208D9F8246043000A082800D806
:1014500008204C43210A05E0F4245443220A082AB8
:1014600000D808229A7059701870090208184DE0C7
:101470002022224064060AD4002A9BD1AB20584384
:10148000020A5420C043801A5532002328E0002A63
:1014900020D15422D243121A55301EE07F22D2436B
:1014A0006240D2B23F2A06D81F2A00D843E75530FF
:1014B0000022AB2314E0A20608D4AB225A43120A3E
:1014C0005423DB439B1A5638002209E0C44300230F
:1014D000024604E05522121A5638002403462046DC
:1014E0008C00134D295DDBB29B08C91829552B19B7
:1014F0005C78C0B28008201858709C78D2B29208EC
:10150000A2189A70C9B2C0B200024018D1B2090440
:1015100040180DB0F0BDC046FC4C00086C4C0008F3
:101520000CDBFFFF6C4B00087B5A00008C4D000861
:10153000380E0020F0B582B000930192112802DC31
:101540001222141A01E00446123C091B89021228D7
:1015500001DD414809180D0BE8B2404A175C07202D
:101560003E4606403F0701D5F64300E0761C0327C0
:10157000BA020A40174657437B0A0127FF03FB1AAA
:101580005B43DB0B5B43DB0B534373431E136A1C50
:10159000D2B2324B9A5C1040120701D5C04300E032
:1015A000401C2F4A11430A464A43520ABA1A524370
:1015B000D20B5243D20B4A4342431013801929499C
:1015C000414329480818000E802141400B20604308
:1015D000C0B2091A00D200214AB20798002A11D4D9
:1015E000009AD2B249060B0E5A43214C6243D10DE8
:1015F000019AD2B25A436243D20DC0B258436043FB
:10160000C00D1FE0CAB25209062A18D87F22114025
:10161000164A4A43120CFF2494430099C9B261430D
:10162000134B5943C90D8918019DEDB265435D43C4
:10163000ED0DAA18C0B260435843C00D02E0C800C7
:10164000FF221146D2B2C9B209028918C0B2000401
:10165000081802B0F0BDC04600D048006C4B00082E
:1016600000F0FFFF466800006A84FB03B0AA020096
:101670008180000000B599B00F4E3068022101430F
:1016800031600E4908680E4A10400860C868104072
:1016900001220E9294030019C86002F065FB052038
:1016A0000007084900904160304620380168032255
:1016B00011929143016007E02C1002400004005099
:1016C000FF3FFFFFFF8700000168890708D001681E
:1016D000890705D00168890702D001688907F3D11D
:1016E0000E9F3A0631462C390B6893430B603A073C
:1016F000F3681343F360554B554D1D601B68F36849
:101700009343F360FA430B6813400B6051490B6835
:1017100013400B6008270F60B16804220D929143BB
:10172000B16007214A033346283B1D689543254392
:101730001D600A02036813430360C90202680A437A
:101740000260454E0025284629462A46434C00099A
:101750005B411B01F8415B41F8415B41DB00120931
:101760005B41FA415B41FA415B4109095B41F94147
:101770005B41F9415B416340F841400A5B411B0119
:10178000F8415B41F8415B41DB00FA41520A5B41A1
:10179000FA415B41FA415B41F941490A5B41F94138
:1017A0005B41F9415B4163403360F841400A5B4172
:1017B0001B01F8415B41F8415B41DB00FA41520AF1
:1017C0005B41FA415B41FA415B41F941490A5B41A6
:1017D000F9415B41F9415B416340F841400A5B419B
:1017E0001B01F8415B41F8415B41DB00FA41520AC1
:1017F0005B41FA415B41FA415B41F941490A5B4176
:10180000F9415B41F9415B4163407360F841400A33
:101810005B411B01F8415B41F8415B41DB00FA4150
:10182000520A5B41FA415B41FA415B41F941490A85
:101830005B41F9415B41F9415B416340B3600C3668
:10184000284629462A460B960AE0C046007000400A
:10185000051A000000200240D00E0020FF87000083
:1018600000095B411B01F8415B41F8415B41DB0032
:1018700012095B41FA415B41FA415B4109095B4155
:10188000F9415B41F9415B416340F841400A5B41EA
:101890001B01F8415B41F8415B41DB00FA41520A10
:1018A0005B41FA415B41FA415B41F941490A5B41C5
:1018B000F9415B41F9415B4163403360F841400AC3
:1018C0005B411B01F8415B41F8415B41DB00FA41A0
:1018D000520A5B41FA415B41FA415B41F941490AD5
:1018E0005B41F9415B41F9415B416340F841400A8A
:1018F0005B411B01F8415B41F8415B41DB00FA4170
:10190000520A5B41FA415B41FA415B41F941490AA4
:101910005B41F9415B41F9415B4163407360F841D0
:10192000400A5B411B01F8415B41F8415B41DB0030
:10193000FA41520A5B41FA415B41FA415B41F9418C
:10194000490A5B41F9415B41F9415B416340B36046
:10195000424E1836284629462A460A9600095B4117
:101960001B01F8415B41F8415B41DB0012095B411F
:10197000FA415B41FA415B4109095B41F9415B4135
:10198000F9415B416340F841400A5B411B01F8416A
:101990005B41F8415B41DB00FA41520A5B41FA418D
:1019A0005B41FA415B41F941490A5B41F9415B41C5
:1019B000F9415B4163403360F841400A5B411B01E0
:1019C000F8415B41F8415B41DB00FA41520A5B415F
:1019D000FA415B41FA415B41F941490A5B41F941F6
:1019E0005B41F9415B416340F841400A5B411B01A7
:1019F000F8415B41F8415B41DB00FA41520A5B412F
:101A0000FA415B41FA415B41F941490A5B41F941C5
:101A10005B41F9415B4163407360F841400A5B41BF
:101A20001B01F8415B41F8415B41DB00FA41520A7E
:101A30005B41FA415B41FA415B41F941490A5B4133
:101A4000F9415B41F9415B416340B360034E243689
:101A5000284629462A46099602E0C046D00E0020B4
:101A600000095B411B01F8415B41F8415B411209F0
:101A70005B41FA415B41FA415B41DB0009095B4193
:101A8000F9415B41F9415B416340F841400A5B41E8
:101A90001B01F8415B41F8415B41FA41520A5B414D
:101AA000FA415B41FA415B41DB00F941490A5B4184
:101AB000F9415B41F9415B4163403360F841400AC1
:101AC0005B411B01F8415B41F8415B41FA41520A1D
:101AD0005B41FA415B41FA415B41DB00F941490A54
:101AE0005B41F9415B41F9415B416340F841400A88
:101AF0005B411B01F8415B41F8415B41FA41520AED
:101B00005B41FA415B41FA415B41DB00F941490A23
:101B10005B41F9415B41F9415B4163407360F841CE
:101B2000400A5B411B01F8415B41F8415B41FA41CE
:101B3000520A5B41FA415B41FA415B41DB00F941EA
:101B4000490A5B41F9415B41F9415B416340B36044
:101B5000424E3036284629462A46089600095B41FF
:101B60001B01F8415B41F8415B4112095B41FA41BD
:101B70005B41FA415B41DB0009095B41F9415B4193
:101B8000F9415B416340F841400A5B411B01F84168
:101B90005B41F8415B41FA41520A5B41FA415B41CA
:101BA000FA415B41DB00F941490A5B41F9415B4184
:101BB000F9415B4163403360F841400A5B411B01DE
:101BC000F8415B41F8415B41FA41520A5B41FA41FD
:101BD0005B41FA415B41DB00F941490A5B41F94154
:101BE0005B41F9415B416340F841400A5B411B01A5
:101BF000F8415B41F8415B41FA41520A5B41FA41CD
:101C00005B41FA415B41DB00F941490A5B41F94123
:101C10005B41F9415B4163407360F841400A5B41BD
:101C20001B01F8415B41F8415B41FA41520A5B41BB
:101C3000FA415B41FA415B41DB00F941490A5B41F2
:101C4000F9415B41F9415B416340B360034E3C366F
:101C5000284629462A46079602E0C046D00E0020B4
:101C600000095B411B01F8415B41F8415B411209EE
:101C70005B41FA415B41FA415B41DB0009095B4191
:101C8000F9415B41F9415B416340F841400A5B41E6
:101C90001B01F8415B41F8415B41FA41520A5B414B
:101CA000FA415B41FA415B41DB00F941490A5B4182
:101CB000F9415B41F9415B4163403360F841400ABF
:101CC0005B411B01F8415B41F8415B41FA41520A1B
:101CD0005B41FA415B41FA415B41DB00F941490A52
:101CE0005B41F9415B41F9415B416340F841400A86
:101CF0005B411B01F8415B41F8415B41FA41520AEB
:101D00005B41FA415B41FA415B41DB00F941490A21
:101D10005B41F9415B41F9415B4163407360F841CC
:101D2000400A5B411B01F8415B41F8415B41FA41CC
:101D3000520A5B41FA415B41FA415B41DB00F941E8
:101D4000490A5B41F9415B41F9415B416340B36042
:101D5000424E4836284629462A46069600095B41E7
:101D60001B01F8415B41F8415B4112095B41FA41BB
:101D70005B41FA415B4109095B41F9415B41F94132
:101D80005B41DB006340F841400A5B411B01F841C5
:101D90005B41F8415B41FA41520A5B41FA415B41C8
:101DA000FA415B41F941490A5B41F9415B41F94123
:101DB0005B41DB0063403360F841400A5B411B013B
:101DC000F8415B41F8415B41FA41520A5B41FA41FB
:101DD0005B41FA415B41F941490A5B41F9415B4191
:101DE000F9415B41DB006340F841400A5B411B0164
:101DF000F8415B41F8415B41FA41520A5B41FA41CB
:101E00005B41FA415B41F941490A5B41F9415B4160
:101E1000F9415B41DB0063407360F841400A5B417C
:101E20001B01F8415B41F8415B41FA41520A5B41B9
:101E3000FA415B41FA415B41F941490A5B41F94191
:101E40005B41F9415B41DB006340B360034E5436B4
:101E5000284629462A46059602E0C046D00E0020B4
:101E600000095B411B01F8415B41F8415B411209EC
:101E70005B41FA415B41FA415B4109095B41F94130
:101E80005B41F9415B41DB006340F841400A5B4143
:101E90001B01F8415B41F8415B41FA41520A5B4149
:101EA000FA415B41FA415B41F941490A5B41F94121
:101EB0005B41F9415B41DB0063403360F841400A1C
:101EC0005B411B01F8415B41F8415B41FA41520A19
:101ED0005B41FA415B41FA415B41F941490A5B418F
:101EE000F9415B41F9415B41DB006340F841400A45
:101EF0005B411B01F8415B41F8415B41FA41520AE9
:101F00005B41FA415B41FA415B41F941490A5B415E
:101F1000F9415B41F9415B41DB0063407360F8418B
:101F2000400A5B411B01F8415B41F8415B41FA41CA
:101F3000520A5B41FA415B41FA415B41F941490A6E
:101F40005B41F9415B41F9415B41DB006340B360B8
:101F5000424E6036284629462A46049600095B41CF
:101F60001B01F8415B41F8415B4112095B41FA41B9
:101F70005B41FA415B4109095B41F9415B41F94130
:101F80005B41DB006340F841400A5B411B01F841C3
:101F90005B41F8415B41FA41520A5B41FA415B41C6
:101FA000FA415B41F941490A5B41F9415B41F94121
:101FB0005B41DB0063403360F841400A5B411B0139
:101FC000F8415B41F8415B41FA41520A5B41FA41F9
:101FD0005B41FA415B41F941490A5B41F9415B418F
:101FE000F9415B41DB006340F841400A5B411B0162
:101FF000F8415B41F8415B41FA41520A5B41FA41C9
:102000005B41FA415B41F941490A5B41F9415B415E
:10201000F9415B41DB0063407360F841400A5B417A
:102020001B01F8415B41F8415B41FA41520A5B41B7
:10203000FA415B41FA415B41F941490A5B41F9418F
:102040005B41F9415B41DB006340B360034E6C369A
:10205000284629462A46039602E0C046D00E0020B4
:10206000DB0112095B41FA415B41FA415B4109091D
:102070005B41F9415B41F9415B4100095B41F8413A
:102080005B41F8415B416340DB01FA41520A5B412D
:10209000FA415B41FA415B41F941490A5B41F9412F
:1020A0005B41F9415B41F841400A5B41F8415B41CA
:1020B000F8415B4163403360DB01FA41520A5B4106
:1020C000FA415B41FA415B41F941490A5B41F941FF
:1020D0005B41F9415B41F841400A5B41F8415B419A
:1020E000F8415B416340DB01FA41520A5B41FA412E
:1020F0005B41FA415B41F941490A5B41F9415B416E
:10210000F9415B41F841400A5B41F8415B41F841CC
:102110005B4163407360DB01FA41520A5B41FA4163
:102120005B41FA415B41F941490A5B41F9415B413D
:10213000F9415B41F841400A5B41F8415B41F8419C
:102140005B416340B360404E7836284629462A46B4
:102150000296DB0112095B41FA415B41FA415B41A6
:1021600009095B41F9415B41F9415B4100095B4170
:10217000F8415B41F8415B416340DB01FA41520A9F
:102180005B41FA415B41FA415B41F941490A5B41DC
:10219000F9415B41F9415B41F841400A5B41F8413B
:1021A0005B41F8415B4163403360DB01FA41520A15
:1021B0005B41FA415B41FA415B41F941490A5B41AC
:1021C000F9415B41F9415B41F841400A5B41F8410B
:1021D0005B41F8415B416340DB01FA41520A5B41DC
:1021E000FA415B41FA415B41F941490A5B41F941DE
:1021F0005B41F9415B41F841400A5B41F8415B4179
:10220000F8415B4163407360DB01FA41520A5B4174
:10221000FA415B41FA415B41F941490A5B41F941AD
:102220005B41F9415B41F841400A5B41F8415B4148
:10223000F8415B416340B360034E8436284629462B
:102240002A460C97019601E0D00E0020DB0112090E
:102250005B41FA415B41FA415B4109095B41F9414C
:102260005B41F9415B4100095B41F8415B41F84149
:102270005B416340DB01FA41520A5B41FA415B4139
:10228000FA415B41F941490A5B41F9415B41F9413E
:102290005B41F841400A5B41F8415B41F8415B41D9
:1022A00063403360DB01FA41520A5B41FA415B4112
:1022B000FA415B41F941490A5B41F9415B41F9410E
:1022C0005B41F841400A5B41F8415B41F8415B41A9
:1022D0006340DB01FA41520A5B41FA415B41FA413A
:1022E0005B41F941490A5B41F9415B41F9415B417D
:1022F000F841400A5B41F8415B41F8415B41634072
:102300007360DB01FA41520A5B41FA415B41FA41D9
:102310005B41F941490A5B41F9415B41F9415B414C
:10232000F841400A5B41F8415B41F8415B41634041
:10233000B36016951595189514952E4600E01690E5
:10234000159C20463146189F3A46FEF73FFE1790EF
:1023500031460C3120463A46FEF738FE05463146F6
:10236000183120463A46FEF731FE034630461799AB
:102370002A4601F0D5FD02F0F3FB761C0C2EDFD1CE
:1023800029480769802007401899491C169A1E2A77
:1023900018913CD10F90109700263046149604E017
:1023A0001298401C0C28149E40D011991290414361
:1023B000139107E0304601F0B3FD02F0D1FB761C2B
:1023C0000C2EEDD0159C20463146189D2A46FEF76E
:1023D000FDFD179037460C37204639462A46FEF752
:1023E000F5FD16903546183520462946189AFEF711
:1023F000EDFD139CA642149B194600D31799A742E2
:102400001A4600D3169AA542D4D30346D2E71598AC
:102410000A2801D000F0CEFE1229149800D00A201C
:10242000159000F0B2FEC04600040050044DA868AC
:102430000E9A1043A86003480068002830D103E0DA
:102440002C100240E00D00200E480F4901600F20C3
:1024500000030E4B196881431003081818600C49DB
:10246000C8680F9C2043C860086820430860FF20AC
:102470000006084B19688143196007480460074843
:1024800004600DE0E00D0020554B00080C000140F9
:102490000004014004E400E080E200E000E100E02C
:1024A000286810432860119CA007009B196801430D
:1024B0001960D9688143D9602868104328602005D5
:1024C000196801431960D9688143D96028681043AD
:1024D0002860A004196801431960D9688143D96054
:1024E0002868104328602004196801431960D968DE
:1024F0008143D960286810432860A003196801430C
:102500001960D86865490840D86028681043286079
:102510002003196801431960D9688143D96028688C
:1025200010432860A002196801431960D9688143EB
:10253000D960286810432860200219680143196097
:10254000D9688143D9602868104328601868C02181
:1025500008431860D8688843D8602868104328600A
:102560001868302108431860D8688843D860286804
:102570001043286018680C2108431860D868884305
:10258000D860286810432860186820431860D8680D
:10259000A043D8600025284629462A46404C0C9E78
:1025A000404F00095B411B01F0415B41F0415B4141
:1025B000DB0012095B41F2415B41F2415B410909D9
:1025C0005B41F1415B41F1415B416340F041400AB5
:1025D0005B411B01F0415B41F0415B41DB00F2419B
:1025E000520A5B41F2415B41F2415B41F141490AD0
:1025F0005B41F1415B41F1415B4163403B60F04134
:10260000400A5B411B01F0415B41F0415B41DB0053
:10261000F241520A5B41F2415B41F2415B41F141BF
:10262000490A5B41F1415B41F1415B416340F0414B
:10263000400A5B411B01F0415B41F0415B41DB0023
:10264000F241520A5B41F2415B41F2415B41F1418F
:10265000490A5B41F1415B41F1415B4163407B6071
:10266000F041400A5B411B01F0415B41F0415B419D
:10267000DB00F241520A5B41F2415B41F2415B41B6
:10268000F141490A5B41F1415B41F1415B416340EA
:10269000BB60284629462A460B9F05E0FF3FFFFF07
:1026A000FF870000D00E002000095B411B01F041B4
:1026B0005B41F0415B41DB0012095B41F2415B4150
:1026C000F2415B4109095B41F1415B41F1415B41F1
:1026D0006340F041400A5B411B01F0415B41F04126
:1026E0005B41DB00F241520A5B41F2415B41F24146
:1026F0005B41F141490A5B41F1415B41F1415B4181
:1027000063403B60F041400A5B411B01F0415B418B
:10271000F0415B41DB00F241520A5B41F2415B4117
:10272000F2415B41F141490A5B41F1415B41F141B9
:102730005B416340F041400A5B411B01F0415B415A
:10274000F0415B41DB00F241520A5B41F2415B41E7
:10275000F2415B41F141490A5B41F1415B41F14189
:102760005B4163407B60F041400A5B411B01F041EB
:102770005B41F0415B41DB00F241520A5B41F241B7
:102780005B41F2415B41F141490A5B41F1415B41EF
:10279000F1415B416340BB60284629462A460A9FB7
:1027A00000095B411B01F0415B41F0415B41DB00F3
:1027B00012095B41F2415B41F2415B4109095B4116
:1027C000F1415B41F1415B416340F041400A5B41B3
:1027D0001B01F0415B41F0415B41DB00F241520AD9
:1027E0005B41F2415B41F2415B41F141490A5B418E
:1027F000F1415B41F1415B4163403B60F041400A84
:102800005B411B01F0415B41F0415B41DB00F24168
:10281000520A5B41F2415B41F2415B41F141490A9D
:102820005B41F1415B41F1415B416340F041400A52
:102830005B411B01F0415B41F0415B41DB00F24138
:10284000520A5B41F2415B41F2415B41F141490A6D
:102850005B41F1415B41F1415B4163407B60F04191
:10286000400A5B411B01F0415B41F0415B41DB00F1
:10287000F241520A5B41F2415B41F2415B41F1415D
:10288000490A5B41F1415B41F1415B416340BB60FF
:10289000284629462A46099F00095B411B01F04151
:1028A0005B41F0415B4112095B41F2415B41F24106
:1028B0005B41DB0009095B41F1415B41F1415B4157
:1028C0006340F041400A5B411B01F0415B41F04134
:1028D0005B41F241520A5B41F2415B41F2415B4193
:1028E000DB00F141490A5B41F1415B41F1415B4150
:1028F00063403B60F041400A5B411B01F0415B419A
:10290000F0415B41F241520A5B41F2415B41F241CD
:102910005B41DB00F141490A5B41F1415B41F1411F
:102920005B416340F041400A5B411B01F0415B4168
:10293000F0415B41F241520A5B41F2415B41F2419D
:102940005B41DB00F141490A5B41F1415B41F141EF
:102950005B4163407B60F041400A5B411B01F041F9
:102960005B41F0415B41F241520A5B41F2415B4104
:10297000F2415B41DB00F141490A5B41F1415B41BE
:10298000F1415B416340BB60284629462A46089FC7
:1029900000095B411B01F0415B41F0415B411209C1
:1029A0005B41F2415B41F2415B41DB0009095B4164
:1029B000F1415B41F1415B416340F041400A5B41C1
:1029C0001B01F0415B41F0415B41F241520A5B4126
:1029D000F2415B41F2415B41DB00F141490A5B415D
:1029E000F1415B41F1415B4163403B60F041400A92
:1029F0005B411B01F0415B41F0415B41F241520AF6
:102A00005B41F2415B41F2415B41DB00F141490A2C
:102A10005B41F1415B41F1415B416340F041400A60
:102A20005B411B01F0415B41F0415B41F241520AC5
:102A30005B41F2415B41F2415B41DB00F141490AFC
:102A40005B41F1415B41F1415B4163407B60F0419F
:102A5000400A5B411B01F0415B41F0415B41F241A7
:102A6000520A5B41F2415B41F2415B41DB00F141C3
:102A7000490A5B41F1415B41F1415B416340BB600D
:102A8000284629462A46079F00095B411B01F04161
:102A90005B41F0415B4112095B41F2415B41F24114
:102AA0005B41DB0009095B41F1415B41F1415B4165
:102AB0006340F041400A5B411B01F0415B41F04142
:102AC0005B41F241520A5B41F2415B41F2415B41A1
:102AD000DB00F141490A5B41F1415B41F1415B415E
:102AE00063403B60F041400A5B411B01F0415B41A8
:102AF000F0415B41F241520A5B41F2415B41F241DC
:102B00005B41DB00F141490A5B41F1415B41F1412D
:102B10005B416340F041400A5B411B01F0415B4176
:102B2000F0415B41F241520A5B41F2415B41F241AB
:102B30005B41DB00F141490A5B41F1415B41F141FD
:102B40005B4163407B60F041400A5B411B01F04107
:102B50005B41F0415B41F241520A5B41F2415B4112
:102B6000F2415B41DB00F141490A5B41F1415B41CC
:102B7000F1415B416340BB60284629462A46069FD7
:102B800000095B411B01F0415B41F0415B411209CF
:102B90005B41F2415B41F2415B4109095B41F1411B
:102BA0005B41F1415B41DB006340F041400A5B4126
:102BB0001B01F0415B41F0415B41F241520A5B4134
:102BC000F2415B41F2415B41F141490A5B41F14114
:102BD0005B41F1415B41DB0063403B60F041400AF7
:102BE0005B411B01F0415B41F0415B41F241520A04
:102BF0005B41F2415B41F2415B41F141490A5B417A
:102C0000F1415B41F1415B41DB006340F041400A2F
:102C10005B411B01F0415B41F0415B41F241520AD3
:102C20005B41F2415B41F2415B41F141490A5B4149
:102C3000F1415B41F1415B41DB0063407B60F0416E
:102C4000400A5B411B01F0415B41F0415B41F241B5
:102C5000520A5B41F2415B41F2415B41F141490A59
:102C60005B41F1415B41F1415B41DB006340BB6093
:102C7000284629462A46059F00095B411B01F04171
:102C80005B41F0415B4112095B41F2415B41F24122
:102C90005B4109095B41F1415B41F1415B41DB0073
:102CA0006340F041400A5B411B01F0415B41F04150
:102CB0005B41F241520A5B41F2415B41F2415B41AF
:102CC000F141490A5B41F1415B41F1415B41DB006C
:102CD00063403B60F041400A5B411B01F0415B41B6
:102CE000F0415B41F241520A5B41F2415B41F241EA
:102CF0005B41F141490A5B41F1415B41F1415B417B
:102D0000DB006340F041400A5B411B01F0415B4145
:102D1000F0415B41F241520A5B41F2415B41F241B9
:102D20005B41F141490A5B41F1415B41F1415B414A
:102D3000DB0063407B60F041400A5B411B01F041D6
:102D40005B41F0415B41F241520A5B41F2415B4120
:102D5000F2415B41F141490A5B41F1415B41F14183
:102D60005B41DB006340BB60284629462A46049F3E
:102D700000095B411B01F0415B41F0415B411209DD
:102D80005B41F2415B41F2415B4109095B41F14129
:102D90005B41F1415B41DB006340F041400A5B4134
:102DA0001B01F0415B41F0415B41F241520A5B4142
:102DB000F2415B41F2415B41F141490A5B41F14122
:102DC0005B41F1415B41DB0063403B60F041400A05
:102DD0005B411B01F0415B41F0415B41F241520A12
:102DE0005B41F2415B41F2415B41F141490A5B4188
:102DF000F1415B41F1415B41DB006340F041400A3E
:102E00005B411B01F0415B41F0415B41F241520AE1
:102E10005B41F2415B41F2415B41F141490A5B4157
:102E2000F1415B41F1415B41DB0063407B60F0417C
:102E3000400A5B411B01F0415B41F0415B41F241C3
:102E4000520A5B41F2415B41F2415B41F141490A67
:102E50005B41F1415B41F1415B41DB006340BB60A1
:102E6000284629462A46039FDB0112095B41F241AD
:102E70005B41F2415B4109095B41F1415B41F14139
:102E80005B4100095B41F0415B41F0415B416340C4
:102E9000DB01F241520A5B41F2415B41F2415B418D
:102EA000F141490A5B41F1415B41F1415B41F04134
:102EB000400A5B41F0415B41F0415B4163403B6054
:102EC000DB01F241520A5B41F2415B41F2415B415D
:102ED000F141490A5B41F1415B41F1415B41F04104
:102EE000400A5B41F0415B41F0415B416340DB01E3
:102EF000F241520A5B41F2415B41F2415B41F141D7
:102F0000490A5B41F1415B41F1415B41F041400ABB
:102F10005B41F0415B41F0415B4163407B60DB0121
:102F2000F241520A5B41F2415B41F2415B41F141A6
:102F3000490A5B41F1415B41F1415B41F041400A8B
:102F40005B41F0415B41F0415B416340BB6028461F
:102F500029462A46029FDB0112095B41F2415B418F
:102F6000F2415B4109095B41F1415B41F1415B4148
:102F700000095B41F0415B41F0415B416340DB0193
:102F8000F241520A5B41F2415B41F2415B41F14146
:102F9000490A5B41F1415B41F1415B41F041400A2B
:102FA0005B41F0415B41F0415B4163403B60DB01D1
:102FB000F241520A5B41F2415B41F2415B41F14116
:102FC000490A5B41F1415B41F1415B41F041400AFB
:102FD0005B41F0415B41F0415B416340DB01F24109
:102FE000520A5B41F2415B41F2415B41F141490AC6
:102FF0005B41F1415B41F1415B41F041400A5B4182
:10300000F0415B41F0415B4163407B60DB01F24199
:10301000520A5B41F2415B41F2415B41F141490A95
:103020005B41F1415B41F1415B41F041400A5B4151
:10303000F0415B41F0415B416340BB60284629465B
:103040002A46019FDB0112095B41F2415B41F241DB
:103050005B4109095B41F1415B41F1415B41000981
:103060005B41F0415B41F0415B416340DB01F24178
:10307000520A5B41F2415B41F2415B41F141490A35
:103080005B41F1415B41F1415B41F041400A5B41F1
:10309000F0415B41F0415B4163403B60DB01F24149
:1030A000520A5B41F2415B41F2415B41F141490A05
:1030B0005B41F1415B41F1415B41F041400A5B41C1
:1030C000F0415B41F0415B416340DB01F241520A58
:1030D0005B41F2415B41F2415B41F141490A5B4195
:1030E000F1415B41F1415B41F041400A5B41F041FC
:1030F0005B41F0415B4163407B60DB01F241520A7E
:103100005B41F2415B41F2415B41F141490A5B4164
:10311000F1415B41F1415B41F041400A5B41F041CB
:103120005B41F0415B416340BB601C4F18953D70B3
:103130001B4A10680D99084310601A4E20BF38785A
:103140000028FBD02D20C40030690006F6D401F021
:1031500007FD641EF8D100F007FE114A10680D99B2
:1031600088431060104A90680E99084390600F4A97
:1031700010680F9B984310600D48189A0260CA07A8
:103180000A20159914911590109F0026002F3046A3
:1031900001D0FFF7D4F8501CFFF7D1F8CC0E002077
:1031A00010ED00E0000400502C100240000401402B
:1031B000E00D0020002FE8D0012AE6DB1097002068
:1031C000014602460346404F0C9E404D09096441AA
:1031D0002401F1416441F1416441E4001B0964416F
:1031E000F3416441F341644112096441F241644195
:1031F000F24164417C40F141490A64412401F141BA
:103200006441F1416441E400F3415B0A6441F341EC
:103210006441F3416441F241520A6441F241644124
:10322000F24164417C402C60F141490A644124012F
:10323000F1416441F1416441E400F3415B0A6441BE
:10324000F3416441F3416441F241520A6441F24165
:103250006441F24164417C40F141490A64412401E6
:10326000F1416441F1416441E400F3415B0A64418E
:10327000F3416441F3416441F241520A6441F24135
:103280006441F24164417C406C60F141490A64410F
:103290002401F1416441F1416441E400F3415B0ADE
:1032A0006441F3416441F3416441F241520A644193
:1032B000F2416441F24164417C40AC600146024607
:1032C00003460B9D04E0C046FF870000D00E00209F
:1032D000090964412401F1416441F1416441E40080
:1032E0001B096441F3416441F341644112096441A3
:1032F000F2416441F24164417C40F141490A644138
:103300002401F1416441F1416441E400F3415B0A6D
:103310006441F3416441F3416441F241520A644122
:10332000F2416441F24164417C402C60F141490A20
:1033300064412401F1416441F1416441E400F341FD
:103340005B0A6441F3416441F3416441F241520A32
:103350006441F2416441F24164417C40F141490AD7
:1033600064412401F1416441F1416441E400F341CD
:103370005B0A6441F3416441F3416441F241520A02
:103380006441F2416441F24164417C406C60F1412E
:10339000490A64412401F1416441F1416441E4007E
:1033A000F3415B0A6441F3416441F3416441F241FA
:1033B000520A6441F2416441F24164417C40AC6094
:1033C0000146024603460A9D090964412401F14170
:1033D0006441F1416441E4001B096441F3416441EB
:1033E000F341644112096441F2416441F241644194
:1033F0007C40F141490A64412401F1416441F141B9
:103400006441E400F3415B0A6441F3416441F341E8
:103410006441F241520A6441F2416441F241644123
:103420007C402C60F141490A64412401F14164412E
:10343000F1416441E400F3415B0A6441F3416441BA
:10344000F3416441F241520A6441F2416441F24164
:1034500064417C40F141490A64412401F1416441E5
:10346000F1416441E400F3415B0A6441F34164418A
:10347000F3416441F241520A6441F2416441F24134
:1034800064417C406C60F141490A64412401F1418E
:103490006441F1416441E400F3415B0A6441F3415A
:1034A0006441F3416441F241520A6441F241644192
:1034B000F24164417C40AC60014602460346099DEE
:1034C000090964412401F1416441F14164411B094E
:1034D0006441F3416441F3416441E40012096441F1
:1034E000F2416441F24164417C40F141490A644146
:1034F0002401F1416441F1416441F3415B0A6441BB
:10350000F3416441F3416441E400F241520A6441F1
:10351000F2416441F24164417C402C60F141490A2E
:1035200064412401F1416441F1416441F3415B0A8A
:103530006441F3416441F3416441E400F241520AC1
:103540006441F2416441F24164417C40F141490AE5
:1035500064412401F1416441F1416441F3415B0A5A
:103560006441F3416441F3416441E400F241520A91
:103570006441F2416441F24164417C406C60F1413C
:10358000490A64412401F1416441F1416441F3413C
:103590005B0A6441F3416441F3416441E400F24158
:1035A000520A6441F2416441F24164417C40AC60A2
:1035B000014602460346089D090964412401F14180
:1035C0006441F14164411B096441F3416441F341A9
:1035D0006441E40012096441F2416441F2416441F2
:1035E0007C40F141490A64412401F1416441F141C7
:1035F0006441F3415B0A6441F3416441F341644136
:10360000E400F241520A6441F2416441F2416441F2
:103610007C402C60F141490A64412401F14164413C
:10362000F1416441F3415B0A6441F3416441F34178
:103630006441E400F241520A6441F2416441F241C2
:1036400064417C40F141490A64412401F1416441F3
:10365000F1416441F3415B0A6441F3416441F34148
:103660006441E400F241520A6441F2416441F24192
:1036700064417C406C60F141490A64412401F1419C
:103680006441F1416441F3415B0A6441F3416441A7
:10369000F3416441E400F241520A6441F241644161
:1036A000F24164417C40AC60014602460346079DFE
:1036B000090964412401F1416441F14164411B095C
:1036C0006441F3416441F3416441E40012096441FF
:1036D000F2416441F24164417C40F141490A644154
:1036E0002401F1416441F1416441F3415B0A6441C9
:1036F000F3416441F3416441E400F241520A644100
:10370000F2416441F24164417C402C60F141490A3C
:1037100064412401F1416441F1416441F3415B0A98
:103720006441F3416441F3416441E400F241520ACF
:103730006441F2416441F24164417C40F141490AF3
:1037400064412401F1416441F1416441F3415B0A68
:103750006441F3416441F3416441E400F241520A9F
:103760006441F2416441F24164417C406C60F1414A
:10377000490A64412401F1416441F1416441F3414A
:103780005B0A6441F3416441F3416441E400F24166
:10379000520A6441F2416441F24164417C40AC60B0
:1037A000014602460346069D090964412401F14190
:1037B0006441F14164411B096441F3416441F341B7
:1037C000644112096441F2416441F2416441E40000
:1037D0007C40F141490A64412401F1416441F141D5
:1037E0006441F3415B0A6441F3416441F341644144
:1037F000F241520A6441F2416441F2416441E40001
:103800007C402C60F141490A64412401F14164414A
:10381000F1416441F3415B0A6441F3416441F34186
:103820006441F241520A6441F2416441F24164410F
:10383000E4007C40F141490A64412401F1416441C2
:10384000F1416441F3415B0A6441F3416441F34156
:103850006441F241520A6441F2416441F2416441DF
:10386000E4007C406C60F141490A64412401F1416B
:103870006441F1416441F3415B0A6441F3416441B5
:10388000F3416441F241520A6441F2416441F24120
:103890006441E4007C40AC60014602460346059D5D
:1038A000090964412401F1416441F14164411B096A
:1038B0006441F3416441F341644112096441F241BE
:1038C0006441F2416441E4007C40F141490A6441B1
:1038D0002401F1416441F1416441F3415B0A6441D7
:1038E000F3416441F3416441F241520A6441F241BF
:1038F0006441F2416441E4007C402C60F141490A9A
:1039000064412401F1416441F1416441F3415B0AA6
:103910006441F3416441F3416441F241520A64411C
:10392000F2416441F2416441E4007C40F141490AC2
:1039300064412401F1416441F1416441F3415B0A76
:103940006441F3416441F3416441F241520A6441EC
:10395000F2416441F2416441E4007C406C60F14119
:10396000490A64412401F1416441F1416441F34158
:103970005B0A6441F3416441F3416441F241520AFC
:103980006441F2416441F2416441E4007C40AC6036
:10399000014602460346049D090964412401F141A0
:1039A0006441F14164411B096441F3416441F341C5
:1039B000644112096441F2416441F2416441E4000E
:1039C0007C40F141490A64412401F1416441F141E3
:1039D0006441F3415B0A6441F3416441F341644152
:1039E000F241520A6441F2416441F2416441E4000F
:1039F0007C402C60F141490A64412401F141644159
:103A0000F1416441F3415B0A6441F3416441F34194
:103A10006441F241520A6441F2416441F24164411D
:103A2000E4007C40F141490A64412401F1416441D0
:103A3000F1416441F3415B0A6441F3416441F34164
:103A40006441F241520A6441F2416441F2416441ED
:103A5000E4007C406C60F141490A64412401F14179
:103A60006441F1416441F3415B0A6441F3416441C3
:103A7000F3416441F241520A6441F2416441F2412E
:103A80006441E4007C40AC60014602460346039D6D
:103A9000E4011B096441F3416441F34164411209AB
:103AA0006441F2416441F241644109096441F141D8
:103AB0006441F14164417C40E401F3415B0A6441AB
:103AC000F3416441F3416441F241520A6441F241DD
:103AD0006441F2416441F141490A6441F141644168
:103AE000F14164417C402C60E401F3415B0A644194
:103AF000F3416441F3416441F241520A6441F241AD
:103B00006441F2416441F141490A6441F141644137
:103B1000F14164417C40E401F3415B0A6441F341BB
:103B20006441F3416441F241520A6441F24164410B
:103B3000F2416441F141490A6441F1416441F1417A
:103B400064417C406C60E401F3415B0A6441F341F1
:103B50006441F3416441F241520A6441F2416441DB
:103B6000F2416441F141490A6441F1416441F1414A
:103B700064417C40AC60014602460346029DE4017C
:103B80001B096441F3416441F341644112096441FA
:103B9000F2416441F241644109096441F1416441E7
:103BA000F14164417C40E401F3415B0A6441F3412B
:103BB0006441F3416441F241520A6441F24164417B
:103BC000F2416441F141490A6441F1416441F141EA
:103BD00064417C402C60E401F3415B0A6441F341A1
:103BE0006441F3416441F241520A6441F24164414B
:103BF000F2416441F141490A6441F1416441F141BA
:103C000064417C40E401F3415B0A6441F341644157
:103C1000F3416441F241520A6441F2416441F2418C
:103C20006441F141490A6441F1416441F141644117
:103C30007C406C60E401F3415B0A6441F341644100
:103C4000F3416441F241520A6441F2416441F2415C
:103C50006441F141490A6441F1416441F1416441E7
:103C60007C40AC60014602460346019DE4011B090D
:103C70006441F3416441F341644112096441F241FA
:103C80006441F241644109096441F1416441F141F7
:103C900064417C40E401F3415B0A6441F3416441C7
:103CA000F3416441F241520A6441F2416441F241FC
:103CB0006441F141490A6441F1416441F141644187
:103CC0007C402C60E401F3415B0A6441F3416441B0
:103CD000F3416441F241520A6441F2416441F241CC
:103CE0006441F141490A6441F1416441F141644157
:103CF0007C40E401F3415B0A6441F3416441F341D8
:103D00006441F241520A6441F2416441F24164412A
:103D1000F141490A6441F1416441F14164417C400F
:103D20006C60E401F3415B0A6441F3416441F34197
:103D30006441F241520A6441F2416441F2416441FA
:103D4000F141490A6441F1416441F14164417C40DF
:103D5000AC601599491C072900DC08461590109F96
:103D6000169AFFF712FAD4D4F0B589B005200007EF
:103D70000121CB0383618A02009282614A0202928E
:103D800082610A020192826180220392826140274D
:103D900087612022059282611022049282610822AA
:103DA0000792826104220692826102220892826155
:103DB0008161524D2E680E432E600668504A1640AF
:103DC000B618761C066086681640CA07B21882606C
:103DD0002A680A432A6002684A4E32400C051219CA
:103DE0000260826832404C05121982602A680A43D8
:103DF0002A600268444C22408E0492190260826854
:103E00002240CC04121982602A680A432A600268A0
:103E10003E4C22400E0492190260826822404C04FB
:103E2000121982602A680A432A600268384C2240CC
:103E30008E039219026082682240D21882602A683A
:103E40000A432A600268334B1A400C0312190260BD
:103E500082681A404B03D21882602A680A432A609B
:103E600002682D4B1A40009C1219026082681A40A9
:103E7000CB02D21882602A680A432A600268274B64
:103E80001A40019C1219026082681A40029BD218E3
:103E900082602A680A432A6002683A43039B9A4375
:103EA000026082681A43BA4382602A680A432A6021
:103EB0000268049C2243059B9A43026082681A436D
:103EC000A24382602A680A432A600268069C224351
:103ED000079B9A43026082681A43A24382602A6861
:103EE0000A432A6002680A43089B9A430260826878
:103EF0001A438A43826009B0F0BDC0462C100240CC
:103F0000FFFFFF3FFFFFCFFFFFFFF3FFFFFFFCFFC0
:103F1000FF3FFFFFFFCFFFFFFFF3FFFFFFFCFFFFB0
:103F200070B50B2800D98CE04000C04678448088EA
:103F3000400087440B008B030502870207010D0434
:103F40008F0409038D05890111058B003D48082464
:103F50003D4D090976413601E1417641E141764125
:103F6000F6001B097641E3417641E34176411209AF
:103F70007641E2417641E24176416E40E141490AB3
:103F800076413601E1417641E1417641F600E34177
:103F90005B0A7641E3417641E3417641E241520AD0
:103FA0007641E2417641E24176416E400660E14170
:103FB000490A76413601E1417641E1417641F60018
:103FC000E3415B0A7641E3417641E3417641E241D8
:103FD000520A7641E2417641E24176416E40E1414A
:103FE000490A76413601E1417641E1417641F600E8
:103FF000E3415B0A7641E3417641E3417641E241A8
:10400000520A7641E2417641E24176416E40466095
:10401000E141490A76413601E1417641E14176418B
:10402000F600E3415B0A7641E3417641E3417641A4
:10403000E241520A7641E2417641E24176416E40E8
:10404000866070BDD00E0020FF8700003B488430A2
:1040500008243B4DF6011B097641E3417641E341DB
:10406000764112097641E2417641E2417641090901
:104070007641E1417641E14176416E40F601E3410E
:104080005B0A7641E3417641E3417641E241520ADF
:104090007641E2417641E2417641E141490A764189
:1040A000E1417641E14176416E400660F601E3412F
:1040B0005B0A7641E3417641E3417641E241520AAF
:1040C0007641E2417641E2417641E141490A764159
:1040D000E1417641E14176416E40F601E3415B0A00
:1040E0007641E3417641E3417641E241520A76412D
:1040F000E2417641E2417641E141490A7641E141BE
:104100007641E14176416E404660F601E3415B0A4B
:104110007641E3417641E3417641E241520A7641FC
:10412000E2417641E2417641E141490A7641E1418D
:104130007641E14176416E40866070BDD00E002030
:10414000FF8700003E48303008243E4D0909764183
:104150003601E1417641E14176411B097641E34177
:104160007641E3417641F60012097641E24176411B
:10417000E24176416E40E141490A76413601E14132
:104180007641E1417641E3415B0A7641E341764184
:10419000E3417641F600E241520A7641E24176413E
:1041A000E24176416E400660E141490A76413601BE
:1041B000E1417641E1417641E3415B0A7641E341E9
:1041C0007641E3417641F600E241520A7641E2410E
:1041D0007641E24176416E40E141490A764136013D
:1041E000E1417641E1417641E3415B0A7641E341B9
:1041F0007641E3417641F600E241520A7641E241DE
:104200007641E24176416E404660E141490A76419D
:104210003601E1417641E1417641E3415B0A764175
:10422000E3417641E3417641F600E241520A7641AC
:10423000E2417641E24176416E40866070BDC04603
:10424000D00E0020FF8700003B486C3008243B4D17
:10425000F6011B097641E3417641E34176411209BB
:104260007641E2417641E241764109097641E141F8
:104270007641E14176416E40F601E3415B0A7641C9
:10428000E3417641E3417641E241520A7641E2411F
:104290007641E2417641E141490A7641E141764188
:1042A000E14176416E400660F601E3415B0A7641EA
:1042B000E3417641E3417641E241520A7641E241EF
:1042C0007641E2417641E141490A7641E141764158
:1042D000E14176416E40F601E3415B0A7641E341FC
:1042E0007641E3417641E241520A7641E24176412C
:1042F000E2417641E141490A7641E1417641E141BD
:1043000076416E404660F601E3415B0A7641E34147
:104310007641E3417641E241520A7641E2417641FB
:10432000E2417641E141490A7641E1417641E1418C
:1043300076416E40866070BDD00E0020FF87000081
:104340003E48183008243E4D090976413601E141C6
:104350007641E1417641F6001B097641E341764121
:10436000E341764112097641E2417641E2417641EC
:104370006E40E141490A76413601E1417641E14131
:104380007641F600E3415B0A7641E3417641E34141
:104390007641E241520A7641E2417641E24176417C
:1043A0006E400660E141490A76413601E1417641BD
:1043B000E1417641F600E3415B0A7641E341764113
:1043C000E3417641E241520A7641E2417641E241DF
:1043D00076416E40E141490A76413601E14176413C
:1043E000E1417641F600E3415B0A7641E3417641E3
:1043F000E3417641E241520A7641E2417641E241AF
:1044000076416E404660E141490A76413601E1411C
:104410007641E1417641F600E3415B0A7641E341B2
:104420007641E3417641E241520A7641E2417641EA
:10443000E24176416E40866070BDC046D00E0020DD
:10444000FF8700003E48243008243E4D090976418C
:104450003601E1417641E14176411B097641E34174
:104460007641E3417641F60012097641E241764118
:10447000E24176416E40E141490A76413601E1412F
:104480007641E1417641E3415B0A7641E341764181
:10449000E3417641F600E241520A7641E24176413B
:1044A000E24176416E400660E141490A76413601BB
:1044B000E1417641E1417641E3415B0A7641E341E6
:1044C0007641E3417641F600E241520A7641E2410B
:1044D0007641E24176416E40E141490A764136013A
:1044E000E1417641E1417641E3415B0A7641E341B6
:1044F0007641E3417641F600E241520A7641E241DB
:104500007641E24176416E404660E141490A76419A
:104510003601E1417641E1417641E3415B0A764172
:10452000E3417641E3417641F600E241520A7641A9
:10453000E2417641E24176416E40866070BDC04600
:10454000D00E0020FF8700003E48543008243E4D26
:10455000090976413601E1417641E14176411B0985
:104560007641E3417641E341764112097641E241E9
:104570007641E2417641F6006E40E141490A7641DA
:104580003601E1417641E1417641E3415B0A764102
:10459000E3417641E3417641E241520A7641E2410C
:1045A0007641E2417641F6006E400660E141490AFB
:1045B00076413601E1417641E1417641E3415B0AD2
:1045C0007641E3417641E3417641E241520A764148
:1045D000E2417641E2417641F6006E40E141490A0E
:1045E00076413601E1417641E1417641E3415B0AA2
:1045F0007641E3417641E3417641E241520A764118
:10460000E2417641E2417641F6006E404660E1418A
:10461000490A76413601E1417641E1417641E34183
:104620005B0A7641E3417641E3417641E241520A39
:104630007641E2417641E2417641F6006E40866085
:1046400070BDC046D00E0020FF8700003E480C30F1
:1046500008243E4D090976413601E1417641E141A8
:104660007641F6001B097641E3417641E34176410C
:1046700012097641E2417641E24176416E40E141E4
:10468000490A76413601E1417641E1417641F60041
:10469000E3415B0A7641E3417641E3417641E24101
:1046A000520A7641E2417641E24176416E4006602F
:1046B000E141490A76413601E1417641E1417641E5
:1046C000F600E3415B0A7641E3417641E3417641FE
:1046D000E241520A7641E2417641E24176416E4042
:1046E000E141490A76413601E1417641E1417641B5
:1046F000F600E3415B0A7641E3417641E3417641CE
:10470000E241520A7641E2417641E24176416E4011
:104710004660E141490A76413601E1417641E14195
:104720007641F600E3415B0A7641E3417641E3419D
:104730007641E241520A7641E2417641E2417641D8
:104740006E40866070BDC046D00E0020FF8700001E
:104750003E483C3008243E4D090976413601E1418E
:104760007641E14176411B097641E3417641E341DF
:104770007641F60012097641E2417641E241764106
:104780006E40E141490A76413601E1417641E1411D
:104790007641E3415B0A7641E3417641E34176416C
:1047A000F600E241520A7641E2417641E241764129
:1047B0006E400660E141490A76413601E1417641A9
:1047C000E1417641E3415B0A7641E3417641E341D1
:1047D0007641F600E241520A7641E2417641E241F9
:1047E00076416E40E141490A76413601E141764128
:1047F000E1417641E3415B0A7641E3417641E341A1
:104800007641F600E241520A7641E2417641E241C8
:1048100076416E404660E141490A76413601E14108
:104820007641E1417641E3415B0A7641E3417641DD
:10483000E3417641F600E241520A7641E241764197
:10484000E24176416E40866070BDC046D00E0020C9
:10485000FF8700003E48483008243E4D0909764154
:104860003601E1417641E14176411B097641E34160
:104870007641E341764112097641E2417641E241D7
:104880007641F6006E40E141490A76413601E14148
:104890007641E1417641E3415B0A7641E34176416D
:1048A000E3417641E241520A7641E2417641E241FA
:1048B0007641F6006E400660E141490A76413601D4
:1048C000E1417641E1417641E3415B0A7641E341D2
:1048D0007641E3417641E241520A7641E241764136
:1048E000E2417641F6006E40E141490A76413601E7
:1048F000E1417641E1417641E3415B0A7641E341A2
:104900007641E3417641E241520A7641E241764105
:10491000E2417641F6006E404660E141490A764147
:104920003601E1417641E1417641E3415B0A76415E
:10493000E3417641E3417641E241520A7641E24168
:104940007641E2417641F6006E40866070BDC04619
:10495000D00E0020FF8700003B48783008243B4DF4
:10496000F6011B097641E3417641E34176411209A4
:104970007641E2417641E241764109097641E141E1
:104980007641E14176416E40F601E3415B0A7641B2
:10499000E3417641E3417641E241520A7641E24108
:1049A0007641E2417641E141490A7641E141764171
:1049B000E14176416E400660F601E3415B0A7641D3
:1049C000E3417641E3417641E241520A7641E241D8
:1049D0007641E2417641E141490A7641E141764141
:1049E000E14176416E40F601E3415B0A7641E341E5
:1049F0007641E3417641E241520A7641E241764115
:104A0000E2417641E141490A7641E1417641E141A5
:104A100076416E404660F601E3415B0A7641E34130
:104A20007641E3417641E241520A7641E2417641E4
:104A3000E2417641E141490A7641E1417641E14175
:104A400076416E40866070BDD00E0020FF8700006A
:104A50003E48603008243E4D090976413601E14167
:104A60007641E14176411B097641E3417641E341DC
:104A7000764112097641E2417641E2417641F60003
:104A80006E40E141490A76413601E1417641E1411A
:104A90007641E3415B0A7641E3417641E341764169
:104AA000E241520A7641E2417641E2417641F60026
:104AB0006E400660E141490A76413601E1417641A6
:104AC000E1417641E3415B0A7641E3417641E341CE
:104AD0007641E241520A7641E2417641E241764135
:104AE000F6006E40E141490A76413601E1417641E6
:104AF000E1417641E3415B0A7641E3417641E3419E
:104B00007641E241520A7641E2417641E241764104
:104B1000F6006E404660E141490A76413601E141C6
:104B20007641E1417641E3415B0A7641E3417641DA
:104B3000E3417641E241520A7641E2417641E24167
:104B40007641F6006E40866070BDC046D00E0020F3
:104B5000FF8700000148012101707047CC0E002042
:104B600003B40148019001BDE90A002097A0895BC8
:104B70005A0F830DC95F6035C2E907E18C24671EB7
:104B8000458E086325F0150A17BE0694F778EA4BA0
:104B9000001AC53E5EFCDBCB75230B2039B12158D2
:104BA000ED953857AE147D88ABA844AF4AA547862B
:104BB0008B301BA64D929EE7536FE57A3CD385E67A
:104BC000DC695C29372EF528F4668F3641193FA140
:104BD00001D85049D14C84BBD05912A9C8C487828E
:104BE00074BC9F56A4646DC6ADBA034034D9E2FAD2
:104BF0007C7B05CA2693767EFF5255D4CFCE3BE30D
:104C00002F103A11B6BD1C2ADFB7AAD577F8980243
:104C10002C9AA346DD99659BA72BAC09811627FD2D
:104C200013626C6E4F71E0E8B2B97068DAF661E455
:104C3000FB22F2C1EED2900CBFB3A2F1513391EB43
:104C4000F90EEF6B31C0D61FB5C76A9DB854CCB012
:104C50007379322D7F0496FE8AECCD5DDE72431DA2
:104C60001848F38D80C34E42D73D9CB4FF0000002E
:104C7000FF000000FF000000FF000000FF00000038
:104C8000FF000000FF550000FF550000FF55000029
:104C9000FF550000FF550000FF55000088FF000091
:104CA00088FF000088FF000088FF000088FF0000E8
:104CB00088FF000000FF000000FF000000FF000070
:104CC00000FF000000FF000000FF00000000FF00E8
:104CD0000000FF000000FF000000FF000000FF00D8
:104CE0000000FF00800080008000800080008000C5
:104CF00080008000800080008000800011338800E8
:104D0000113388001133880011338800802222007B
:104D100080222200802222008022220088AAAA006B
:104D200088AAAA0088AAAA0088AAAA00802222002B
:104D3000802222008022220080222200113388005B
:104D40001133880011338800113388001133880033
:104D5000113388008022220080222200802222003B
:104D60008022220088AAAA0088AAAA0088AAAA00EB
:104D700088AAAA008022220080222200802222000B
:104D80008022220011338800113388005500ABFFC8
:104D900084007CFFB5004BFFE5001BFFE81700FF18
:104DA000B84700FFAB7700FFABAB00FFAB5500FF90
:104DB000DD2200FFF2000EFFC2003EFF8F0071FFF8
:104DC0005F00A1FF2F00D0FF0007F9FFF8000000EF
:104DD000381002400100000000000040D00A00200E
:104DE0000400000004000000D80A002002000000B7
:104DF00002000000DC0A00200300000003000000A5
:104E0000E20A002003000000030000000000000090
:104E10000000000000000000000000000000000092
:104E20000000000000000000000000000000000082
:104E30000000000000000000000000000000000072
:104E40000048E801000000003810024002000000A5
:104E500000040040600F002000000000000000007F
:104E6000600F00200000000000000000600F002024
:104E70000000000000000000600F002000000000A3
:104E80000000000000000000000000000000000022
:104E90000000000000000000000000000000000012
:104EA0000000000000000000000000000000000002
:104EB00000000000000000000048E80100000000C1
:104EC000381002401000000000100040600F002069
:104ED0000000000000000000600F00200000000043
:104EE00000000000600F0020000000000000000033
:104EF000600F002000000000000000000000000023
:104F000000000000000000000000000000000000A1
:104F10000000000000000000000000000000000091
:104F20000000000000000000000000000000000081
:104F30000048E80100000000381002402000000096
:104F400000140040600F002000000000000000007E
:104F5000600F00200000000000000000600F002033
:104F60000000000000000000600F002000000000B2
:104F70000000000000000000000000000000000031
:104F80000000000000000000000000000000000021
:104F90000000000000000000000000000000000011
:104FA00000000000000000000048E80100000000D0
:104FB000341002402000000000000040600F00207C
:104FC0000000000000000000600F00200000000052
:104FD00000000000600F0020000000000000000042
:104FE000600F002000000000000000000000000032
:104FF00000000000000000000000000000000000B1
:1050000000000000000000000000000000000000A0
:105010000000000000000000000000000000000090
:105020000048E801000000003410024004000000C5
:1050300000080140600F0020000000000000000098
:10504000600F00200000000000000000600F002042
:105050000000000000000000600F002000000000C1
:105060000000000000000000000000000000000040
:105070000000000000000000000000000000000030
:105080000000000000000000000000000000000020
:1050900000000000000000000048E80100000000DF
:1050A0000002050508050F050102130202021005A2
:1050B0001A02030211051B0210B505200007014961
:1050C000014A03E0FF870000D00E002001231B02ED
:1050D0004B40838054688482240C136800BF00BF57
:1050E00000BF00BF83821B0C83828482936800BF51
:1050F00083820123DB014B400C32546800BF00BFA8
:1051000000BF00BF00BF00BF00BF00BF00BF818263
:1051100083808482240C136800BF00BF00BF00BFDF
:1051200083821B0C83828482936800BF8382012365
:105130009B014B400C32546800BF00BF00BF00BF52
:1051400000BF00BF00BF00BF00BF81828380848298
:10515000240C136800BF00BF00BF00BF83821B0C7C
:1051600083828482936800BF838201235B014B406A
:105170000C32546800BF00BF00BF00BF00BF00BFBB
:1051800000BF00BF00BF818283808482240C13682B
:1051900000BF00BF00BF00BF83821B0C83828482DC
:1051A000936800BF838201231B014B400C3254687B
:1051B00000BF00BF00BF00BF00BF00BF00BF00BFF7
:1051C00000BF818283808482240C136800BF00BFEB
:1051D00000BF00BF83821B0C83828482936800BF60
:1051E00083820123DB004B400C32546800BF00BFB8
:1051F00000BF00BF00BF00BF00BF00BF00BF818273
:1052000083808482240C136800BF00BF00BF00BFEE
:1052100083821B0C83828482936800BF8382012374
:105220009B004B400C32546800BF00BF00BF00BF62
:1052300000BF00BF00BF00BF00BF818283808482A7
:10524000240C136800BF00BF00BF00BF83821B0C8B
:1052500083828482936800BF838201235B004B407A
:105260000C32546800BF00BF00BF00BF00BF00BFCA
:1052700000BF00BF00BF818283808482240C13683A
:1052800000BF00BF00BF00BF83821B0C83828482EB
:10529000936800BF838201231B004B400C3254688B
:1052A00000BF00BF00BF00BF00BF00BF00BF00BF06
:1052B00000BF818283808482240C136800BF00BFFA
:1052C00000BF00BF83821B0C83828482936800BF6F
:1052D00083820123DB034B400C32546800BF00BFC4
:1052E00000BF00BF00BF00BF00BF00BF00BF818282
:1052F00083808482240C136800BF00BF00BF00BFFE
:1053000083821B0C83828482936800BF8382012383
:105310009B024B400C32546800BF00BF00BF00BF6F
:1053200000BF00BF00BF00BF00BF818283808482B6
:10533000240C136800BF00BF00BF00BF83821B0C9A
:1053400083828482936800BF838201235B024B4087
:105350000C32546800BF00BF00BF00BF00BF00BFD9
:1053600000BF00BF00BF818283808482240C136849
:1053700000BF00BF00BF00BF83821B0C83828482FA
:10538000936800BF838200BF00BF00BF00BF00BFA3
:1053900000BF00BF00BF00BF00BF00BF00BF00BF15
:0C53A00000BF00BF8182818010BDD4D40A
:00000001FF
