:020000040800F2
:1000000000080020F10D0008F5000008D90D0008D7
:10001000F5000008F5000008F500000800000000E9
:10002000000000000000000000000000F5000008D3
:10003000F500000800000000F5000008F5000008C9
:10004000F5000008F5000008F5000008F5000008BC
:10005000F5000008B5070008D1070008ED07000803
:1000600000000000F5000008F5000008F500000899
:10007000F5000008F5000008F500000885080008F4
:100080009D080008B5080008CD0800080000000021
:10009000E5080008F50000081D090008F500000843
:1000A000F5000008F5000008F5000008F50000085C
:1000B000F5000008F50000080B4611461A4680B509
:1000C00000F0A8F880BDC0460A46002180B500F0C7
:1000D000A1F880BD80B500F0BCF880BD884206D391
:1000E00003B500F034F80EBC4243891A18470100EA
:1000F0000020704720BFFDE7B0B551434343591876
:10010000030C140C1D466543491992B2534380B247
:100110004243150CEB181D0C49199BB2604318188B
:10012000030CC918000492B28018B0BDB0B5C41752
:1001300022464240C00F1018CD172A464A40C90F28
:10014000511800F004F865406840401BB0BDF8B598
:100150000C46054620260029374603D0204600F0ED
:100160002BF80746002D03D0284600F025F8064658
:10017000B81B1F2801D90020F8BD01D12846F8BDC1
:10018000F94389191F22131A2A469A40401CC54078
:10019000002000290DD0D30F6D00ED18EB43E318BC
:1001A00000D52D1B52001043DB0F491C0246184698
:1001B000EFE751000843F8BD70B5010C4A424A41CF
:1001C000110110224A40D040FF2212020240534245
:1001D0005341DA0008235340D840F02303405C42E7
:1001E0005C41A30004245C40E0400C2404406542D0
:1001F00065416C00022526466E40F0402D1A4008ED
:100200000126F6430643701C28405118C9180919E5
:10021000081870BD00239A4202D0C1545B1CFAE753
:10022000704710B5034690060BD4002A0DD09140BC
:100230002020801A1C46C4400C4318469040234698
:1002400005E0203A9340002001E018460B4619468D
:1002500010BD10B581420AD28B18984207D2491EB0
:10026000431E002A0CD08C5C9C54521EF9E70346B6
:10027000002A05D00C781C705B1C491C521EF7E745
:1002800010BDD4D4F0B581B0064645688468E11746
:10029000EB1720462A46FFF72FFFCA04400B8018B1
:1002A000490B32681204D213FFF726FF06460027D7
:1002B000284639462A463B46FFF71EFF054620469C
:1002C000394622463B46FFF717FF4019811B880F2E
:1002D00000D0394801229303C3180324A4031C400F
:1002E00064438C4200D818465303C31807246403A0
:1002F0001C4064438C4200D818461303C3180F24D3
:1003000024031C4064438C4200D81846D3020343A4
:100310009CB264438C4200D81846930203439CB2BB
:1003200064438C4200D81846530203439CB2644392
:100330008C4200D81846130203439CB264438C429B
:1003400000D81846802303439CB264438C4200D8F3
:100350001846402303439CB264438C4200D818469D
:10036000202303439CB264438C4200D818461023D8
:1003700003439CB264438C4200D8184608230343CD
:100380009CB264438C4200D81846042303439CB2B9
:1003900064438C4200D81846022303439CB2644352
:1003A0008C4200D81846024393B25B438B4200D87C
:1003B000104601B0F0BDC0460080FFFF70B50CC80C
:1003C000006811144143490B8CB212B24243500BE6
:1003D0001A1A90B2844205D111B2002938DD0120E9
:1003E000400370BD14B2E01313464340C01A00B27C
:1003F0000DB2EB130E465E409B1B1BB2834213DA19
:1004000008044FD0100440102946FFF78FFE01B2B8
:10041000CA135040131A2448584344040120C20709
:10042000944219D0224C18E010043BD0080440102C
:100430002146FFF77BFE01B2CA135040131A1A4837
:10044000584345040122D007854217D0184D16E0C5
:10045000002826D01A4870BD144C1BB2154E5E43BE
:10046000A3191B0C59434B04934201D08003091874
:10047000C80B002D15DC1149484070BD0B4D1BB257
:100480000C4E5E43AB191B0C594392034B04834241
:1004900000D08918C80B012C01DB101A70BD064969
:1004A000081A70BDFEDEC0461F0B000000001F2BA7
:1004B00000801F2B3E16000000C0FFFF0080FFFFE2
:1004C00000A0FFFFF0B5C64600B587B003920291C9
:1004D00000900B04DD131404E4130020444901913F
:1004E000AC46A046069004900590019C069A059B98
:1004F000049F60CC614641434913C91B49194746D3
:100500005F437F13BF1A7F1962464A435213121A80
:100510009219404678434013C01A801960CC634654
:1005200053435B135B1A5B19414641434913C91B93
:10053000491967465F437F13BF1ABF1942464A43B2
:100540005213121A921960CC604678434013C01AB5
:100550004019434653435B135B1A5B1961464143A1
:100560004913C91B891947465F437F13BF1ABF1937
:1005700060CC62464A435213121A521940467843DD
:100580004013C01A4019634653435B135B1A9B190F
:10059000414641434913C91B891960CC67465F43F3
:1005A0007F13BF1A7F1942464A435213121A521937
:1005B000604678434013C01A8019434653435B1387
:1005C0005B1A9B1960CC691C94D70497059306921B
:1005D0000299009A11605060049991600399D1606A
:1005E000059911610699516107B001BC8046F0BDC3
:1005F00054190020F0B583B0029105468C20154FA8
:1006000038582946FFF792FD002822D40446902648
:10061000B859019038469030E021FFF755FD9A20F7
:10062000029939540198B85198203D54302C00D388
:10063000302499203C540020C04301462246FFF755
:10064000F0FDC043A022B850C843A037786003B083
:10065000F0BDFEDE801C0020F0B585B0002900D181
:100660008CE003230B404C4E0429029101D2002759
:100670004CE001934C4B0B400393002700904168E2
:1006800035464D43464B59434C0C2C4343494C4350
:10069000016835464D4359434B0C2B433F494B436F
:1006A00053401322D34105214B433E4D5B19634018
:1006B000D3414B433B4C1B19049384683546654337
:1006C000374B5C43640C2C43344D6C43049B5C40BF
:1006D000D4414C43334BE3180493C4683546654317
:1006E0002F4B5C43640C2C432C4D6C43049B5C40AF
:1006F000D4414C432B49621810303F1D0399B94235
:10070000BDD1019B002B0299009837D0BD00044653
:100710000395405935464543214E70431F46430CCF
:100720002B431E484343534013200490C3410520EC
:1007300043431C4A9A18012F20D003996418394664
:100740006368154F3D465D4373435B0C2B43134D6C
:100750006B435340049AD3414343124A9A180229E7
:100760000BD0A3685F435E43730C3B435D4355402E
:100770000499CD4168430B494218029988005040C2
:10078000010C414009484843410B4140084A4A4353
:10079000100C504005B0F0BD0080A8169335871BA3
:1007A000512D9ECC646B54E6FC7F00006BCAEB8538
:1007B00035AEB2C205480168C90701D00121016008
:1007C0000168890701D502210160704714040140C6
:1007D00005480168490701D504210160016809073E
:1007E00001D50821016070471404014022480168C6
:1007F000C90601D5102101600168890601D52021B3
:1008000001600168490601D54021016001680906BF
:1008100008D58021016019490968002902D01849CA
:1008200001220A7001210268D20501D50A02026084
:100830000268920501D54A0202600268520501D59C
:100840008A0202600268120501D5CA0202600268CB
:10085000D20401D50A0302600268920401D54A035A
:1008600002600268520401D58A0302600268120421
:1008700001D5C9030160704714040140040B002036
:10088000D41E002004480168C90703D00168012272
:10089000914301607047C046100000400448016861
:1008A000C90703D001680122914301607047C04627
:1008B0001004004004480168C90703D00168012200
:1008C000914301607047C046101000400448016821
:1008D000C90703D001680122914301607047C046F7
:1008E000101400400A480168C9070FD001680122AE
:1008F0009143016007480068002807D00648416816
:1009000002680023521C02604B4143607047C0469E
:1009100010080140100B0020080B0020044801685B
:10092000C90703D001680122914301607047C046A6
:1009300010000040F0B5DE4657464E464546E0B54D
:1009400094B00792069070480068000600D0DAE084
:1009500068460BA9002400940C736C4B1A6819604C
:1009600011940B900D9200207A464A60002800985E
:1009700034D10698059001200A90000264490A6863
:1009800002430A60634B1868C00708D01868C007A4
:1009900005D01868C00702D01868C007F3D1184600
:1009A0000C38EFF3108172B65B4A02605B4A02605A
:1009B000184608385A4A02605A4A026081F3108881
:1009C0000020089012901198139012A811900BA972
:1009D00000207A464A60002827D008980290119893
:1009E000002812D04B491439019102E011980028D7
:1009F0000BD0406811900BA900207A464A6000286D
:100A0000F4D1012001990860F0E70D983F49086092
:100A10000BA8007B0028029800D074E014B01EBC24
:100A2000884691469A46A346F0BD3A49143941207A
:100A3000C000099108600799069A8818904230D939
:100A4000084639497F317F229143059AD20189189E
:100A5000039104900BA900207A464A600028BCD17B
:100A60000BA900207A464A600028B6D10BA90020C5
:100A70007A464A600028B0D10398002843D000602D
:100A80000BA900207A464A600028A6D10520000262
:100A900020490968014217D1039980310498401E0A
:100AA000D6D1119800281CD0406811900BA90020C5
:100AB0007A464A60002800D08FE70A9809990860B2
:100AC000EFE70A98099908601198002812D0406849
:100AD00011900BA900207A464A600028F1D01348F3
:100AE0007CE70D98094908600BA8007B00280AD113
:100AF000002093E70D98054908600BA8007B0028AB
:100B000001D10A488AE7FEDE04ED00E0000B002078
:100B10003010024018200240EFCDAB8905040302DB
:100B2000BFAE9D8C1615141368690008586600083E
:100B3000F0B5DE4657464E464546E0B591B00192C7
:100B4000079106907A480068000600D0EFE06846FA
:100B500008A900240C73774B1A68196003940E944B
:100B600008900A9200207A464A60002800D0CDE022
:100B700008A900207A464A60002800D0C6E06E48E6
:100B80007F307F218843019BC218079810186B495A
:100B9000884210D90E98002800D1BAE040680E9023
:100BA00008A900207A464A60002800D0AEE0012063
:100BB00063490860EEE7980710D00E98002800D12E
:100BC000A7E040680E9008A900207A464A600028F5
:100BD00000D09BE001205A490860EEE7049208A982
:100BE00000207A464A60002800D08FE0012005905E
:100BF000000254490A6802430A60514A5069C0071A
:100C000008D05069C00705D05069C00702D05069AC
:100C1000C007F3D1EFF3108072B64B4991604B4996
:100C200091604B49D1604B49D16080F310880399A2
:100C30000F910E9810900FA80E900846079A069BE9
:100C40000446185C611C914203D2191949780902C3
:100C50000818A11C914203D21919897809040818AF
:100C6000E11C9142029403D21919C97809060818A7
:100C7000009008A900207A464A60002846D108A9B9
:100C800000207A464A60002840D104980299401812
:100C90004DD00099016008A900207A464A600028DA
:100CA00034D1274840692C49084209D10298001DD7
:100CB000079A9042069BC3D311E00598204908602B
:100CC0000E98002825D040680E9008A900207A468A
:100CD0004A600028F1D019E00598194908600E987B
:100CE000002816D040680E9008A900207A464A6075
:100CF0000028F1D00AE040680E9008A900207A464A
:100D00004A60002802D101200D4908600E98002891
:100D1000F1D10A980749086008A8007B002806D18D
:100D200011B00FBC8046894692469B46F0BDFEDE60
:100D300004ED00E0000B0020686900080080000856
:100D40000420024030100240EFCDAB8905040302BD
:100D5000BFAE9D8C161514130005010004484168B0
:100D600002680023521C02604B4143607047C0463A
:100D7000080B00201348144981420CD0002204C102
:100D8000814208D004C1814205D004C1814202D011
:100D900004C18142F3D10D480D49814211D00D4A61
:100DA000136808C181420CD0536808C1814208D041
:100DB000936808C1814204D0D36808C110328142CF
:100DC000EED17047941F0020000B0020FC0A002089
:100DD000000800206C660008044801680A0600D577
:100DE000C268090400D5006930BFFDE728ED00E0C6
:100DF000FFF7C0FF00F000F800F002F803F0BEFFBC
:100E000070B50322D00250490B6883430120C4020D
:100E10001B190B601F210B024C494C689C430303B8
:100E2000E3184B600B6803430824A3430B600B6873
:100E30005B0708D40B685B0705D40B685B0702D41B
:100E40000B685B07F3D504060B68A3430B604306EE
:100E50000D681D4208D00D681D4205D00D681D4269
:100E600002D00D681D42F3D1FD252D04CE68AE439E
:100E70001125AD047519CD600D6825430D600C6812
:100E80001C4208D10C681C4205D10C681C4202D1DE
:100E90000C681C42F3D02E4B1C68E4070ED11C6872
:100EA00004431C601C68E40708D11C68E40705D1F2
:100EB0001C68E40702D11C68E407F3D0CB68F02477
:100EC000A343CB60CB681343CB60CA68D24392077D
:100ED0000BD0CA68D243920707D0CA68D2439207A0
:100EE00003D0CA68D2439207EFD18202CB68134382
:100EF000CB604203CB681343CB604A6B04231A4395
:100F00004A6314498B62144ACA624A6902434A61BD
:100F10000A68812313430B60CA6A0A6982430A6123
:100F20000E4A0F4B13600F4A1368C1241C433E2323
:100F30009C43146002050C4B1A600C4B1A60CA6883
:100F40000243CA6070BDC0460070004000100240FD
:100F50000020024000080140FFF90000100B0020B3
:100F60005D0D000814E400E080E200E000E100E034
:100F7000F0B589B00E2800D943E14000784480885C
:100F8000400087440E006800620059002B004300B7
:100F9000FA001A012F01250121003E0155003400FD
:100FA0001900EC480468012900D941E1A34200D0AE
:100FB000B8E2E9480078BAE25800824200DB42E237
:100FC0003F20000209B0F0BDE4480469002C00D0C5
:100FD0000DE10F3A032A00D335E237E20C2900DD98
:100FE00031E201D900F027FC8800DD4926E2002922
:100FF00000D115E2D94D2C69DA480078C0B22043FF
:1010000000D16BE2002C00D0F1E088E2092900DD7C
:1010100019E201200024232A034600D9F9E02346DF
:10102000092900D8F8E0184300D1F9E000F003FCEA
:10103000D800C0B209B0F0BD112A00DDFEE01220D8
:10104000801A520022239B1AFCE0112A00DD1DE1C8
:101050001220801A1CE1042900DDF4E100D9EAE342
:1010600042204843C0490C5CA3401C0CE4B2BF4D75
:1010700002942C5D0818049040788240100C019076
:101080002018C0B20090281840782F5C90B2400819
:10109000B7490690441898B24008042107910F42BE
:1010A000059400D1A4E10446054600D0A3E1FE0763
:1010B00000D06D422EB2012108910D407608AD1985
:1010C000BE0700D5644224B2640829190391A74DD4
:1010D00000996C5C2D5D07990D42069C00D18FE153
:1010E0000446064600D08EE1EF0700D0764277082E
:1010F00008990E40F619AD0700D564426408361908
:101100009A4D02996C18647801996418E1B20191C2
:101110006C5C2D5D9649441807980542069800D1ED
:1011200076E12046029400D075E1E90700D06442E0
:1011300031B226B2089F3C407608A419AD0700D50D
:10114000404200B24008201805B218B2C013434014
:101150009BB25C1C5C43230C5B00434098B2441C74
:101160008248019BC01840788D4200DC30E26B1A47
:101170009BB263431B0CCB182FE2232A00D95AE3FE
:101180007C49885C202800D25DE10346203B8B54DB
:101190009100794A51580A0AD2B24243FF239A4336
:1011A000CCB24443240A1219090CC9B241430802C3
:1011B00019040140501809B0F0BD5000122A00DA9D
:1011C000ECE06E4A82180C2900DCECE00020EFE035
:1011D00062480469002C0AD101208243102A00D001
:1011E00031E133E15D480469002C00D129E125217A
:1011F0005943002310461A46A04700BA000A09B016
:10120000F0BD002A00D01EE1D9008020084009B0BE
:10121000F0BD092900D906E72046184300D00AE3AB
:1012200090204843564908189100405809B0F0BD35
:10123000A34200D0A3E148480078A5E15300123A48
:10124000233B10464F4A1278D21A00D52432232A63
:1012500000D9F0E24C4B9A5CC006040E101B002330
:10126000A24200D21846042900D9FEE0FF228900DC
:1012700001A464581946A746711400084D130008CC
:101280005D14000863140008551400081046123855
:101290001B1A9B02122A01DD3C4A9B181C0BE2B26E
:1012A000324DAF5C07223E4616403F07089001D5FD
:1012B000F74300E0771C0326B5021D402E466E431F
:1012C000700A0126F603301A4043C00B4043C00B9E
:1012D000684378430713601CC0B2244C205C024072
:1012E000000701D5D24300E0521C294803431846A9
:1012F0005843400A301A4043C00B4043C00B584388
:1013000050430013C019234A424323481018000ECB
:10131000802242400B20089B5843C4B2101B00237C
:10132000A24200D21846042900D99EE0FF2289007B
:1013300001A464581946A746711400084D1300080B
:101340005D140008631400085514000800212823C8
:10135000DC228DE0740B0020710B0020380B002084
:10136000545F0008340C0020085E0008F45C00089C
:101370000080FFFF080C0020780B0020DDFFFF033A
:10138000885F00084C0B00204D0B002000D0480067
:1013900000F0FFFF466800006A84FB032222121A55
:1013A0000C2900DD12E700D945E28800FC49085805
:1013B000FC490968FC4B1B684B43D917C90E5918E7
:1013C00049119201891AFF2939DC00293BD4020A0C
:1013D000D3B24B43FF2425022B40C0B24843060A38
:1013E0001E432A404A4320041040304309B0F0BD58
:1013F000054600D15BE6059DFE0700D059E659E69B
:10140000064600D170E6069EEF0700D06EE66EE657
:10141000029400D189E6069CE90700D087E687E6BA
:10142000D817000F18180011810F4118032291439B
:10143000401A032800D34DE18000E249085809B062
:10144000F0BD112A02D0002009B0F0BDFF20000439
:1014500009B0F0BD0022FF21134609E00022FF235E
:1014600005E000227F23194602E000237F22114677
:1014700044B2002C0BD44006040ED8B26043F54BA6
:101480005843C00DD2B262435A43D20D15E0C4B2E4
:101490006409062C1ED87F242040ED4C4443250CC3
:1014A000FF24AC43D8B26043EA4B5843C00D401907
:1014B000D2B262435A43D20D5219C9B26143594361
:1014C000C90DD2B2C0B200028018C9B209044018D6
:1014D00009B0F0BDC100FF200246F2E70027F84343
:1014E00000F0C2F92F606F60AF60EF602F61D34DE5
:1014F00040CDB0B2D24988423C4600D80446284686
:10150000214602F0F9FACF490D600121CA4A117053
:1015100080B2310C884200D03C46CB480460FF20AA
:1015200009B0F0BD0360CE4C2078401C2070C4B2DE
:10153000482C02D3CA4C002020705200121A1046C8
:101540004730C4B2472C00D9501EC2B2472A00D936
:1015500048380446243CC5B2242D024600D3224616
:10156000002900D1B9E0232D00D9C9E0072141436A
:10157000C9B203234343D8B2C008000240E103606C
:10158000B7490878401C0870C1B2182902D3B44981
:10159000002008705100091A08461730C2B2172AF5
:1015A00000D9481EC1B2172900D91838C1B217296D
:1015B00000D91838C1B2172902D1AA4809B0F0BD24
:1015C0000A214143C9B205224243D0B200047EE75A
:1015D0004B1B9BB263431B0CCB1A0499891C0691CD
:1015E0009D490D5C07980542059E029900D00E4664
:1015F00000D0059907932346E80700D04942039895
:1016000000B20CB2089F0F4061087918AD0700D5F1
:1016100076421C4635B26D0849190DB211B2C91394
:101620004A4092B2561C5643320C52004A40854200
:10163000079B05DD291A89B26143090C401804E0B3
:10164000411B89B26143090C401A91B2491C1AB27C
:1016500004B2944205DDC01A80B24843000C181849
:1016600004E0181A80B24843000C181A7921890046
:1016700000B2484379494118C80AC2B2FF20134654
:101680000446434049020D0FAF000698C619717811
:1016900059430F2D054600D0351D08966E785643E8
:1016A0007118FF3126023140C75D5F4328785043EF
:1016B000C019FF30000AC0B2401808998978594310
:1016C000AB78534359180902891922040A4080183B
:1016D00009B0F0BD5D4809B0F0BD5808C1B2D801ED
:1016E00004B2C806030E56205843000A232D0DD815
:1016F000002C16D43F2931D81F292AD8C3434CE0E7
:1017000007206043C0B20004E1B279E0002C18D495
:1017100020240C403F2927D8002C08D0C143089131
:1017200048E020240C40490626D4002C46D1AB20AA
:101730005843010A5420C043401A553108910023F0
:1017400049E07F24E4434C40E4B23F2C1CD81F2CDA
:10175000D4D9553000210891AB233CE0890615D53A
:10176000C4430023089035E0002C1FD15421C94305
:10177000091A089155301DE0002C25D15421C94388
:10178000091A0891553023E089064FD4AB215943FB
:10179000090A5423DB435B1A5638002108911AE0EA
:1017A000545F0008001F0020040800205521091A7A
:1017B000089156380021034608460CE0C1430891C1
:1017C00006E0C046606600085521091A089156389F
:1017D000002403462046D4B207252E466643C0B2F5
:1017E0007043FF2739020140D8B27043000AC0B2EB
:1017F00008180899C9B261432B024B4339041940B8
:101800004018D1B2232900D019E6C1B2AB2251430E
:10181000490A030ADBB253435B0A1B025918000C46
:101820005043400A0004081809B0F0BDC14300232A
:1018300008900846CFE7FEDE340C0020380C00206C
:10184000FC0500002C0C0020300C0020FFFFFF00E6
:10185000B0AA020081800000F45C0008F0D27F0092
:10186000710B002020001000F0B5FDB0054602F01D
:101870007FF9B84C206801221043206005200790B2
:101880000307186830210C9188431860D86820211C
:101890000891084310211D918843D86020681043A7
:1018A000206018680321219188431860D8680221BC
:1018B000099108439043D86020681043206018685D
:1018C000402108438026B04318609868139630433F
:1018D0003F918843986008201190986110021E92F1
:1018E00056020F95012D179329DB226801210A4327
:1018F00022601A68984B1A400243179C2260954C4C
:10190000179A92681A40179B32439A6010229A6184
:101910000F9A012A13D022680A4322601A688F4B5B
:101920001A408C021219179C22608A4C179A9268EE
:101930001A40179BC902511899602021996148905B
:1019400022462C3A11681E9D2943069211602346B7
:10195000283B1968824A1140219A920389180593FD
:1019600019602168099F394321607E4A1168304619
:1019700004263143119B99431160916819430196E4
:10198000B1439160976107211F91CB022246203A13
:1019900011680393994304921160A1681290014366
:1019A000A16071490D608D600A68D20708D10A688C
:1019B000D20705D10A68D20702D10A68D207F3D04C
:1019C00048988862A268089D2A43A260674ED12287
:1019D00072601E9BB3603246243A13603246203A4E
:1019E000156062681A4362600A464032604C626069
:1019F000604AA26090302060241F5F4A1046A530E4
:101A00002060206818430A942060CA600A69312067
:101A100002430A61079A8A6061218900574D0027B5
:101A200014916F50192136914901DA074492521EE0
:101A3000534B5A50C1214A0052490292A95212995D
:101A40007E3190223492A9508C223392A9504E4973
:101A5000091D88223592A950C82613996E50C000DE
:101A60004A492A9029504A4B4A4A4B494B484C4CC8
:101A70002C662C4664340FC44A4868674A48A867F5
:101A80004A48E8674A494B4B4B4A4C484C4C2C64FB
:101A90002C4644340DC44B48286569654A48A865FE
:101AA0004A48E8654A494B4B4B4A4C484C4C2C62DF
:101AB0002C4624340DC44B48286369634A48A86304
:101AC0004A48E8634A494B4B4B4A4C484C4C2C60C3
:101AD0002C1D0DC42C46264D4A48206161614A48A0
:101AE000A0614A48E061B92040002F902754172098
:101AF00000012C9048972754BB20400044492E9069
:101B0000215263208000479020181C901399FEF703
:101B1000DBFA28683F4800783F4F164A00287DD0FE
:101B20003699090151182B68DC19F3439C4200D9FE
:101B300085E02C68E4199C4200D980E02C68E41907
:101B40009C427CD82B68DB19C724E443A342E7D32B
:101B500075E0C0462C100240FFFCFFFFFFF3FFFFC3
:101B6000FF1FFFFF00040050002401402414014027
:101B70000C0002403416002003050000801C0020E9
:101B800054190020FC050000380C00205867F9F1BA
:101B90009F0DF41C870E831C6A0F0A1C4A108B1BB6
:101BA0002511041BB50C5E1DC70BC01DD60A1B1EDC
:101BB0009C13481929150018E7155317A016A016ED
:101BC0005317E7156514A818CF12E319FC11771AFB
:101BD00048199C13771AFC11041B25118B1B4A1002
:101BE0000A1C6A0FE319CF12A818651400182915EA
:101BF0005E1DB50C1B1ED60A6F1EE309BA1EED084A
:101C0000FE1EF507C01DC70BF41C9F0D831C870E1D
:101C1000FFFF0000140B00206FFEFFFF2968C93989
:101C2000C7290BD82968C939C72907D82968C939EC
:101C3000C72903D82968C939C829EFD311461E9A84
:101C400050409E4A10709E48026814249D4B289470
:101C50004898A0C92E0CADB240198019AD1AB61A19
:101C600060C3BEB23F0C8019C019B61ABF1AC0C3F8
:101C7000A0C92E0CADB240198019AD1AB61A60C3B6
:101C8000BEB23F0C8019C019B61ABF1AC0C320C912
:101C90002E0CADB240198019AD1AB61A60C3641E7D
:101CA000D7D1C8213191FEF752FA489A8449086089
:101CB0001E998803389088074390D043229010469D
:101CC0000E9201210B9148400D9036E031460122E1
:101CD00050407A4A10707A4800687A4A289BA0C916
:101CE0002E0CADB26419A4192D1A361A60C2BEB2F8
:101CF0003F0CA419E419361A3F1AC0C2A0C92E0C11
:101D0000ADB26419A4192D1A361A60C2BEB23F0CC6
:101D1000A419E419361A3F1AC0C220C92E0CADB25C
:101D20006419A4192D1A361A60C25B1ED7D1C821B6
:101D30002046FEF70CFA62490860F24E2E98305A9F
:101D4000F149884202D0401C2E9970522C98305C88
:101D5000012800D175E1002800D006E2732085003B
:101D60007059479970501D2000014690305836999F
:101D7000090170507520800030586521890070502D
:101D80003B20C00030583321C900705077208000BC
:101D900030586721890070500F204590400130581D
:101DA0000D21490170507920800030586921890047
:101DB00070503D20C00030583521C90070507B2044
:101DC000800030586B21890070501F20000130586E
:101DD0001B21090170507D20800030586D21890041
:101DE00070503F20C00030583721C90070507F200C
:101DF000800030586F2189007050012048904002C7
:101E000030581F998901705081208000305871210D
:101E1000890070504120C00030583921C9007050ED
:101E200006CE5BA8083EFEF74DFB5D9869905C9876
:101E300068905B98679060987C905F987B905E98C4
:101E40007A9067AC2046FEF71DFA419570537AAD43
:101E50002846FEF717FAE7214900705237464698A0
:101E600036182046FEF7AAFA42902846FEF7A6FA50
:101E70004090002438198168C26855A8FEF722FBFB
:101E80005798699056986890559867905A987C90A2
:101E900059987B9058987A9067A8FEF7F3F93080AC
:101EA0007AA8FEF7EFF97080361D0834782CE1D15E
:101EB00000211D9A1C9B954F489808E0140B0020A8
:101EC000D01E0020541900201033121F37D00909EA
:101ED000402446941E5B1C4640346588AE4201D2C5
:101EE000050329435D881E88AE4201D205074919C2
:101EF000E588A688AE4201D245032943DD889E8845
:101F0000AE4201D24507294365892689AE4201D2F6
:101F1000389801435D891E89AE4201D2439801433E
:101F20004898E589A489AC4201D2C4032143DC89E5
:101F30009D89A542C8D2449801434898C4E7714E90
:101F40002F98325C002A00D101E2714801407148AB
:101F500041404A0870480240891A8A086F48014087
:101F6000024089180A0989186D4801406D484143AB
:101F7000090E042900D90EE2C92149007118062270
:101F80000023459347983418951FADB2664EEE4036
:101F9000489806409D196E00A75B5A48419D451917
:101FA000A85BA053AF53469FC85B0E88CE530880F2
:101FB0000E464036B0888F88B7808880F088CF88FA
:101FC000F780C880901E80B2574FC740489B1F4083
:101FD0004598C01940001030275A42972F5A27526F
:101FE000429F2F52501E80B24F4FC7401F4045980E
:101FF000C01940001430275A42972F5A2752429F47
:102000002F5290B2484FC7401F40459BD8194000FF
:102010001830275A42972F5A2752429C2C52308B05
:102020000C8B3483374E0883203110330832162A44
:10203000A7D100212F9831542C98489A3254334F0D
:10204000BCE267A84021FEF73FF8002637464896D5
:1020500004E04893361D0837802F3ED0294DE959BA
:10206000E819426861A8FEF72DFA63987C9062989F
:102070007B9061987A90669879906598789064984A
:1020800077907AA8FEF7FEF8044677A8FEF7FAF8EC
:1020900067A98C5389194880A919479A8A5A7323CA
:1020A0009B004593CB5A9A1892B25208489DAD08AE
:1020B000A3B2934201D9439A15432B46479A8A18F3
:1020C0005288459D49194988891889B2490880B2C2
:1020D0008842BED944980343BBE70A4E2F98345C2C
:1020E000032C00D9CAE1A00002A108580F49419170
:1020F0000F498746352100089B23000881240008EA
:1021000079240008801C0020FFFF000024140140F7
:10211000FEFFFEFF4839B6C65555555533333333A8
:102120000F0F0F0F01010101B7C6000045D6397C22
:10213000BCB12370D44A489B53405808D349084047
:10214000181A8108D24B184019404018010940184C
:10215000D0490840D0494843000E0828114600D80D
:102160001BE12298411ECD4F28E2489006CE4FA891
:10217000083EFEF7A7F951986990509868904F98DB
:10218000679054987C9053987B9052987A90479897
:10219000305A73218900715A0818C7214900715AB1
:1021A0004018E7214900715A401880B2840867A896
:1021B0004690FEF767F880B20026A042439F00D801
:1021C00037467AAD2846FEF75DF880B2A04201D9C5
:1021D00044980743469A36980001B1490C181046B6
:1021E000FEF7ECF845902846FEF7E8F8429003E049
:1021F000241D0836782E30D0A94880198168C2681D
:1022000049A8FEF75FF94B9869904A9868904998F9
:1022100067904E987C904D987B904C987A90BF0830
:102220003F98205A21884018618840182146403143
:102230004988401880B2850867A8FEF723F880B265
:10224000A84201D9439807437AA8FEF71BF880B249
:10225000A842CDD944980743CAE7914D2F98295CED
:10226000FF2320937433E85C489A921E259214064B
:10227000219E00D00646F2B2489291423D933E9490
:10228000409609D22A9EAA59530353405C0C5C40E5
:1022900063016340AB5157400F2901D901F011FC94
:1022A0004A1C7F4E2F9BF2548900711883239B0098
:1022B0004693CF50D1B2489C621C8A420ED1459AB7
:1022C000429B9A1ABD235B00F45A5F25AD007453FC
:1022D0002F24E400355B3253489CF552A21C8A42FD
:1022E0006E4F58D1BF2149001891745A14997258F1
:1022F0002599C9B24591002902D011466140459106
:102300003C92C1B2102901D901F0DBFB4698351887
:102310002846459AFEF7A0F948998B004195EA585E
:1023200003214291084390421E98254600D11FE2A6
:102330003B933A9540998A1C144642980440CBB28C
:10234000022B00D3BDE1002215463B99D2E1489B08
:1023500099435448401E48404108534A1140401A8E
:102360008108524A104011404018010940180146A6
:10237000459A114012020240100A081802280AD891
:1023800042984099081A2F9973541399715880B242
:102390004843010C12E1002110E140940022144650
:1023A00046910DE08018C189F389C91889B249089E
:1023B000C18108341032402A394E459D469956D085
:1023C0004798301873194893E140CE07074600D06C
:1023D000489FBB5A67AEB55A5B199BB25B08BB52AC
:1023E0008B07074600D5489FBB185D88B6187788CD
:1023F000ED19ADB26D085D804B07074600D5489FCB
:10240000BB189D88B788ED19ADB26D089D800B078C
:10241000074600D5489FBB18DD88F788ED19ADB297
:102420006D08DD80CB06074600D5489FBB181D8987
:102430003789ED19ADB26D081D818B06074600D5B1
:10244000489FBB185D897789ED19ADB26D085D8134
:102450004B06074600D5489FBB189D89B789ED19E3
:10246000ADB26D089D8109069CD548989AE74098C1
:10247000401C2F9970549FE00D4800E000204190CF
:1024800040940023194625E0434EDC8F55555555A1
:10249000333333330F0F0F0F0101010124140140B7
:1024A000801C0020B7C600005555000033330000E3
:1024B000BA29C683489AD218D4896743C989484340
:1024C0003818000AD081429908311033402BE84E69
:1024D000459D63D04798341870194690419A4291AF
:1024E000CA40D0074894254600D0469DEC5AAB27F9
:1024F0007C4367A9CE5A55204643A419240AEC52BE
:102500009407489D00D5469DEC1865887D43C91801
:102510004E884643AD192D0A65805407489D00D565
:10252000469DEC18A5887D438E884643AD192D0A3B
:10253000A5801407489D00D5469DEC18E5887D438D
:10254000CE884643AD192D0AE580D406489D00D5B6
:10255000469DEC1825897D430E894643AD192D0A09
:1025600025819406489D00D5469DEC1865897D43DC
:102570004E894643AD192D0A65815406489D00D504
:10258000469DEC18A5897D438E894643AD192D0AD9
:10259000A58112068ED5469A48928BE74098401C3A
:1025A0002F9AB054C0B2042806D10021B1540220A1
:1025B0002C9AB054AF4F01E00021AE4F7868BD2295
:1025C0005200B35E2F22D200B45E9C4210DA5F2527
:1025D000AD00A74E765FB3420ADA002E08D500237D
:1025E000A34E7353B350401ECD2812D8CD2010E017
:1025F0009C429F4E0EDD5F24A400355FAB4209DD97
:10260000012D07DB00233353B350401CD52800D3E2
:10261000D5207860002901D400F053FF481C01D177
:1026200001F08BF92E98944931522A9893493150F0
:1026300000242F9834542C98345447983018802113
:10264000FDF742FD8E4D28688E48007800288E4E9A
:102650008E4F1ED03699090171182A68D319319A04
:10266000D243934201D9FFF732FB2B68DB19934227
:1026700001D9FFF72CFB2B68DB19934201D9FFF737
:1026800026FB2A68D219C723DB439A42E2D3FFF71D
:102690001EFB2968C939C72901D9FFF717FB29682B
:1026A000C939C72901D9FFF711FB2968C939C729D9
:1026B00001D9FFF70BFB2968C939C829E9D3FFF70E
:1026C00005FB3994D2B23C2313400022419C1646AC
:1026D00025686168A068E76875404D4045407D40C9
:1026E0001034121D93422E46F2D1399C002C604EBC
:1026F0003B9913D090003218469810584540012C51
:102700000CD02120000113586B40022C01D11D4632
:1027100003E08520800015585D403B9941984018A2
:102720004190469834184098401CC6B2002E01D102
:1027300001F0C7F927683846684020604C48469940
:1027400040184899459AFDF787FF429908434199F7
:102750000968884208D080C4761EE7D1419909688B
:10276000411A4842484100E01E98414E414F3A9D6F
:102770003E9900293C9B1ED0002830D000272E987F
:1027800037525D20800037549A20315C0429109024
:1027900045D00329489C39D0022900D097E13C4814
:1027A0006843400C03214843281A4004000C2727A3
:1027B000C7400F403AE000281ED000202E997052EA
:1027C00046983258D0B201281DD12120000131583D
:1027D000C8B20D2800D883E12298C11FEEE65D2023
:1027E0008000315C491C3154C8B2072801D800F080
:1027F00049FE2298C11EE1E6002B01D000F055FEF3
:102800002298811EDAE62298411FD7E60320054070
:102810004543129FA737EF401F98074006E068071F
:10282000C00E1C49C1400F270F40489C9420309097
:102830003058C043384200D15DE39920305C3E906F
:10284000002800D1CFE0349830583A90339833586C
:10285000359831589820305C82003C920022459295
:102860002D914191014618463793329123E0C0469D
:10287000801C002024140140FFFF00005867F9F17C
:102880000C000240140B0020341600206FFEFFFFE6
:10289000ABAA0000AF34C219429F459A3E9C3C98B7
:1028A000419B1B1841934098401A521C4592A242EA
:1028B000489C00D197E042978842024600DB0A46D6
:1028C0004090A242154600D32546501E85423D95B4
:1028D00000D30546459B302B01D101F0F2F89B0057
:1028E000F318A8241F59002FD6D03B46429C234002
:1028F000BB42D1D13B903A9B08463799994201D9C6
:1029000001F0DFF80446459B5C43A14201D201F08F
:10291000D8F80B1B834206DD3A9B1B1B8342034600
:1029200001D201F0CEF83994012B3E9C56DB3D9844
:10293000A84201D101F0C5F8032414403B980328B4
:1029400002D23D94002024E090082299CA1E4243FE
:10295000469835180020419B29681E684E402E601D
:1029600069685E684E406E60A9689E684E40AE60C1
:10297000E968DE684E40EE6010351033001F824279
:10298000EAD1002CF74E21463E9C27D03D9122995A
:102990004843399989002D9A5218800011583318EC
:1029A000469D5C594C405C513D9B012B3E9C15D093
:1029B000011D54583B9471183991469D4C593B99CF
:1029C0004C4039994C513E9C022B07D0083011588D
:1029D0003018469BC2584A403E9CC25042984740DD
:1029E0003299459A5BE7002F00D184E2781E0742B6
:1029F00000D18FE03E9800280ED080000021C02931
:102A000001D101F05EF87218A823D258BA4200D161
:102A100071E2091D8842F2D1A02041903558A036BC
:102A2000429676682C4634433F9845900AD030460B
:102A3000FDF7C2FB45902846FDF7BEFB002E01D1F5
:102A400020304590002CD14E489B00D153E2339862
:102A50003158349830588142459D01D901F031F800
:102A60009820305C3F22561B7043814201D201F016
:102A700028F8091A994200D319468A00C34C35999F
:102A800061588000081846996118FDF723FB102D46
:102A900001D201F016F8B0002018A82147500120FB
:102AA00000213246FDF7BDFB419BE2588243E250D4
:102AB0002D22D200A3580343A350429B5868884359
:102AC0005860A01842680A434260264613E2B048A4
:102AD0006843020E0E290BD84D2A69D20123B9E0B2
:102AE000150C029AB25AAA4231D22299083965E5E8
:102AF000512A099B00D2BEE0430E512B429B00D2CB
:102B0000B9E0C92A00D2AAE0EB2A01D200F0D6FC33
:102B10000B23B0E0002F089806D0784238409D493A
:102B20004843C00E9CA1085C45909825745D34987C
:102B3000325833983358A0213046429176584599FF
:102B4000A0303E42419238D00546904EA2E1852207
:102B50009200B7580A0C48920A0A441CBB420BD197
:102B60009821715C8C4207D120997231715C1346B7
:102B7000D2B291421A460BD04692E91C8908081835
:102B80002146FDF7E4FA01462046FDF733FD469A5B
:102B9000149837500320C001355218984899315283
:102BA0003D983454209872303254834F00F07DFCAD
:102BB000830E292B46D203234CE029953E90934265
:102BC00001D900F07EFF25464D43AB4201D200F013
:102BD00078FF3E9840683D906C493598085827909A
:102BE0002D20C00040930B582D93409B3B9008181C
:102BF00045993C9040683A90581B3790A04205DDBB
:102C0000501BA042379401D200F05BFF88005F495F
:102C10000818A8212B9026914058249031463D98C1
:102C20000143329100D1C9E0FDF7C6FA3990304630
:102C3000FDF7C2FA39993D9A002A01D120300146A8
:102C4000409BBCE0430E692B019B03D3F32A079BF7
:102C500000D30C238B4200D30B46012B08D128460E
:102C6000FDF73CFA1F2900D98EE001278F40DDE5F2
:102C7000002900D188E0429A1A4042925A1E032A43
:102C800048D3FC221340459300273B46440344406D
:102C9000620C6240500150401F2422408A42F5D20B
:102CA00001252E4696403E42F0D13E434703474021
:102CB0007A0C7A405001504022408A42F6D22F4688
:102CC00097403742F2D1374346034640720C724078
:102CD0005001504022408A42F6D22E4696403E4253
:102CE000F2D13E43470347407A0C7A4050015040AE
:102CF00022408A42F6D22F4697403742F2D13743DC
:102D00001B1D459A9342C1D1429A002A1F4E489CEE
:102D100000D18BE542034240540C544060016040B6
:102D20001F2214408C42F5D201231D46A5403D428E
:102D3000F0D12F43429C012C00D176E5440344405E
:102D4000650C65406801684015408D42F6D21C460E
:102D5000AC403C42F2D13C43429D022D04D1274677
:102D600063E5C046801C002046034640750C754054
:102D70006801684015408D42F6D21F46AF40274299
:102D8000F2D12743014E50E500274FE5801C00207B
:102D9000E2A00D9731B57C0700011C021D0E18033F
:102DA0001E16140F191104081F1B0D1715131007F9
:102DB0001A0C12060B050A09241401404021329E08
:102DC0000020002E3D9045D03F203991461A744393
:102DD000A34201D200F075FE181B3799884200D338
:102DE0000846A900279B59188200A0001818FDF773
:102DF00071F93998102801D200F063FE2D9D3D40F5
:102E0000B000FA4C20182699249A42500120002143
:102E10003246FDF706FA429AA35883433E9A526817
:102E20008A43002D00D12846379339923C9A3B9B28
:102E3000299C00D1294655680D433A95EB4EF5582B
:102E40000543345D34983058419033983058409061
:102E50003D9903E0379039902D9D01462B9EA83671
:102E60000120459AFDF7DDF98543E04B3B9A9D50E3
:102E7000379A024342981A503D9830603A988843F6
:102E80003C9A5060399E0E4345993E9805464660EF
:102E90001E46409B4198834201D900F012FE4C43EC
:102EA000A34201D200F00DFE181B4899884200D3BE
:102EB0000846820035983058A1004018469971188C
:102EC000FDF708F9459A90003018A82147500120D5
:102ED0000021FDF7A6F9429BF2588243F2502D20C3
:102EE000C00032583A433250309AB0583843B0504C
:102EF0006868884368602D20C10075587018399043
:102F000047683C9103E02846384300D191E22846C7
:102F1000384300D18DE22020002F034606D07842AE
:102F20003840B3494843C00EB2A1085C2030694222
:102F30002940AF4A5143C90E002D01D0ADA2535CC8
:102F4000489500D1034646932F2B01D900F0B9FDD7
:102F5000012000242B902146469D2A46FDF761F969
:102F6000489A4240A80015463018A8223E92805840
:102F700040903C9835504F403998476099203A909E
:102F8000305C0028BFD0224605E04694121D641C28
:102F9000C1B28C42B7D24699A142F6D045922F2CAD
:102FA00001D900F08EFDA10072183E99419251584E
:102FB0004291C943409A114241D1349831583398D3
:102FC00037588F4201D900F07CFD98203290325C56
:102FD00015466543AF4201D200F073FD3598305875
:102FE0003B907B1B934205DD4B1B9342134601D262
:102FF00000F067FD3D94144646984443A74201D231
:1030000000F05FFD381B904205DD091B9142104620
:1030100001D200F056FD0128429F53DB9842014641
:1030200000D31946431E994201D800F04AFDA10081
:10303000032303400428379303D2002429E0459A50
:10304000A4E72D9548910146459842434498031FB3
:10305000194000243B9B9D58489FDE596E409E506E
:103060009D186E68D819476877406F60AE688768AA
:103070007740AF60EE68C0687040E8601033241D90
:10308000A142E8D1379B002B584E429F2D9D489975
:1030900018D0A8003B9A10185218A1001D4643589A
:1030A00054585C404450012D0CD00B1DC458D558C9
:1030B0006540C550379B022B04D008314358525805
:1030C0005A404250419DA835409847402F60781E95
:1030D00039464140814211D930983058384249D060
:1030E0000120002421463D9F3A46FDF79AF8A02290
:1030F000B3580343B3502C603C4621E03A98305C0F
:1031000000283D9C29D03146A831002203E0091D4A
:10311000521C904221D09442F9D02F2A01D900F0BC
:10312000D0FC0B68BB42F2D10120002421463D9A1D
:10313000FDF777F8A022B3580343B3502C603D9CB1
:103140003246A03253680B4353603C9AB5588543CE
:10315000399847688F43459A65E10120002122464E
:10316000FDF75FF83C9AB5580543399847680F4317
:10317000459A58E141953D9C1F2C02D82B99A140BE
:1031800000E00021459A8F4206D13C997558399943
:103190003B464F68309942E1002F0AD0002F329A07
:1031A0000AD07842384012494843C00E11A1095C48
:1031B00003E02021329A02E0202146984690B25C3A
:1031C0003498305837903398305829903598305883
:1031D0002790A02573593046A0302D903B4248914E
:1031E00042973B9516D046982690C5E0801C00205B
:1031F00031B57C0700011C021D0E18031E16140FAA
:10320000191104081F1B0D17151310071A0C1206AD
:103210000B050A0926933799299B8B4201D900F0A7
:1032200050FC144648984443A34201D200F049FCA4
:103230002D98406823903C98355839984768181B5A
:103240001A90904205DD081B90421A9201D200F0BC
:1032500038FC1694489B980031183E9819910858EC
:103260001590269C2398044361D02492FCF7A4FF78
:103270001B902698FCF7A0FF1B99239A002A01D1E6
:10328000203001464698489B249A002C53D03F207A
:103290001B91401A26904243299890423D9C01D2AE
:1032A00000F00FFC1346801A1A99884200D3084692
:1032B00016998900279F7918820098003818FCF722
:1032C00009FF1B98102801D200F0FBFB4298054033
:1032D000269A900030183E99159B435001200021FA
:1032E000FCF79FFF3B9AB35883432D9A52688A4359
:1032F000002D00D128461B922393489B00D12946DC
:10330000399A57683C9AB558469A934200D026920B
:103310000F4305433298325C3498305837903398D5
:103320003058299035983058279023990AE0402149
:103330004698002CABD1002183421B9126903D9CE6
:1033400000D1E0E5239124921998A8300021016072
:1033500001201A46FCF765FF85433C9AB550249A34
:10336000239B03433B9D73518F43399847601B9BBD
:103370000B432D984360429F299B3798834200D985
:103380009FE3114661438B4200D29AE3581A904260
:1033900005DD3798401A9042104600D291E3489CD0
:1033A0006243934200D28CE31C461346A21A824227
:1033B00000D3024692009800279B181889005918DC
:1033C000FCF788FE489A900030183E994750012536
:1033D000002728463946FCF724FF48913B9974584A
:1033E0008443284639463D9D2A46FCF71AFF04438C
:1033F0003B9AB4502C46419A17602D9B5A68489DC1
:10340000AA430A435A60429B399A57688F433C99B2
:103410007558854330997058269A4692459A1843B4
:1034200070501D4339983C99755047603A98305C0C
:10343000ACE51098315C1F29229802D82298884068
:10344000C043309971588142E74F19D134983058B0
:103450000321C901715AC91C8908884200D230E38E
:10346000359830580022FDF7F7F8149971588842C2
:10347000229901D1FFF7A2F82298011FFFF79EF8C9
:103480001898355A681C80B2012800D80B981899F2
:10349000705220987230305C401C2599C9B2884225
:1034A00003D12298811FFFF789F800212F9831540A
:1034B0002C9AB05C401CB054FFF780F80C23FFF747
:1034C000DAFB2E98325A9820335CC84C20680126CB
:1034D000304320600C20C043179D2C6804402C60B2
:1034E0009B1C934200D800260D9A1640179BDA6861
:1034F00002404896002EBE4CBE4E00D00832DA6024
:103500002068BD480078002800D190E02268BB4BBD
:10351000D318319AD24393420FD82368B74D5B1921
:1035200093420AD823685B19934206D82268B34BAA
:10353000D218C723DB439A42E8D3369A13010029F5
:1035400000D1FDE00A9D2A680124A2432A602A686E
:1035500003220A40042900D2F7E0449C241F2140A2
:10356000002403E0241D8C4200D1EBE03D68002DD7
:1035700008D03D68002D05D03D68002D02D03D6883
:10358000002DF3D13D68002D08D13D68002D05D1F7
:103590003D68002D02D13D68002DF3D03D68002D1F
:1035A00008D03D68002D05D03D68002D02D03D6853
:1035B000002DF3D13D68002D08D13D68002D05D1C7
:1035C0003D68002D02D13D68002DF3D03D68002DEF
:1035D00008D03D68002D05D03D68002D02D03D6823
:1035E000002DF3D13D68002D08D13D68002D05D197
:1035F0003D68002D02D13D68002DF3D03D68002DBF
:1036000008D03D68002D05D03D68002D02D03D68F2
:10361000002DF3D13D68002DA4D13D68002DA1D12E
:103620003D68002D9ED13D68002DF3D09AE72268B9
:10363000C93AC72A0BD82268C93AC72A07D82268CC
:10364000C93AC72A03D82268C93AC82AEFD3002941
:10365000334600D12DE10A9C226801239A4322605F
:10366000226803220A40042900D2CCE0449B1B1F9D
:103670001940002303E01B1D8B4200D1C0E03C68D1
:10368000002C08D03C68002C05D03C68002C02D0EF
:103690003C68002CF3D13C68002C08D13C68002C1D
:1036A00005D13C68002C02D13C68002CF3D03C686A
:1036B000002C08D03C68002C05D03C68002C02D0BF
:1036C0003C68002CF3D13C68002C08D13C68002CED
:1036D00005D13C68002C02D13C68002CF3D03C683A
:1036E000002C08D03C68002C05D03C68002C02D08F
:1036F0003C68002CF3D13C68002C08D13C68002CBD
:1037000005D13C68002C02D13C68002CF3D03C6809
:10371000002C08D03C68002C05D03C68002C02D05E
:103720003C68002CF3D13C68002CA4D13C68002CF0
:10373000A1D13C68002C9ED13C68002CF3D09AE7C4
:10374000F318B6E0002A00D1ADE03968002908D0AE
:103750003968002905D03968002902D03968002964
:10376000F3D13968002908D13968002905D13968B1
:10377000002902D139680029F3D0F318012A00D1B9
:1037800092E03968002908D03968002905D03968E5
:10379000002902D039680029F3D13968002908D1FD
:1037A0003968002905D13968002902D13968002912
:1037B000F3D0022A78D03968002908D03968002966
:1037C00005D03968002902D039680029F3D1396859
:1037D000002969D13968002966D13968002963D187
:1037E00039680029F3D05FE0241401402C10024016
:1037F0000C00024034160020140B00206FFEFFFF67
:10380000002A334650D03968002908D03968002989
:1038100005D03968002902D039680029F3D1396808
:10382000002908D13968002905D13968002902D159
:1038300039680029F3D0012A334635D03968002988
:1038400008D03968002905D03968002902D03968C4
:103850000029F3D13968002908D13968002905D138
:103860003968002902D139680029F3D0022A334689
:103870001AD03968002908D03968002905D039687C
:10388000002902D039680029F3D13968002908D10C
:103890003968002905D13968002902D13968002921
:1038A000F3D0334600E0F3180A9C216801220A4352
:1038B000226001214840894908708A480168002037
:1038C000844A289CA0CB2E0CADB2401980196D1AE9
:1038D000761A60C2BEB23F0C8019C019761A7F1AE0
:1038E000C0C2A0CB2E0CADB2401980196D1A761A49
:1038F00060C2BEB23F0C8019C019761A7F1AC0C2CE
:1039000020CB2E0CADB2401980196D1A761A60C208
:10391000641ED7D1129DC821FCF719FC71490860BB
:103920006A4800691199084041424141C2080E9815
:10393000084248985DD1FEF7C3F9624C2168012026
:10394000014321600C99C943179B1A680A401A6009
:10395000DA680A40DA6021680143216019680C22A4
:1039600091431960D968119A114304229143D96097
:103970002168014321600320C1431A680A401A608C
:10398000DA680A40DA60C001345A359830580028A5
:1039900002D1002C00D094E0214600F0ADF80004E4
:1039A00000194D4908600F980028129D21D44E48F7
:1039B0000F9948434D497F317F2291434C4A511A18
:1039C00008184C4944187E20C043844211DBE0179C
:1039D000400E2018C0110C2200210B46FCF7AAFF54
:1039E000002806D13A49FD313B4800232246FDF725
:1039F0009FF8344B596801208143596019460839B2
:103A00000D6000220A60364A703A99681140996048
:103A1000049D2968039A11432960996820229143E3
:103A20009960196802220A431A60284B19680C220F
:103A300011431960D9689143D9602B6803218B43E6
:103A40002B602B689B0708D02B689B0705D02B6841
:103A50009B0702D02B689B07F3D12B68F024A3436C
:103A60002B60069C236883432360059C2368164DC6
:103A70002B40389D2B432360124E33680343336041
:103A80000C9BDB43179D2C681C402C60EC681C4091
:103A9000EC60336803433360D2432B6813402B60E0
:103AA000EB681340EB60326802433260C843296818
:103AB00001402960E9680140E96000F0DBF87DB071
:103AC000F0BDFEDE2C100240FF1FFFFF000400507F
:103AD0000305000054190020380C0020140B0020AE
:103AE0006FFEFFFFD01E002000FAFFFF686900088C
:103AF0000080000880F9FFFFF0B51A4A00292ED097
:103B000003240C40184B042901D2002514E0174D62
:103B100029400025465D56405E434219577877405C
:103B20005F4396787E405E43D27872405A432D1DA3
:103B3000A942EFD1002C12D0415D51405943012CD4
:103B400001D10846F0BD4019427851405943022C3A
:103B500001D10846F0BD807841404B431A461046DB
:103B6000F0BDC046C59D1C8193010001FCFF000013
:103B7000B0B53F4A10680123184310600320840742
:103B8000052109070D6825430D60CD68A543CD606B
:103B900014681C43146004050D6825430D60CD684E
:103BA000A543CD6014681C43146084040D6825434C
:103BB0000D60CD68A543CD6014681C4314600404F7
:103BC0000D6825430D60CD68A543CD6014681C4386
:103BD000146084030D6825430D60CD68A543CD6056
:103BE00014681C43146004030D6825430D60CD6800
:103BF000A543CD6014681C43146084020D682543FE
:103C00000D60CD68A543CD6014681C4314600402A8
:103C10000D6825430D60CD68A543CD6014681C4335
:103C200014600C68C0252C430C60CC68AC43CC609D
:103C300014681C4314600C6830252C430C60CC685D
:103C4000AC43CC6014681C4314600C680C252C43F6
:103C50000C60CC68AC43CC6014681C4314600A68E8
:103C600002430A60CA688243CA6000204860B0BD4F
:103C70002C100240F0B589B005200007634941606F
:103C80000121CB0383618A02009282614A0202927F
:103C900082610A020192826180220392826140273E
:103CA000876120220592826110220492826108229B
:103CB0000792826104220692826102220892826146
:103CC0008161534D2E680E432E600668514A16409E
:103CD000B618761C066086681640CA07B21882605D
:103CE0002A680A432A6002684B4E32400C051219BA
:103CF0000260826832404C05121982602A680A43C9
:103D00002A600268454C22408E0492190260826843
:103D10002240CC04121982602A680A432A60026891
:103D20003F4C22400E0492190260826822404C04EB
:103D3000121982602A680A432A600268394C2240BC
:103D40008E039219026082682240D21882602A682B
:103D50000A432A600268344B1A400C0312190260AD
:103D600082681A404B03D21882602A680A432A608C
:103D700002682E4B1A40009C1219026082681A4099
:103D8000CB02D21882602A680A432A600268284B54
:103D90001A40019C1219026082681A40029BD218D4
:103DA00082602A680A432A6002683A43039B9A4366
:103DB000026082681A43BA4382602A680A432A6012
:103DC0000268049C2243059B9A43026082681A435E
:103DD000A24382602A680A432A600268069C224342
:103DE000079B9A43026082681A43A24382602A6852
:103DF0000A432A6002680A43089B9A430260826869
:103E00001A438A43826009B0F0BDC046FF870000B4
:103E10002C100240FFFFFF3FFFFFCFFFFFFFF3FF2C
:103E2000FFFFFCFFFF3FFFFFFFCFFFFFFFF3FFFFA1
:103E3000FFFCFFFFF0B585B0544AD368002B06D0D5
:103E40002522424300211046984705B0F0BD504B53
:103E50001878022807D3534909680907F5D5401E89
:103E6000187005B0F0BD0128EFD1002018704A4B42
:103E70001E68142E019006DA05460490034602904F
:103E80000390074655E0434B1C68002C7CD0434B05
:103E90005B680025424FBB4239D1404F3B7A012B32
:103EA00035D1FB7A012B32D1BB7A012B04952B46FD
:103EB0003846029503952F463BD1C38A5B009E424C
:103EC00014D9B508B3425FD25F1CB7425CD2E75C3D
:103ED000E01840780002C719BD4217D354D9B80082
:103EE00027583F1927509B1CB342EBDB14202B4B68
:103EF0001F5E1220185E039010201D5E587AC007C6
:103F00000023002804930DD0162E06DA0025049510
:103F10002B46029503952F460BE0234615331F4889
:103F2000007E0490E719039820180390601902900E
:103F30000125E8B20128019800D005461570049CBF
:103F400000D004465470039C029D13D1536014D1D9
:103F5000956015D1D46000D007461761002B00D0C2
:103F600019709268002A00D16FE724200021904741
:103F700005B0F0BD03465360EAD005469560E9D030
:103F80000446D460E8D1E8E7FEDEC046380B0020E6
:103F9000340C00202C0C0020300C0020380C0020A9
:103FA000B4C45AF91004005001480121017070474F
:103FB000D41E002070B50B2800D98CE04000C0460C
:103FC00078448088400087440B008B0305028702F9
:103FD00007010D048F0409038D05890111058B006C
:103FE0003D4808243D4D090976413601E1417641BD
:103FF000E1417641F6001B097641E3417641E34118
:10400000764112097641E2417641E24176416E40C5
:10401000E141490A76413601E1417641E14176418B
:10402000F600E3415B0A7641E3417641E3417641A4
:10403000E241520A7641E2417641E24176416E40E8
:104040000660E141490A76413601E1417641E141AC
:104050007641F600E3415B0A7641E3417641E34174
:104060007641E241520A7641E2417641E2417641AF
:104070006E40E141490A76413601E1417641E14134
:104080007641F600E3415B0A7641E3417641E34144
:104090007641E241520A7641E2417641E24176417F
:1040A0006E404660E141490A76413601E141764180
:1040B000E1417641F600E3415B0A7641E341764116
:1040C000E3417641E241520A7641E2417641E241E2
:1040D00076416E40866070BD041F0020FF8700009F
:1040E0003B48843008243B4DF6011B097641E341EF
:1040F0007641E341764112097641E2417641E2415F
:10410000764109097641E1417641E14176416E40CF
:10411000F601E3415B0A7641E3417641E3417641B2
:10412000E241520A7641E2417641E2417641E14183
:10413000490A7641E1417641E14176416E400660AF
:10414000F601E3415B0A7641E3417641E341764182
:10415000E241520A7641E2417641E2417641E14153
:10416000490A7641E1417641E14176416E40F601EE
:10417000E3415B0A7641E3417641E3417641E24126
:10418000520A7641E2417641E2417641E141490AF3
:104190007641E1417641E14176416E404660F6016B
:1041A000E3415B0A7641E3417641E3417641E241F6
:1041B000520A7641E2417641E2417641E141490AC3
:1041C0007641E1417641E14176416E40866070BDC5
:1041D000041F0020FF8700003E48303008243E4D79
:1041E000090976413601E1417641E14176411B09F9
:1041F0007641E3417641E3417641F600120976418A
:10420000E2417641E24176416E40E141490A764120
:104210003601E1417641E1417641E3415B0A764175
:10422000E3417641E3417641F600E241520A7641AC
:10423000E2417641E24176416E400660E141490A41
:1042400076413601E1417641E1417641E3415B0A45
:104250007641E3417641E3417641F600E241520A7C
:104260007641E2417641E24176416E40E141490AC0
:1042700076413601E1417641E1417641E3415B0A15
:104280007641E3417641E3417641F600E241520A4C
:104290007641E2417641E24176416E404660E1413D
:1042A000490A76413601E1417641E1417641E341F7
:1042B0005B0A7641E3417641E3417641F600E24113
:1042C000520A7641E2417641E24176416E40866093
:1042D00070BDC046041F0020FF8700003B486C30C3
:1042E00008243B4DF6011B097641E3417641E34149
:1042F000764112097641E2417641E241764109096F
:104300007641E1417641E14176416E40F601E3417B
:104310005B0A7641E3417641E3417641E241520A4C
:104320007641E2417641E2417641E141490A7641F6
:10433000E1417641E14176416E400660F601E3419C
:104340005B0A7641E3417641E3417641E241520A1C
:104350007641E2417641E2417641E141490A7641C6
:10436000E1417641E14176416E40F601E3415B0A6D
:104370007641E3417641E3417641E241520A76419A
:10438000E2417641E2417641E141490A7641E1412B
:104390007641E14176416E404660F601E3415B0AB9
:1043A0007641E3417641E3417641E241520A76416A
:1043B000E2417641E2417641E141490A7641E141FB
:1043C0007641E14176416E40866070BD041F002059
:1043D000FF8700003E48183008243E4D0909764109
:1043E0003601E1417641E1417641F6001B09764113
:1043F000E3417641E341764112097641E24176415B
:10440000E24176416E40E141490A76413601E1419F
:104410007641E1417641F600E3415B0A7641E341B2
:104420007641E3417641E241520A7641E2417641EA
:10443000E24176416E400660E141490A764136012B
:10444000E1417641E1417641F600E3415B0A764184
:10445000E3417641E3417641E241520A7641E2414D
:104460007641E24176416E40E141490A76413601AA
:10447000E1417641E1417641F600E3415B0A764154
:10448000E3417641E3417641E241520A7641E2411D
:104490007641E24176416E404660E141490A76410B
:1044A0003601E1417641E1417641F600E3415B0AA4
:1044B0007641E3417641E3417641E241520A764159
:1044C000E2417641E24176416E40866070BDC04671
:1044D000041F0020FF8700003E48243008243E4D82
:1044E000090976413601E1417641E14176411B09F6
:1044F0007641E3417641E3417641F6001209764187
:10450000E2417641E24176416E40E141490A76411D
:104510003601E1417641E1417641E3415B0A764172
:10452000E3417641E3417641F600E241520A7641A9
:10453000E2417641E24176416E400660E141490A3E
:1045400076413601E1417641E1417641E3415B0A42
:104550007641E3417641E3417641F600E241520A79
:104560007641E2417641E24176416E40E141490ABD
:1045700076413601E1417641E1417641E3415B0A12
:104580007641E3417641E3417641F600E241520A49
:104590007641E2417641E24176416E404660E1413A
:1045A000490A76413601E1417641E1417641E341F4
:1045B0005B0A7641E3417641E3417641F600E24110
:1045C000520A7641E2417641E24176416E40866090
:1045D00070BDC046041F0020FF8700003E485430D5
:1045E00008243E4D090976413601E1417641E14119
:1045F00076411B097641E3417641E3417641120958
:104600007641E2417641E2417641F6006E40E14179
:10461000490A76413601E1417641E1417641E34183
:104620005B0A7641E3417641E3417641E241520A39
:104630007641E2417641E2417641F6006E40066005
:10464000E141490A76413601E1417641E141764155
:10465000E3415B0A7641E3417641E3417641E24141
:10466000520A7641E2417641E2417641F6006E40DF
:10467000E141490A76413601E1417641E141764125
:10468000E3415B0A7641E3417641E3417641E24111
:10469000520A7641E2417641E2417641F6006E40AF
:1046A0004660E141490A76413601E1417641E14106
:1046B0007641E3415B0A7641E3417641E34176414D
:1046C000E241520A7641E2417641E2417641F6000A
:1046D0006E40866070BDC046041F0020FF8700004A
:1046E0003E480C3008243E4D090976413601E1412F
:1046F0007641E1417641F6001B097641E34176417E
:10470000E341764112097641E2417641E241764148
:104710006E40E141490A76413601E1417641E1418D
:104720007641F600E3415B0A7641E3417641E3419D
:104730007641E241520A7641E2417641E2417641D8
:104740006E400660E141490A76413601E141764119
:10475000E1417641F600E3415B0A7641E34176416F
:10476000E3417641E241520A7641E2417641E2413B
:1047700076416E40E141490A76413601E141764198
:10478000E1417641F600E3415B0A7641E34176413F
:10479000E3417641E241520A7641E2417641E2410B
:1047A00076416E404660E141490A76413601E14179
:1047B0007641E1417641F600E3415B0A7641E3410F
:1047C0007641E3417641E241520A7641E241764147
:1047D000E24176416E40866070BDC046041F0020F5
:1047E000FF8700003E483C3008243E4D09097641D1
:1047F0003601E1417641E14176411B097641E341D1
:104800007641E3417641F60012097641E241764174
:10481000E24176416E40E141490A76413601E1418B
:104820007641E1417641E3415B0A7641E3417641DD
:10483000E3417641F600E241520A7641E241764197
:10484000E24176416E400660E141490A7641360117
:10485000E1417641E1417641E3415B0A7641E34142
:104860007641E3417641F600E241520A7641E24167
:104870007641E24176416E40E141490A7641360196
:10488000E1417641E1417641E3415B0A7641E34112
:104890007641E3417641F600E241520A7641E24137
:1048A0007641E24176416E404660E141490A7641F7
:1048B0003601E1417641E1417641E3415B0A7641CF
:1048C000E3417641E3417641F600E241520A764106
:1048D000E2417641E24176416E40866070BDC0465D
:1048E000041F0020FF8700003E48483008243E4D4A
:1048F000090976413601E1417641E14176411B09E2
:104900007641E3417641E341764112097641E24145
:104910007641E2417641F6006E40E141490A764136
:104920003601E1417641E1417641E3415B0A76415E
:10493000E3417641E3417641E241520A7641E24168
:104940007641E2417641F6006E400660E141490A57
:1049500076413601E1417641E1417641E3415B0A2E
:104960007641E3417641E3417641E241520A7641A4
:10497000E2417641E2417641F6006E40E141490A6A
:1049800076413601E1417641E1417641E3415B0AFE
:104990007641E3417641E3417641E241520A764174
:1049A000E2417641E2417641F6006E404660E141E7
:1049B000490A76413601E1417641E1417641E341E0
:1049C0005B0A7641E3417641E3417641E241520A96
:1049D0007641E2417641E2417641F6006E408660E2
:1049E00070BDC046041F0020FF8700003B487830A0
:1049F00008243B4DF6011B097641E3417641E34132
:104A0000764112097641E2417641E2417641090957
:104A10007641E1417641E14176416E40F601E34164
:104A20005B0A7641E3417641E3417641E241520A35
:104A30007641E2417641E2417641E141490A7641DF
:104A4000E1417641E14176416E400660F601E34185
:104A50005B0A7641E3417641E3417641E241520A05
:104A60007641E2417641E2417641E141490A7641AF
:104A7000E1417641E14176416E40F601E3415B0A56
:104A80007641E3417641E3417641E241520A764183
:104A9000E2417641E2417641E141490A7641E14114
:104AA0007641E14176416E404660F601E3415B0AA2
:104AB0007641E3417641E3417641E241520A764153
:104AC000E2417641E2417641E141490A7641E141E4
:104AD0007641E14176416E40866070BD041F002042
:104AE000FF8700003E48603008243E4D09097641AA
:104AF0003601E1417641E14176411B097641E341CE
:104B00007641E341764112097641E2417641E24144
:104B10007641F6006E40E141490A76413601E141B5
:104B20007641E1417641E3415B0A7641E3417641DA
:104B3000E3417641E241520A7641E2417641E24167
:104B40007641F6006E400660E141490A7641360141
:104B5000E1417641E1417641E3415B0A7641E3413F
:104B60007641E3417641E241520A7641E2417641A3
:104B7000E2417641F6006E40E141490A7641360154
:104B8000E1417641E1417641E3415B0A7641E3410F
:104B90007641E3417641E241520A7641E241764173
:104BA000E2417641F6006E404660E141490A7641B5
:104BB0003601E1417641E1417641E3415B0A7641CC
:104BC000E3417641E3417641E241520A7641E241D6
:104BD0007641E2417641F6006E40866070BDC04687
:104BE000041F0020FF870000F0B547480078012827
:104BF00000D187E00720430344490C689C4303230A
:104C00005D0364190C608D6A022425438D62404D5A
:104C10002E6804273E43082296432E60AE68164352
:104C2000BE43AE60AC61C0028A6882438A600120E4
:104C300042020C6B14430C639A0736490A61420620
:104C4000354B1A600860304A107088600A68D207D5
:104C500008D10A68D20705D10A68D20702D10A68CA
:104C6000D207F3D0C203CA6002028A6205228A60B8
:104C70000024234606E00D6C8A602C191B1D85025A
:104C8000AB4239D00D686D0708D40D686D0705D4A7
:104C90000D686D0702D40D686D07F3D50D6C8A6041
:104CA0002C190D686D0708D40D686D0705D40D68C3
:104CB0006D0702D40D686D07F3D50D6C8A602C1951
:104CC0000D686D0708D40D686D0705D40D686D0774
:104CD00002D40D686D07F3D50D6C8A602C190D6830
:104CE0006D07C8D40D686D07C5D40D686D07C2D4B3
:104CF0000D686D07F3D5BEE7E017800D2018801210
:104D000006490860F0BDC046D51E002004100240D0
:104D1000000400500024014008270140D81E002054
:104D200070B513490878012820D11248826A0223FD
:104D300013438362104A13680C2423431360D3681F
:104D4000A343D36001225302036200240462056B73
:104D50009D4305630723DD0286682E4386600C7041
:104D6000590303688B4391035918016070BDC04615
:104D7000D51E0020041002400004005000B59BB076
:104D8000D34E316A022001433162D24B1968D24AB4
:104D900011401960D96811400125AC030919D96087
:104DA000316A014331621868C02188431860D868AD
:104DB0004021014380200F908143D960FEF75AFFC4
:104DC00030680321884330603068800708D030683D
:104DD000800705D03068800702D030688007F3D1A3
:104DE000290630460C3802688A4302602907F26AB5
:104DF0000A43F262B94ABA4B13601268F26A8A43F4
:104E0000F262E94302680A400260B64802680A405A
:104E1000026008210160B06A04218843B062072063
:104E200041033246083A13688B432343136001025F
:104E300032680A433260C0023168014331607F202A
:104E4000C043A9497F310140A84C661A3040091877
:104E500008466038A04206D8803900D1FEDEA4485A
:104E60002022FBF737F9A24D1C212846FEF744FE0D
:104E7000E969884213D0002907D19D4D681C1F2184
:104E8000FBF722F90D20287009E00020984D2860DA
:104E90006860A860E86028616861A861E86100272F
:104EA000384639463A463B46FFF784F801200A90D7
:104EB00039463A463B46FFF77DF8022039463A46E6
:104EC0003B46FFF777F80320119039463A463B46B8
:104ED000FFF770F804200C9039463A463B46FFF73E
:104EE00069F80520129039463A463B46FFF762F8CA
:104EF000062039463A463B46FFF75CF8072039461C
:104F00003A463B46FFF756F80820099039463A469C
:104F10003B46FFF74FF8092039463A463B46FFF734
:104F200049F80A2039463A463B46FFF743F80B203A
:104F300039463A461A973B46FFF73CF829780A2942
:104F400002D8681880781A90C81E0728199153D87B
:104F50007844007940008744034F4F03030614222E
:104F6000FFF742FE48E06348002101604160816034
:104F7000C16001610D20C001844200D16EE75E482E
:104F80001AE05C480021016041608160C1600161FC
:104F90001920C001844200D160E758480CE0554810
:104FA0000021016041608160C16001612520C00174
:104FB000844200D152E752482118119842025148C8
:104FC000FBF788F84F4D80CDB8B200244E49884297
:104FD000189400D8044628462146FEF78DFD4B491B
:104FE0000D604B491E220A7080B2390C884200D0F5
:104FF000189C484804603D4C0A9800030B9000211F
:10500000C8430290F009401E0490C00103903C4840
:10501000201801903948201800901691149113918E
:105020000D91109102E00024149410963A4C0D9DBD
:105030000BE0284618381799159AFEF7BBFF00F0C9
:1050400029FEA41C173D0C2D29D01894199E30461A
:105050001A9C21462A46169F3B46FBF789FF17906C
:105060002A460C32304621463B46FBF781FF15901D
:10507000183530462146189C2A463B46FBF778FFF8
:105080000346072ED5D8012019998840C821084227
:10509000CFD02249886B208012980860C9E7169803
:1050A000401C1690199DE81E0A280A4F3CD8400063
:1050B00078448088400087445C0137003700320123
:1050C0008601330033003300370037003300C04619
:1050D0000C10024000040050FF3FFFFF0070004032
:1050E000051A0000002002406869000800800008DE
:1050F000180B0020380B002080F9FFFF80F3FFFF22
:1051000080EDFFFF380C0020FC0500002C0C002077
:10511000340C0020300C0020DC1E0020082401404C
:1051200016981A99FEF786FE3B690F980340149C67
:105130001E2C199540D10E93FFF7F2FD002528464D
:10514000159504E01398401C0C28159D3FD011992B
:1051500013904143149107E02846FEF72BFF00F01F
:1051600099FD6D1C0C2DEDD0199E30461A992A46DA
:10517000169F3B46FBF7FCFE18902C460C3430463D
:105180001A9922463B46FBF7F3FE17902E46183637
:1051900019981A9932463B46FBF7EAFE149FBD4226
:1051A000159B194600D31899BC421A4600D3179A8A
:1051B000BE42D1D30346CFE70E2D109E00D0AAE009
:1051C0001698122800D1A9E10E201990B5E1DE4E03
:1051D000B06A01210143B162DC48006800281CD19B
:1051E000DA48DB4901600F200003DA4A1168814385
:1051F0000B9801431160D849C8680F9A1043C860E2
:10520000086810430860FF200006D44B19688143EA
:105210001960D3480260D3480260FEF7A9FC00275A
:10522000384639463A463B46FEF7C4FE0125284635
:1052300039463A463B46FEF7BDFE022039463A461D
:105240003B46FEF7B7FE032039463A463B46FEF79B
:10525000B1FE0C9C204639463A463B46FEF7AAFE74
:10526000052039463A463B46FEF7A4FE062039465D
:105270003A463B46FEF79EFE072039463A463B46F5
:10528000FEF798FE082039463A463B46FEF792FE66
:10529000092039463A463B46FEF78CFE0A2039463D
:1052A0003A463B46FEF786FE0B2039463A463B46D9
:1052B000FEF780FEAC4816970770AC49086820439B
:1052C0000860AB4F20BFA84800780028FAD02D20F6
:1052D000C40038690006F5D400F0DCFC641EF8D187
:1052E000FEF7C8FCA14A10680C9988431060B06AA8
:1052F0002843B062984A10680F9988431060934819
:1053000016990160EC070E201999139119901A9DB6
:10531000109E0E9B12E1012C7FDB00207EE0954960
:105320000F884E88F0198D884019CC8800190A8999
:10533000059280184A89069280188A8907928018F7
:10534000CA89089280180A8A0E9280184A8A159291
:1053500080188A8A17928018C98A189140180C21DF
:10536000FAF7F5FE84490968884200DD08E10298F1
:1053700007E180490F884E88F0198D884019CC8844
:1053800000190A89059280184A89069280188A892C
:1053900007928018CA89089280180A8A0E9280188B
:1053A0004A8A159280188A8A17928018C98A189199
:1053B00040180C21FAF7CBFE6F490968884200DDDE
:1053C00048E1029847E16B490F884E88F0198D88B3
:1053D0004019CC8800190A89059280184A890692DA
:1053E00080188A8907928018CA89089280180A8AC8
:1053F0000E9280184A8A159280188A8A179280180D
:10540000C98A189140180C21FAF7A1FE5A49096877
:10541000884200DD88E1029887E10120002B0A998B
:1054200000D00146012900D144E30E930027092D45
:105430003846524C00DC681C199020702018807887
:105440001A901C212046FEF757FB2077010EE177CA
:10545000010CA177000A60770125049839462A4695
:105460003B46FBF767FA20212046039A3B46FBF7B1
:105470005FFB384639463A463B46FEF79BFD2846D9
:1054800039463A463B46FEF795FD022039463A46F4
:105490003B46FEF78FFD0324204639463A463B46FD
:1054A000FEF788FD042039463A463B46FEF782FD6A
:1054B000052039463A463B46FEF77CFD0620394634
:1054C0003A463B46FEF776FD072039463A463B46CC
:1054D000FEF770FD082039463A463B46FEF76AFD66
:1054E000092039463A463B46FEF764FD0A20394614
:1054F0003A463B46FEF75EFD0B2039463A463B46B0
:10550000FEF758FD1998072800D96EE28540C8209B
:10551000054200D169E2FFF767FB68E212201690AE
:10552000139D072D08D80120A840C821084203D0A8
:105530001F46FFF759FB3B4619951A9D002B1A95FC
:1055400000D070E5641C6FE50C100240040B0020D5
:10555000A93F00080C0001400004014004E400E001
:1055600080E200E000E100E0D41E002010ED00E049
:1055700000040050DC1E0020D81E0020180B002064
:1055800001204018F74A1060781AC2175040801A5C
:10559000721AD3175A40D21A10186A1AD3175A40DF
:1055A000D21A8018621AD3175A40D21A8018059A54
:1055B000521AD3175A40D21A8018069A521AD31781
:1055C0005A40D21A8018079A521AD3175A40D21A40
:1055D0008018089A521AD3175A40D21A80180E9A75
:1055E000521AD3175A40D21A8018159A521AD31742
:1055F0005A40D21A8018179A521AD3175A40D21A00
:105600008018189A511ACA175140891A4018010473
:1056100000D1F3E081B2490801438AB292080A43FB
:1056200091B2090911438AB2120A0A43D1434A08C6
:10563000CD4B1A40891A8A08CC4B19401A40891858
:105640000A0989180F220B46134012020A40110A58
:105650005918D4E001204018C24A1060781AC217C5
:105660005040801A721AD3175A40D21A10186A1A68
:10567000D3175A40D21A8018621AD3175A40D21A36
:105680008018059A521AD3175A40D21A8018069ACF
:10569000521AD3175A40D21A8018079A521AD3179F
:1056A0005A40D21A8018089A521AD3175A40D21A5E
:1056B00080180E9A521AD3175A40D21A8018159A87
:1056C000521AD3175A40D21A8018179A521AD3175F
:1056D0005A40D21A8018189A511ACA175140891A7A
:1056E0004018010400D1EDE081B2490801438AB2BB
:1056F00092080A4391B2090911438AB2120A0A4375
:10570000D1434A08984B1A40891A8A08974B194086
:105710001A4089180A0989180F220B4613401202F1
:105720000A40110A5918CEE0012040188D4A106035
:10573000781AC2175040801A721AD3175A40D21AD8
:1057400010186A1AD3175A40D21A8018621AD3173F
:105750005A40D21A8018059A521AD3175A40D21AB0
:105760008018069A521AD3175A40D21A8018079AEC
:10577000521AD3175A40D21A8018089A521AD317BD
:105780005A40D21A80180E9A521AD3175A40D21A77
:105790008018159A521AD3175A40D21A8018179A9D
:1057A000521AD3175A40D21A8018189A511ACA1787
:1057B0005140891A4018010400D1DDE081B2490846
:1057C00001438AB292080A4391B2090911438AB28D
:1057D000120A0A43D1434A08634B1A40891A8A08BD
:1057E000624B19401A4089180A0989180F220B4682
:1057F000134012020A40110A5918BEE010215D4FF1
:10580000052900D80521C91E012216468E40584997
:1058100009680023B142144600DB1C460B9DA942D7
:10582000154600D31D4625404C19B442164600DCEF
:105830001E46102C00D81A461640002D01D1002E0D
:1058400002D0A11B4A4A1160F54D2A785300F54E4B
:10585000F45AF052521C119B1A402A7080B2001B5D
:10586000FE4B1A6882181A60FD4C2068FD4B4343BA
:10587000FD4D68435840430C434058015840206058
:105880000346FA4C23405143F94A8A189A42199D1B
:1058900000D849E41A9A042A00DD0022032A01D91B
:1058A000FFF7DCFAC9B2F34B595CFF23F24C6354A7
:1058B000D200F24B9A18C00F800010588900F04AAD
:1058C000505031E41021D84F052900D80521C91EB8
:1058D000012216468E40DE4909680023B142144673
:1058E00000DB1C460B9DA942154600D31D462540F2
:1058F0004C19B442164600DC1E46102C00D81A463D
:105900001640002D01D1002E02D0A11BD04A1160FB
:10591000D04D2A785300D04EF45AF052521C119BAD
:105920001A402A7080B2001BCC4B1A68801818608D
:10593000D44C2278521CD3B2242B00D10022199DC2
:105940002270D2B2232A01D9FFF788FA484311996D
:105950004843400AFF2800D3FF20CB498854FFF773
:10596000E3FBC046D81E002055550000333300002D
:1059700004080020000400501021AB4F052900D876
:105980001299CA1E01210D469540B14A13680022A2
:10599000AB420E4600DB16460B9CA3420C4600D3DE
:1059A000144634401B19AB420D4600DC1546102B43
:1059B00000D811460D40002C01D1002D02D0591BFA
:1059C000A34A1160A34C21784A00A34DAB5AA852B8
:1059D000491C119A1140217080B2C01A9F4A116867
:1059E00040181060199DFFF79FFBFFF799F98E4F44
:1059F000199D0A2D0E9B2AD0092D15D0082D58D19E
:105A000000208C49086048608860C86008610D20EB
:105A1000C0018649814201D1FFF720FA8748091861
:105A20006202854D284624E00020824908604860D3
:105A30008860C86008611920C0017C49814201D199
:105A4000FFF70CFA62027C4D2846009911E0002015
:105A50007849086048608860C86008612520C001F6
:105A60007249814201D1FFF7F9F96202724D28466D
:105A70000199FAF72FFB40CDB0B200277049884258
:105A80003C4600D8044628462146FEF735F86D49C5
:105A90000D601E216C4A117080B2310C884200D01A
:105AA0003C466A480460199D5F4F109E149C0E9BF3
:105AB00000E0149C714271413869099A10400A9AB9
:105AC00000D00A46012A199507D100281A9810D04B
:105AD00000261E2E10D0054630E51A9A511C284685
