:020000040800F2
:100000000008002021080008E30000080908000893
:10001000E3000008E3000008E3000008000000001F
:10002000000000000000000000000000E3000008E5
:10003000E300000800000000E3000008E3000008FF
:10004000E3000008E3000008E3000008E300000804
:10005000E3000008ED01000809020008250200087D
:1000600000000000E3000008E3000008E3000008CF
:10007000E3000008E3000008E3000008BD020008F8
:10008000D5020008ED02000805030008000000008A
:100090001D030008E300000855030008E300000802
:1000A000E3000008E3000008E3000008E3000008A4
:1000B000E3000008E30000080B4611461A4680B52D
:1000C00000F011F880BDC0460A46002180B500F05E
:1000D0000AF880BD80B500F00DF880BD03C88546E4
:1000E0008F4620BFFDE700239A4202D0C1545B1C1B
:1000F000FAE7704710B581420AD28B18984207D2AE
:10010000491E431E002A0CD08C5C9C54521EF9E7F9
:100110000346002A05D00C781C705B1C491C521E3B
:10012000F7E710BDF8B50C460546202600293746EE
:1001300003D0204600F02BF80746002D03D02846B8
:1001400000F025F80646B81B1F2801D90020F8BD8D
:1001500001D12846F8BDF94389191F22131A2A46EE
:100160009A40401CC540002000290DD0D30F6D00DF
:10017000ED18EB43E31800D52D1B52001043DB0FA5
:10018000491C02461846EFE751000843F8BD70B518
:10019000010C4A424A41110110224A40D040FF223C
:1001A0001202024053425341DA0008235340D84020
:1001B000F02303405C425C41A30004245C40E04027
:1001C0000C240440654265416C00022526466E40C1
:1001D000F0402D1A40080126F6430643701C2840C3
:1001E0005118C9180919081870BDD4D405480168F8
:1001F000C90701D0012101600168890701D50221E9
:10020000016070471404014005480168490701D5A1
:10021000042101600168090701D5082101607047C8
:100220001404014022480168C90601D5102101606B
:100230000168890601D5202101600168490601D5C0
:10024000402101600168090608D580210160194933
:100250000968002902D0184901220A7001210268A8
:10026000D20501D50A0202600268920501D54A0250
:1002700002600268520501D58A0202600268120516
:1002800001D5CA0202600268D20401D50A030260E5
:100290000268920401D54A0302600268520401D543
:1002A0008A0302600268120401D5C9030160704725
:1002B00014040140040B00201C0C002004480168B9
:1002C000C90703D001680122914301607047C0460D
:1002D0001000004004480168C90703D001680122EA
:1002E000914301607047C046100400400448016813
:1002F000C90703D001680122914301607047C046DD
:100300001010004004480168C90703D001680122A9
:10031000914301607047C046101400400A480168CC
:10032000C9070FD0016801229143016007480068A6
:10033000002807D00648416802680023521C02606A
:100340004B4143607047C04610080140180B002025
:10035000100B002004480168C90703D0016801227E
:10036000914301607047C04610000040F0B5DE4682
:1003700057464E464546E0B591B00246654800688E
:10038000000601D030BFFDE768460492059109A937
:10039000002202920A73604B1A68196009900B924E
:1003A00000207A464A60002800D0A0E0029C049811
:1003B000069001200890000258490A6802430A602A
:1003C000574B1868C00708D01868C00705D01868D0
:1003D000C00702D01868C007F3D118460C38EFF3F5
:1003E000108172B64F4A02604F4A026018460838C0
:1003F0004E4A02604E4A026081F31088109409A9A7
:1004000000207A464A600FA90028084600D060E024
:10041000434914394120C000079108600498C04343
:10042000059908430FD10FA84068009009A9002042
:100430007A464A60002847D10898079908600098D2
:100440000028F1D153E009A900207A464A600FA99B
:10045000002808463DD109A900207A464A600FA924
:100460000028084635D109A900207A464A600FA91C
:10047000002808462DD12F487F307F2188430699D8
:10048000C90108181ED0006009A900207A464A60F8
:100490000FA9002808461CD1052000022049096840
:1004A0000142C0D00FA84068019009A900207A46F7
:1004B0004A6000280AD10898079908600198002826
:1004C000F1D114E030BFFDE7009800E0019800286A
:1004D0000DD04068039009A900207A464A600028A0
:1004E00003D10F481438089901600398EFE70B987F
:1004F0000949086009A8027B002A06D111B00FBC87
:100500008046894692469B46F0BD0E990D9800F0B4
:1005100021F9C04604ED00E0000B0020301002403D
:1005200018200240EFCDAB8905040302BFAE9D8CBD
:1005300016151413AC3E0008F0B5DE4657464E467D
:100540004546E0B595B0014670480068000601D008
:1005500030BFFDE7684608910DA900220A920A7390
:100560006B4B1A6819600D900F9200207A464A6012
:10057000002800D0A8E00DA900207A464A60002893
:1005800000D0A1E063487F307F218843089BC218D8
:10059000104620306049884200D995E0980700D085
:1005A00092E00B920DA900207A464A60002800D004
:1005B0008AE001200C90000258490A6802430A6050
:1005C000574B1868C00708D01868C00705D01868CE
:1005D000C00702D01868C007F3D118460C38EFF3F3
:1005E000108172B64F4A02604F4A026018460838BE
:1005F0004E4A02604E4A026081F310880A981490B5
:1006000001464C48425C0792099140184178049198
:1006100081780591C07806900DA900207A464A603D
:1006200013A90028084663D10DA900207A464A6024
:1006300013A9002808465BD10B98099940182CD0C3
:1006400004990902079A8918059A12048918069ACA
:100650001206891801600DA900207A464A6013A984
:100660000028084644D12E4800683349084216D174
:100670000999081D1C29C3D313A8406801900DA92E
:1006800000207A464A6000281CD1254814380C996D
:10069000016001980028F0D116E030BFFDE713A8F3
:1006A000406802900DA900207A464A60002807D1D0
:1006B0001B4814380C99016002980028F0D103E01F
:1006C000029813E0019811E00F98114908600DA8F5
:1006D000027B002A06D115B00FBC8046894692469F
:1006E0009B46F0BD1299119800F034F80028EBD029
:1006F000406803900DA900207A464A60002803D183
:10070000074814380C9901600398EFE704ED00E006
:10071000000B0020AC3E00080080000830100240B2
:1007200018200240EFCDAB8905040302BFAE9D8CBB
:10073000161514131C0B0020000501000448416825
:1007400002680023521C02604B4143607047C04660
:10075000100B0020104B1B681B060FD10F4B1B68A2
:10076000002B0BD0186159611A73044618460D46C8
:100770001646FFF7B3FC324620462946D2B2022A7B
:1007800001D130BFFDE7064A904203D1002901D1D3
:1007900030BFFDE730BFFDE704ED00E0000B0020B7
:1007A0009C3B00081348144981420CD0002204C12C
:1007B000814208D004C1814205D004C1814202D0E7
:1007C00004C18142F3D10D480D49814211D00D4A37
:1007D000136808C181420CD0536808C1814208D017
:1007E000936808C1814204D0D36808C110328142A5
:1007F000EED17047DC0C0020000B0020FC0A00202A
:1008000000080020B03B0008044801680A0600D533
:10081000C268090400D5006930BFFDE728ED00E09B
:10082000FFF7C0FF00F000F803480449016000F042
:1008300007F801F0A7FCC046080B0020DC0C0020E4
:1008400070B50322D00250490B6883430120C402D3
:100850001B190B601F210B024C494C689C4303037E
:10086000E3184B600B6803430824A3430B600B6839
:100870005B0708D40B685B0705D40B685B0702D4E1
:100880000B685B07F3D504060B68A3430B604306B4
:100890000D681D4208D00D681D4205D00D681D422F
:1008A00002D00D681D42F3D1FD252D04CE68AE4364
:1008B0001125AD047519CD600D6825430D600C68D8
:1008C0001C4208D10C681C4205D10C681C4202D1A4
:1008D0000C681C42F3D02E4B1C68E4070ED11C6838
:1008E00004431C601C68E40708D11C68E40705D1B8
:1008F0001C68E40702D11C68E407F3D0CB68F0243D
:10090000A343CB60CB681343CB60CA68D243920742
:100910000BD0CA68D243920707D0CA68D243920765
:1009200003D0CA68D2439207EFD18202CB68134347
:10093000CB604203CB681343CB604A6B04231A435A
:100940004A6314498B62144ACA624A6902434A6183
:100950000A68812313430B60CA6A0A6982430A61E9
:100960000E4A0F4B13600F4A1368C1241C433E23E9
:100970009C43146002050C4B1A600C4B1A60CA6849
:100980000243CA6070BDC0460070004000100240C3
:100990000020024000080140FFF90000180B002071
:1009A0003D07000814E400E080E200E000E100E020
:1009B000F0B589B00B2800D9E8E0C046784400794A
:1009C0004000874405352F26181EC5CAE3DFD51021
:1009D000BC480468012900D90AE1A34200D02CE2F6
:1009E000B94800782EE25800824200DB13E23F2033
:1009F000000209B0F0BD0C2900D90CE28800B3490F
:100A0000E6E1092900D906E2242A00D20AE230BF31
:100A1000FDE7112A00DDC1E01220801A52002223D6
:100A20009B1ABFE0112A00DDE8E01220801AE7E0FF
:100A3000042900D9EFE142204843A5490C5CA340BA
:100A40001C0CE4B2A34D02942C5D0818049040786D
:100A50008240100C01902018C0B2009028184078F5
:100A60002F5C90B240089C490690441898B2400808
:100A7000042107910F42059400D13FE10446054649
:100A800000D03EE1FE0700D06D422EB20121089158
:100A90000D407608AD19BE0700D5644224B2640843
:100AA000291903918B4D00996C5C2D5D07990D42BE
:100AB000069C00D12AE10446064600D029E1EF0752
:100AC00000D07642770808990E40F619AD0700D598
:100AD0006442640836197F4D02996C186478019954
:100AE0006418E1B201916C5C2D5D7B494418079854
:100AF0000542069800D111E12046029400D010E191
:100B0000E90700D0644231B226B2089F3C40760823
:100B1000A419AD0700D5404200B24008201805B224
:100B200018B2C01343409BB25C1C5C43230C5B00B7
:100B3000434098B2441C6748019BC01840788D42DE
:100B400000DCD4E16B1A9BB263431B0CCB18D3E1DE
:100B5000242A00D2EAE030BFFDE75000122A00DA72
:100B600000E15E4A82180C2900D800E1002001E172
:100B7000002900D11EE15000122A00DA2BE157496A
:100B800040182AE1D800C0B209B0F0BD002A00D058
:100B900041E1D9008020084009B0F0BD5300123A6D
:100BA000233B10464E4A1278D21A00D52432242A0A
:100BB00001D330BFFDE74B4B9A5CC006040E101BFF
:100BC0000023A24200D21846042900D911E2FF22D4
:100BD000890002A464581946A746C046F90F0008C8
:100BE000BD0C0008350E0008E70E00081D0E0008B9
:100BF000A34200D04EE13448007850E1104612384C
:100C00001B1A9B02122A01DD374A9B181C0BE2B209
:100C1000364DAF5C07223E4616403F07089001D58F
:100C2000F74300E0771C0326B5021D402E466E43B5
:100C3000700A0126F603301A4043C00B4043C00B34
:100C4000684378430713601CC0B2284C205C024004
:100C5000000701D5D24300E0521C25480343184643
:100C60005843400A301A4043C00B4043C00B58431E
:100C700050430013C0191F4A42431F481018000E6A
:100C8000802242400B20089B5843C4B2101B002313
:100C9000A24200D21846042900D9AAE1FF22890005
:100CA00001A464581946A746F90F0008BD0C0008B6
:100CB000350E0008E70E00081D0E0008002128234D
:100CC000DC2299E1640B0020610B00209C340008B9
:100CD000503300083C3100080080FFFFDDFFFF03B8
:100CE0003C0B00203D0B002000D048003D320008A6
:100CF00000F0FFFF466800006A84FB03054600D150
:100D0000C0E6059DFE0700D0BEE6BEE6064600D161
:100D1000D5E6069EEF0700D0D3E6D3E6029400D1D5
:100D2000EEE6069CE90700D0ECE6ECE6FA49885CC2
:100D3000202870D30346203B8B549100F74A51582A
:100D40000A0AD2B24243FF239A43CCB24443240A54
:100D50001219090CC9B24143080219040140501884
:100D600009B0F0BD2222121A0C2900D9FEE6880033
:100D7000EB490858EB490968EB4B1B684B43D91703
:100D8000C90E591849119201891AFF2921DC00293D
:100D900041D4020AD3B24B43FF2425022B40C0B2F8
:100DA0004843060A1E432A404A4320041040304369
:100DB00009B0F0BDD817C00E18184011810F4118A6
:100DC00003229143401A032800D35EE18000D749F3
:100DD000085809B0F0BD2221081A8001FB490968B2
:100DE000FB4A12684A43D117C90E51184911081A13
:100DF000FF2802DDF74809B0F0BD00280BD43321ED
:100E000049024143FF2212040A4099214143080A42
:100E1000104309B0F0BD002009B0F0BD0022FF2151
:100E20001346E9E090204843EC49081891004058E7
:100E300009B0F0BD0022FF23DDE00360EC4C207818
:100E4000401C2070C4B2482C02D3E94C0020207012
:100E50005200121A10464730C4B2472C00D9501E17
:100E6000C2B2472A00D948380446243CC5B2242DD2
:100E7000024600D32246002900D1F3E0232D00D9F9
:100E800006E107214143C9B203234343D8B2C00856
:100E9000000280E10360D6490878401C0870C1B2A6
:100EA000182902D3D249002008705100091A0846B7
:100EB0001730C2B2172A00D9481EC1B2172900D96B
:100EC0001838C1B2172900D91838C1B2172902D170
:100ED000C84809B0F0BD0A214143C9B205224243C6
:100EE000D0B20004B7E000227F23194684E04B1BF8
:100EF0009BB263431B0CCB1A0499891C0691BA4917
:100F00000D5C07980542059E029900D00E4600D060
:100F1000059907932346E80700D04942039800B299
:100F20000CB2089F0F4061087918AD0700D57642D2
:100F30001C4635B26D0849190DB211B2C9134A40A9
:100F400092B2561C5643320C52004A408542079BCF
:100F500005DD291A89B26143090C401804E0411BE0
:100F600089B26143090C401A91B2491C1AB204B209
:100F7000944205DDC01A80B24843000C181804E002
:100F8000181A80B24843000C181A7921890000B25F
:100F9000484396494118C80AC2B2FF201346044686
:100FA000434049020D0FAF000698C61971785943A6
:100FB0000F2D054600D0351D08966E7856437118E2
:100FC000FF3126023140C75D5F4328785043C01986
:100FD000FF30000AC0B24018089989785943AB78AD
:100FE000534359180902891922040A40801809B08C
:100FF000F0BD00237F22114644B2002C0BD44006E2
:10100000040ED8B26043774B5843C00DD2B262434E
:101010005A43D20D15E0C4B26409062C1ED87F24B1
:1010200020406F4C4443250CFF24AC43D8B26043AE
:101030006C4B5843C00D4019D2B262435A43D20D93
:101040005219C9B261435943C90DD2B2C0B20002AC
:101050008018C9B20904401809B0F0BDC100FF20D2
:101060000246F2E75808C1B2D80104B2C806030E1E
:1010700056205843000A232D10D8002C19D43F299C
:1010800034D81F292DD8C3435BE0534809B0F0BDC5
:1010900007206043C0B20004E1B27CE0002C18D409
:1010A00020240C403F2927D8002C08D0C1430891A8
:1010B0004EE020240C40490626D4002C4CD1AB2015
:1010C0005843010A5420C043401A55310891002367
:1010D0004CE07F24E4434C40E4B23F2C28D81F2C42
:1010E000D1D9553000210891AB233FE0890621D5A5
:1010F000C4430023089038E0002C25D15421C94373
:10110000091A0891553023E0002C28D15421C943F5
:10111000091A0891553026E0F80B0020680B0020D2
:101120009C340008480C002004080020A43B000860
:10113000890646D4AB215943090A5423DB435B1A81
:1011400056380021089111E05521091A08915638A6
:1011500000210346084609E0C143089103E05521F8
:10116000091A08915638002403462046D4B20725B0
:101170002E466643C0B27043FF2739020140D8B201
:101180007043000AC0B208180899C9B261432B0223
:101190004B43390419404018D1B2232900D018E636
:1011A000C1B2AB225143490A030ADBB253435B0A83
:1011B0001B025918000C5043400A0004081809B0DB
:1011C000F0BDC143002308900846CFE7480C00203B
:1011D0000408002099006600FFFFFF00D0340008DB
:1011E000B0AA0200818000003C310008F0D27F00EC
:1011F000610B002020001000F0B589B00520000729
:101200000121CB0383618A02009282614A02029229
:1012100082610A02019282618022039282614027E8
:101220008761202205928261102204928261082245
:1012300007928261042206928261022208928261F0
:101240008161524D2E680E432E600668504A16404A
:10125000B618761C066086681640CA07B218826007
:101260002A680A432A6002684A4E32400C05121965
:101270000260826832404C05121982602A680A4373
:101280002A600268444C22408E04921902608268EF
:101290002240CC04121982602A680A432A6002683C
:1012A0003E4C22400E0492190260826822404C0497
:1012B000121982602A680A432A600268384C224068
:1012C0008E039219026082682240D21882602A68D6
:1012D0000A432A600268334B1A400C031219026059
:1012E00082681A404B03D21882602A680A432A6037
:1012F00002682D4B1A40009C1219026082681A4045
:10130000CB02D21882602A680A432A600268274BFF
:101310001A40019C1219026082681A40029BD2187E
:1013200082602A680A432A6002683A43039B9A4310
:10133000026082681A43BA4382602A680A432A60BC
:101340000268049C2243059B9A43026082681A4308
:10135000A24382602A680A432A600268069C2243EC
:10136000079B9A43026082681A43A24382602A68FC
:101370000A432A6002680A43089B9A430260826813
:101380001A438A43826009B0F0BDC0462C10024067
:10139000FFFFFF3FFFFFCFFFFFFFF3FFFFFFFCFF5C
:1013A000FF3FFFFFFFCFFFFFFFF3FFFFFFFCFFFF4C
:1013B00001480121017070471C0C002070B50B28FA
:1013C00000D98CE04000C0467844808840008744C3
:1013D0000B008B030502870207010D048F0409032C
:1013E0008D05890111058B003D4808243D4D0909F3
:1013F00076413601E1417641E1417641F6001B0933
:101400007641E3417641E341764112097641E2417A
:101410007641E24176416E40E141490A764136012A
:10142000E1417641E1417641F600E3415B0A7641D4
:10143000E3417641E3417641E241520A7641E2419D
:101440007641E24176416E400660E141490A7641CB
:101450003601E1417641E1417641F600E3415B0A24
:101460007641E3417641E3417641E241520A7641D9
:10147000E2417641E24176416E40E141490A7641DE
:101480003601E1417641E1417641F600E3415B0AF4
:101490007641E3417641E3417641E241520A7641A9
:1014A000E2417641E24176416E404660E141490ABF
:1014B00076413601E1417641E1417641F600E34172
:1014C0005B0A7641E3417641E3417641E241520ACB
:1014D0007641E2417641E24176416E40866070BDE0
:1014E0004C0C0020FF8700003B48843008243B4D13
:1014F000F6011B097641E3417641E3417641120949
:101500007641E2417641E241764109097641E14185
:101510007641E14176416E40F601E3415B0A764156
:10152000E3417641E3417641E241520A7641E241AC
:101530007641E2417641E141490A7641E141764115
:10154000E14176416E400660F601E3415B0A764177
:10155000E3417641E3417641E241520A7641E2417C
:101560007641E2417641E141490A7641E1417641E5
:10157000E14176416E40F601E3415B0A7641E34189
:101580007641E3417641E241520A7641E2417641B9
:10159000E2417641E141490A7641E1417641E1414A
:1015A00076416E404660F601E3415B0A7641E341D5
:1015B0007641E3417641E241520A7641E241764189
:1015C000E2417641E141490A7641E1417641E1411A
:1015D00076416E40866070BD4C0C0020FF87000095
:1015E0003E48303008243E4D090976413601E1413C
:1015F0007641E14176411B097641E3417641E34181
:101600007641F60012097641E2417641E2417641A7
:101610006E40E141490A76413601E1417641E141BE
:101620007641E3415B0A7641E3417641E34176410D
:10163000F600E241520A7641E2417641E2417641CA
:101640006E400660E141490A76413601E14176414A
:10165000E1417641E3415B0A7641E3417641E34172
:101660007641F600E241520A7641E2417641E2419A
:1016700076416E40E141490A76413601E1417641C9
:10168000E1417641E3415B0A7641E3417641E34142
:101690007641F600E241520A7641E2417641E2416A
:1016A00076416E404660E141490A76413601E141AA
:1016B0007641E1417641E3415B0A7641E34176417F
:1016C000E3417641F600E241520A7641E241764139
:1016D000E24176416E40866070BDC0464C0C0020F1
:1016E000FF8700003B486C3008243B4DF6011B0986
:1016F0007641E3417641E341764112097641E24188
:101700007641E241764109097641E1417641E14184
:1017100076416E40F601E3415B0A7641E341764152
:10172000E3417641E241520A7641E2417641E241AB
:101730007641E141490A7641E1417641E141764114
:101740006E400660F601E3415B0A7641E341764173
:10175000E3417641E241520A7641E2417641E2417B
:101760007641E141490A7641E1417641E1417641E4
:101770006E40F601E3415B0A7641E3417641E34185
:101780007641E241520A7641E2417641E2417641B8
:10179000E141490A7641E1417641E14176416E40BD
:1017A0004660F601E3415B0A7641E3417641E3415D
:1017B0007641E241520A7641E2417641E241764188
:1017C000E141490A7641E1417641E14176416E408D
:1017D000866070BD4C0C0020FF8700003E4818302A
:1017E00008243E4D090976413601E1417641E14147
:1017F0007641F6001B097641E3417641E3417641AB
:1018000012097641E2417641E24176416E40E14182
:10181000490A76413601E1417641E1417641F600DF
:10182000E3415B0A7641E3417641E3417641E2419F
:10183000520A7641E2417641E24176416E400660CD
:10184000E141490A76413601E1417641E141764183
:10185000F600E3415B0A7641E3417641E34176419C
:10186000E241520A7641E2417641E24176416E40E0
:10187000E141490A76413601E1417641E141764153
:10188000F600E3415B0A7641E3417641E34176416C
:10189000E241520A7641E2417641E24176416E40B0
:1018A0004660E141490A76413601E1417641E14134
:1018B0007641F600E3415B0A7641E3417641E3413C
:1018C0007641E241520A7641E2417641E241764177
:1018D0006E40866070BDC0464C0C0020FF87000043
:1018E0003E48243008243E4D090976413601E14145
:1018F0007641E14176411B097641E3417641E3417E
:101900007641F60012097641E2417641E2417641A4
:101910006E40E141490A76413601E1417641E141BB
:101920007641E3415B0A7641E3417641E34176410A
:10193000F600E241520A7641E2417641E2417641C7
:101940006E400660E141490A76413601E141764147
:10195000E1417641E3415B0A7641E3417641E3416F
:101960007641F600E241520A7641E2417641E24197
:1019700076416E40E141490A76413601E1417641C6
:10198000E1417641E3415B0A7641E3417641E3413F
:101990007641F600E241520A7641E2417641E24167
:1019A00076416E404660E141490A76413601E141A7
:1019B0007641E1417641E3415B0A7641E34176417C
:1019C000E3417641F600E241520A7641E241764136
:1019D000E24176416E40866070BDC0464C0C0020EE
:1019E000FF8700003E48543008243E4D09097641E7
:1019F0003601E1417641E14176411B097641E341FF
:101A00007641E341764112097641E2417641E24175
:101A10007641F6006E40E141490A76413601E141E6
:101A20007641E1417641E3415B0A7641E34176410B
:101A3000E3417641E241520A7641E2417641E24198
:101A40007641F6006E400660E141490A7641360172
:101A5000E1417641E1417641E3415B0A7641E34170
:101A60007641E3417641E241520A7641E2417641D4
:101A7000E2417641F6006E40E141490A7641360185
:101A8000E1417641E1417641E3415B0A7641E34140
:101A90007641E3417641E241520A7641E2417641A4
:101AA000E2417641F6006E404660E141490A7641E6
:101AB0003601E1417641E1417641E3415B0A7641FD
:101AC000E3417641E3417641E241520A7641E24107
:101AD0007641E2417641F6006E40866070BDC046B8
:101AE0004C0C0020FF8700003E480C3008243E4D7F
:101AF000090976413601E1417641E1417641F6003E
:101B00001B097641E3417641E34176411209764172
:101B1000E2417641E24176416E40E141490A764137
:101B20003601E1417641E1417641F600E3415B0A4D
:101B30007641E3417641E3417641E241520A764102
:101B4000E2417641E24176416E400660E141490A58
:101B500076413601E1417641E1417641F600E341CB
:101B60005B0A7641E3417641E3417641E241520A24
:101B70007641E2417641E24176416E40E141490AD7
:101B800076413601E1417641E1417641F600E3419B
:101B90005B0A7641E3417641E3417641E241520AF4
:101BA0007641E2417641E24176416E404660E14154
:101BB000490A76413601E1417641E1417641F6003C
:101BC000E3415B0A7641E3417641E3417641E241FC
:101BD000520A7641E2417641E24176416E408660AA
:101BE00070BDC0464C0C0020FF8700003E483C30D2
:101BF00008243E4D090976413601E1417641E14133
:101C000076411B097641E3417641E3417641F60096
:101C100012097641E2417641E24176416E40E1416E
:101C2000490A76413601E1417641E1417641E3419D
:101C30005B0A7641E3417641E3417641F600E241B9
:101C4000520A7641E2417641E24176416E400660B9
:101C5000E141490A76413601E1417641E14176416F
:101C6000E3415B0A7641E3417641E3417641F60088
:101C7000E241520A7641E2417641E24176416E40CC
:101C8000E141490A76413601E1417641E14176413F
:101C9000E3415B0A7641E3417641E3417641F60058
:101CA000E241520A7641E2417641E24176416E409C
:101CB0004660E141490A76413601E1417641E14120
:101CC0007641E3415B0A7641E3417641E341764167
:101CD000F600E241520A7641E2417641E241764124
:101CE0006E40866070BDC0464C0C0020FF8700002F
:101CF0003E48483008243E4D090976413601E1410D
:101D00007641E14176411B097641E3417641E34169
:101D1000764112097641E2417641E2417641F60090
:101D20006E40E141490A76413601E1417641E141A7
:101D30007641E3415B0A7641E3417641E3417641F6
:101D4000E241520A7641E2417641E2417641F600B3
:101D50006E400660E141490A76413601E141764133
:101D6000E1417641E3415B0A7641E3417641E3415B
:101D70007641E241520A7641E2417641E2417641C2
:101D8000F6006E40E141490A76413601E141764173
:101D9000E1417641E3415B0A7641E3417641E3412B
:101DA0007641E241520A7641E2417641E241764192
:101DB000F6006E404660E141490A76413601E14154
:101DC0007641E1417641E3415B0A7641E341764168
:101DD000E3417641E241520A7641E2417641E241F5
:101DE0007641F6006E40866070BDC0464C0C002007
:101DF000FF8700003B48783008243B4DF6011B0963
:101E00007641E3417641E341764112097641E24170
:101E10007641E241764109097641E1417641E1416D
:101E200076416E40F601E3415B0A7641E34176413B
:101E3000E3417641E241520A7641E2417641E24194
:101E40007641E141490A7641E1417641E1417641FD
:101E50006E400660F601E3415B0A7641E34176415C
:101E6000E3417641E241520A7641E2417641E24164
:101E70007641E141490A7641E1417641E1417641CD
:101E80006E40F601E3415B0A7641E3417641E3416E
:101E90007641E241520A7641E2417641E2417641A1
:101EA000E141490A7641E1417641E14176416E40A6
:101EB0004660F601E3415B0A7641E3417641E34146
:101EC0007641E241520A7641E2417641E241764171
:101ED000E141490A7641E1417641E14176416E4076
:101EE000866070BD4C0C0020FF8700003E486030CB
:101EF00008243E4D090976413601E1417641E14130
:101F000076411B097641E3417641E341764112096E
:101F10007641E2417641E2417641F6006E40E14190
:101F2000490A76413601E1417641E1417641E3419A
:101F30005B0A7641E3417641E3417641E241520A50
:101F40007641E2417641E2417641F6006E4006601C
:101F5000E141490A76413601E1417641E14176416C
:101F6000E3415B0A7641E3417641E3417641E24158
:101F7000520A7641E2417641E2417641F6006E40F6
:101F8000E141490A76413601E1417641E14176413C
:101F9000E3415B0A7641E3417641E3417641E24128
:101FA000520A7641E2417641E2417641F6006E40C6
:101FB0004660E141490A76413601E1417641E1411D
:101FC0007641E3415B0A7641E3417641E341764164
:101FD000E241520A7641E2417641E2417641F60021
:101FE0006E40866070BDC0464C0C0020FF8700002C
:101FF000F0B547480078012800D187E00720430367
:1020000044490C689C4303235D0364190C608D6A8A
:10201000022425438D62404D2E6804273E4308224A
:1020200096432E60AE681643BE43AE60AC61C002FC
:102030008A6882438A60012042020C6B14430C635D
:102040009A0736490A614206354B1A600860304AE1
:10205000107088600A68D20708D10A68D20705D1D3
:102060000A68D20702D10A68D207F3D0C203CA6055
:1020700002028A6205228A600024234606E00D6C73
:102080008A602C191B1D8502AB4239D00D686D0783
:1020900008D40D686D0705D40D686D0702D40D686E
:1020A0006D07F3D50D6C8A602C190D686D0708D487
:1020B0000D686D0705D40D686D0702D40D686D07B6
:1020C000F3D50D6C8A602C190D686D0708D40D6866
:1020D0006D0705D40D686D0702D40D686D07F3D543
:1020E0000D6C8A602C190D686D07C8D40D686D07DA
:1020F000C5D40D686D07C2D40D686D07F3D5BEE772
:10210000E017800D2018801206490860F0BDC04617
:102110001D0C002004100240000400500024014067
:1021200008270140200C002070B5134908780128C9
:1021300020D11248826A022313438362104A136833
:102140000C2423431360D368A343D36001225302BA
:10215000036200240462056B9D4305630723DD02CF
:1021600086682E4386600C70590303688B43910385
:102170005918016070BDC0461D0C002004100240BB
:102180000004005000B59DB0D64E316802200143D6
:102190003160D54B1968D54A11401960D968114092
:1021A0000125AC030919D960316801433160186811
:1021B000C021089188431860D868402101438020DD
:1021C00012908143D960FFF717F805200107C8482E
:1021D000079148603046203801680322914301602E
:1021E0000168890708D00168890705D00168890757
:1021F00002D001688907F3D12A0631462C390B68D1
:1022000093430B602A07F3681343F360B94BBA4E4C
:102210001E60B44E1B68F3689343F360EA430B6897
:1022200013400B60B5490B6813400B6008220A602D
:10223000B16804229143B16007214A033346283B29
:102240001D68954325431D600A020368134303601C
:10225000C90202680A4302607F20C043A8497F3157
:102260000140A84A541A2040091808466038904294
:1022700005D8803969D0A4482022FDF72BFFA24A57
:102280001078A2494840A24B5843517841405943E5
:10229000907848405843D17841405943107948409C
:1022A0005843517941405943907948405843D17936
:1022B00041405943107A48405843517A414059436C
:1022C000907A48405843D17A41405943107B484066
:1022D0005843517B41405943907B48405843D17B00
:1022E00041405943107C48405843517C4140594338
:1022F000907C48405843D17C41405943107D484030
:102300005843517D41405943907D48405843D17DC9
:1023100041405943107E48405843517E4140594303
:10232000907E48405843D17E41405943D069814214
:1023300014D000280BD00020106050609060D06056
:10234000106150619061D06108E030BFFDE7501C22
:102350001F21FDF7B9FE0A206B49087000252846A9
:1023600029462A462B46FFF729F8012009902946DD
:102370002A462B46FFF722F8022029462A462B46FA
:10238000FFF71CF80320139029462A462B46FFF737
:1023900015F804200F9029462A462B46FFF70EF821
:1023A0000520149029462A462B46FFF707F80620F9
:1023B00029462A462B46FFF701F8072029462A46D8
:1023C0002B46FEF7FBFF0820049029462A462B46A1
:1023D000FEF7F4FF092029462A462B46FEF7EEFFBA
:1023E0000A2029462A462B46FEF7E8FF0B200190DB
:1023F00029462A4618952B46FEF7E0FF4248017809
:10240000072902D84018807818901B910A2908D80B
:1024100009981B9988409921C900084201D0FFF70B
:10242000E7FD099800030E900021C8430690E009DB
:10243000401E0390C00102901C9116910A911091C8
:10244000059101E0641C1694324D109C0BE020466F
:1024500018381999179AFEF7B1FF00F03FFEAD1C2E
:10246000173C0C2C2AD01A951B9E3046189F3946D3
:1024700022461C9D2B46FEF79BFA199022460C32F1
:10248000304639462B46FEF793FA179018343046FB
:10249000394622462B461A9DFEF78AFA03460A2E33
:1024A000D5D801201B9988409921C9000842CED077
:1024B0001949886B288014980860C8E71B9DE81E9E
:1024C0000728094F00D9DCE24000C04678448088E4
:1024D000400087447600D602D6024C002300D60284
:1024E000D60223002C10024000040050FF3FFFFFE3
:1024F000FF87000000700040051A00000020024025
:10250000AC3E0008008000081C0B0020C59D1C810B
:1025100093010001240C002008240140F8490F8891
:102520004E88F0198D884019CC8800190A890B92C1
:1025300080184A890C9280188A890D928018CA895D
:10254000119280180A8A159280184A8A1792801868
:102550008A8A19928018C98A1A9140180C21FDF7AD
:10256000E1FDE8490968884255DC069854E0E449F1
:102570000F884E88F0198D884019CC8800190A8977
:102580000B9280184A890C9280188A890D928018C3
:10259000CA89119280180A8A159280184A8A17925D
:1025A00080188A8A19928018C98A1A9140180C21B9
:1025B000FDF7B8FDD3490968884200DDCBE00698F5
:1025C000CAE0CF490F884E88F0198D884019CC8811
:1025D00000190A890B9280184A890C9280188A89FE
:1025E0000D928018CA89119280180A8A1592801853
:1025F0004A8A179280188A8A19928018C98A1A9171
:1026000040180C21FDF78EFDBE490968884200DDA7
:102610000BE106980AE101204018BA4A1060781AC6
:10262000C2175040801A721AD3175A40D21A101883
:102630006A1AD3175A40D21A8018621AD3175A400E
:10264000D21A80180B9A521AD3175A40D21A8018ED
:102650000C9A521AD3175A40D21A80180D9A521A4D
:10266000D3175A40D21A8018119A521AD3175A40C7
:10267000D21A8018159A521AD3175A40D21A8018B3
:10268000179A521AD3175A40D21A8018199A521A06
:10269000D3175A40D21A80181A9A511ACA175140A1
:1026A000891A401801041FD081B2490801438AB237
:1026B00092080A4391B2090911438AB2120A0A43E5
:1026C000D1434A08904B1A40891A8A088F4B194007
:1026D0001A4089180A0989180F220B461340120262
:1026E0000A40110A591800E01021894F052900D825
:1026F0001499CA1E01210D469540864A136800228E
:10270000AB420E4600DB16460E9CA3420C4600D39D
:10271000144634401B19AB420D4600DC1546102B05
:1027200000D811460D40002C01D1002D02D0591BBC
:10273000784A1160784C21784A00784DAB5AA852FB
:10274000491C139A1140217080B2C01A744A116852
:102750004018106094E1012040186A4A1060781A0D
:10276000C2175040801A721AD3175A40D21A101842
:102770006A1AD3175A40D21A8018621AD3175A40CD
:10278000D21A80180B9A521AD3175A40D21A8018AC
:102790000C9A521AD3175A40D21A80180D9A521A0C
:1027A000D3175A40D21A8018119A521AD3175A4086
:1027B000D21A8018159A521AD3175A40D21A801872
:1027C000179A521AD3175A40D21A8018199A521AC5
:1027D000D3175A40D21A80181A9A511ACA17514060
:1027E000891A4018010400D19CE081B249080143D4
:1027F0008AB292080A4391B2090911438AB2120AB5
:102800000A43D1434A08404B1A40891A8A083F4B71
:1028100019401A4089180A0989180F220B461340DB
:1028200012020A40110A59187DE001204018354A69
:102830001060781AC2175040801A721AD3175A4083
:10284000D21A10186A1AD3175A40D21A8018621A6C
:10285000D3175A40D21A80180B9A521AD3175A40DB
:10286000D21A80180C9A521AD3175A40D21A8018CA
:102870000D9A521AD3175A40D21A8018119A521A26
:10288000D3175A40D21A8018159A521AD3175A40A1
:10289000D21A8018179A521AD3175A40D21A80188F
:1028A000199A521AD3175A40D21A80181A9A511AE2
:1028B000CA175140891A4018010400D195E081B22D
:1028C000490801438AB292080A4391B209091143A7
:1028D0008AB2120A0A43D1434A080B4B1A40891A9A
:1028E0008A080A4B19401A4089180A0989180F22C8
:1028F0000B46134012020A40110A591876E0C046EE
:10290000240C0020200C002055550000333300001B
:102910000004005004080020440C00203C0C00205F
:10292000480C00201021814F052900D80521C91E1F
:10293000012216468E407E4909680023B1421446A2
:1029400000DB1C460E9DA942154600D31D462540BE
:102950004C19B442164600DC1E46102C00D81A460C
:102960001640002D01D1002E02D0A11B704A11602B
:10297000704D2A785300704EF45AF052521C139B3B
:102980001A402A7080B2001B6C4B1A6882181A60B9
:102990006B4C20686B4B43436B4D68435840430C72
:1029A00043405801584020600346684C234051433F
:1029B000674A8A189A421B9D63D9189A042A00D93B
:1029C0000022042A00D374E3C9B2624B595CFF238E
:1029D000614C63541B9DD200604B9A18C00F80005D
:1029E000105889005E4A50504BE010214F4F052986
:1029F00000D80521C91E012216468E404C4909689F
:102A00000023B142144600DB1C460E9DA942154628
:102A100000D31D4625404C19B442164600DC1E4624
:102A2000102C00D81A461640002D01D1002E02D0DD
:102A3000A11B3F4A11603F4D2A7853003E4EF45A85
:102A4000F052521C139B1A402A7080B2001B3B4B61
:102A50001A6880181860434C2278521CD3B2242B79
:102A600000D100222270D2B2242A00D31FE34843AF
:102A700013994843400AFF2800D3FF203A4988545D
:102A80001B9D1C98401C1C903E6912980640169C89
:102A90001E2C1B9540D11196FFF746FB00242046C3
:102AA000179404E01598401C0C28179C5ED01399CD
:102AB00015904143169107E02046FEF77FFC00F099
:102AC0000DFB641C0C2CEDD01B9E3046189F394624
:102AD00022461C9BFDF76CFF1A9025460C353046AC
:102AE00039462A461C9BFDF763FF19902646183687
:102AF0001B98394632461C9BFDF75AFF169FBC4275
:102B0000179B194600D31A99BD421A4600D3199A49
:102B1000BE42D1D30346CFE70B2D00D047E11C982E
:102B2000122800D1B0E2019D38E1C04600040050F7
:102B300004080020440C00203C0C0020480C00201D
:102B4000000800200060F49FA3FFB49AFF7F0000FC
:102B500000F0FFFF9B3A0008F80B0020703A0008D5
:102B6000680B00203C0B00203D0B0020924EB0680B
:102B700001242043B0609148006800281CD18F4890
:102B80008F4901600F2000038E4A116881430E981F
:102B9000014311608C49C868129A1043C8600868E4
:102BA00010430860FF200006884B196881431960B4
:102BB0008748026087480260306820433060139D78
:102BC000A807079A116801431160D1688143D16059
:102BD0003068204330602805116801431160D168D6
:102BE0008143D160306820433060A80411680143FC
:102BF0001160D1688143D16030682043306028047F
:102C0000116801431160D1688143D160306820436D
:102C10003060A803116801431160D0686E49084014
:102C2000D060306820433060280311680143116090
:102C3000D1688143D160306820433060A8021168B8
:102C400001431160D1688143D16030682043306016
:102C50002802116801431160D1688143D160306856
:102C6000204330601068089908431060D06888439A
:102C7000D060306820433060106830210843106015
:102C8000D0688843D06030682043306010680C21E1
:102C900008431060D0688843D060306820433060BB
:102CA000106828431060D068A843D06000273846D9
:102CB00039463A463B46FEF781FB204639463A46BE
:102CC0003B46FEF77BFB022039463A463B46FEF781
:102CD00075FB284639463A463B46FEF76FFB0F9D8B
:102CE000284639463A463B46FEF768FB05203946FA
:102CF0003A463B46FEF762FB062039463A463B46DB
:102D0000FEF75CFB072039463A463B46FEF756FB8A
:102D1000082039463A463B46FEF750FB0920394623
:102D20003A463B46FEF74AFB0A2039463A463B46BE
:102D3000FEF744FB0B201A9039463A463B46FEF715
:102D40003DFBE5481C970770E04908682843086088
:102D5000D94F20BFE04800780028FAD02D20C500C8
:102D600038690006F5D400F0B9F96D1EF8D1FEF708
:102D700043FAD64A10680F9988431060B068204320
:102D8000B060D14A1068129988431060D1481C99EC
:102D90000160E4071B980A901A9D119E002E1B9556
:102DA00001D1FFF74FFB00241694FFF74DFB012CD8
:102DB000C24A13DB002012E02C100240040B00205A
:102DC000B11300080C0001400004014004E400E0DD
:102DD00080E200E000E100E0FF3FFFFF0120002E65
:102DE000099900D00146012900D1C6E01196284674
:102DF0000024062D254600DC451C1570901C405D06
:102E00001890E8B2AE494840AE4B58435178414023
:102E10005943907848405843D178414059431079FC
:102E2000484058435179414059439079484058436C
:102E3000D17941405943107A48405843517A414032
:102E40005943907A48405843D17A41405943107BC6
:102E500048405843517B41405943907B4840584338
:102E6000D17B41405943107C48405843517C4140FC
:102E70005943907C48405843D17C41405943107D90
:102E800048405843517D41405943907D4840584304
:102E9000D17D41405943107E48405843517E4140C6
:102EA0005943907E48405843D17E41405943117761
:102EB000080ED077080C9077080A507703982146BF
:102EC000FDF754FA02982146FDF736FB20462146CD
:102ED00022462346FEF772FA012630462146224654
:102EE0002346FEF76BFA0220214622462346FEF7D0
:102EF00065FA0320214622462346FEF75FFA0420A6
:102F0000214622462346FEF759FA0520214622464D
:102F10002346FEF753FA0620214622462346FEF7B3
:102F20004DFA0720214622462346FEF747FA08209D
:102F3000214622462346FEF741FA09202146224631
:102F40002346FEF73BFA0A20214622462346FEF797
:102F500035FA0B20214622462346FEF72FFA0A2D8A
:102F600000D9A1E0AE409920C000064200D19BE00C
:102F7000FFF73EF8514A169C119E396904980140AA
:102F8000484248410029099901D00599C943C90718
:102F900001D0059002E70A2D06D84D48405D1899EA
:102FA000491C8142084600D300201890072D02DCFE
:102FB000501918998170107841494840414B584345
:102FC000517841405943907848405843D178414026
:102FD00059431079484058435179414059439079B9
:102FE00048405843D17941405943107A48405843AA
:102FF000517A41405943907A48405843D17A4140F0
:103000005943107B48405843517B41405943907B82
:1030100048405843D17B41405943107C4840584375
:10302000517C41405943907C48405843D17C4140B9
:103030005943107D48405843517D41405943907D4C
:1030400048405843D17D41405943107E4840584341
:10305000517E41405943907E48405843D17E414083
:1030600059431177080ED077080C9077080A5077EB
:10307000002403982146FDF779F90298059421462A
:10308000FDF75AFA169C89E612201C900A9D0A2D1B
:1030900000D983E60120A8409921C900084200D147
:1030A0007CE6FEF7A5FF79E6FFF73EF862E730BF62
:1030B000FDE730BFFDE7C046000400501C0B0020B8
:1030C000C59D1C81930100010004014010ED00E04A
:1030D000903A0008040B00201C0C002003B40148A7
:1030E000019001BD090800207A0000009C3B000807
:1030F000143100080C3100086572726F72732E650E
:1031000072726F72537472696E6700006572726FCB
:10311000727300D45A000000303100080C310008EE
:1031200008000000010000004033000838310008AA
:10313000D5000000143100080000730097A0895BDF
:103140005A0F830DC95F6035C2E907E18C24671E01
:10315000458E086325F0150A17BE0694F778EA4BEA
:10316000001AC53E5EFCDBCB75230B2039B121581C
:10317000ED953857AE147D88ABA844AF4AA5478675
:103180008B301BA64D929EE7536FE57A3CD385E6C4
:10319000DC695C29372EF528F4668F3641193FA18A
:1031A00001D85049D14C84BBD05912A9C8C48782D8
:1031B00074BC9F56A4646DC6ADBA034034D9E2FA1C
:1031C0007C7B05CA2693767EFF5255D4CFCE3BE357
:1031D0002F103A11B6BD1C2ADFB7AAD577F898028E
:1031E0002C9AA346DD99659BA72BAC09811627FD78
:1031F00013626C6E4F71E0E8B2B97068DAF661E4A0
:10320000FB22F2C1EED2900CBFB3A2F1513391EB8D
:10321000F90EEF6B31C0D61FB5C76A9DB854CCB05C
:103220007379322D7F0496FE8AECCD5DDE72431DEC
:103230001848F38D80C34E42D73D9CB49797A08920
:103240005B5A0F830DC95F6035C2E907E18C2467C3
:103250001E458E086325F0150A17BE0694F778EA16
:103260004B001AC53E5EFCDBCB75230B2039B12128
:1032700058ED953857AE147D88ABA844AF4AA547A2
:10328000868B301BA64D929EE7536FE57A3CD38523
:10329000E6DC695C29372EF528F4668F3641193F44
:1032A000A101D85049D14C84BBD05912A9C8C487B8
:1032B0008274BC9F56A4646DC6ADBA034034D9E293
:1032C000FA7C7B05CA2693767EFF5255D4CFCE3B3F
:1032D000E32F103A11B6BD1C2ADFB7AAD577F898AC
:1032E000022C9AA346DD99659BA72BAC0981162772
:1032F000FD13626C6E4F71E0E8B2B97068DAF66186
:10330000E4FB22F2C1EED2900CBFB3A2F151339193
:10331000EBF90EEF6B31C0D61FB5C76A9DB854CC20
:10332000B07379322D7F0496FE8AECCD5DDE724358
:103330001D1848F38D80C34E42D73D9CB4D4D4D4DD
:103340005100000048330008D50000004033000859
:103350000A0B5500ABFF84007CFFB5004BFFE50076
:103360001BFFE81700FFB84700FFAB7700FFABABD0
:1033700000FFAB5500FFDD2200FFF2000EFFC20090
:103380003EFF8F0071FF5F00A1FF2F00D0FF0007FD
:10339000F9FF0A0BFF0000FFD52A00FFAB5500FF25
:1033A000AB7F00FFABAB00FF56D500FF00FF00FF77
:1033B00000D52AFF00AB55FF0056AAFF0000FFFF13
:1033C0002A00D5FF5500ABFF7F0081FFAB0055FF02
:1033D000D5002BFF090C006400FF006400FF556B53
:1033E0002FFF006400FF008000FF228B22FF6B8E06
:1033F00023FF008000FF2E8B57FF66CDAAFF32CD42
:1034000032FF9ACD32FF90EE90FF7CFC00FF66CD3C
:10341000AAFF228B22FF090C191970FF00008BFFF5
:10342000191970FF000080FF00008BFF0000CDFF26
:103430002E8B57FF008080FF5F9EA0FF0000FFFFE4
:10344000008B8BFF6495EDFF7FFFD4FF2E8B57FF22
:1034500000FFFFFF87CEFAFF090C0000FFFF00000E
:103460008BFF00008BFF00008BFF00008BFF000034
:103470008BFF00008BFF00008BFF0000FFFF0000B0
:103480008BFF87CEEBFF87CEEBFFADD8E6FFFFFFCC
:10349000FFFFADD8E6FF87CEEBFFD4D499006600DE
:1034A000EE001100FF000000CC2200008877000031
:1034B00033CC000000FF000000DD22000099660010
:1034C0000033CC000000FF001100EE005500AA0000
:1034D000FF000000FF000000FF000000FF000000F0
:1034E000FF000000FF000000FF550000FF55000036
:1034F000FF550000FF550000FF550000FF5500007C
:1035000088FF000088FF000088FF000088FF00009F
:1035100088FF000088FF000000FF000000FF00009F
:1035200000FF000000FF000000FF000000FF00009F
:103530000000FF000000FF000000FF000000FF008F
:103540000000FF000000FF0080008000800080007D
:10355000800080008000800080008000800080006B
:10356000113388001133880011338800113388002B
:10357000802222008022220080222200802222003B
:1035800088AAAA0088AAAA0088AAAA0088AAAA00CB
:10359000802222008022220080222200802222001B
:1035A00011338800113388001133880011338800EB
:1035B00011338800113388008022220080222200EB
:1035C000802222008022220088AAAA0088AAAA00BB
:1035D00088AAAA0088AAAA008022220080222200AB
:1035E00080222200802222001133880011338800BB
:1035F000C0000000C0000000C0000000C0000000CB
:10360000C0400000C0400000C0400000C0400000BA
:1036100060509000605090006050900060509000AA
:1036200040083000400830004008300040083000BA
:1036300020001000200010002000100020001000CA
:10364000200010002000100040083000400830002A
:1036500040083000400830006050900060509000FA
:103660006050900060509000C0400000C0400000DA
:10367000C0400000C0400000C0000000C0000000CA
:1036800000180800001808000018080000180800BA
:10369000104020001040200010402000104020006A
:1036A000605090006050900060509000605090001A
:1036B000101090001010900010109000101090004A
:1036C000080020000800200008002000080020005A
:1036D000080020000800200010109000101090003A
:1036E00010109000101090006050900060509000FA
:1036F000605090006050900010402000104020006A
:103700001040200010402000001808000018080099
:10371000AAAA0000AAAA0000AAAA0000AAAA000059
:103720006050900060509000605090006050900099
:103730006050900050004000500040005000400099
:103740005000400050004000000000000000000059
:103750000000000000000000000000000000000069
:103760000000000000000000500040005000400039
:103770005000400050004000500040006050900059
:103780006050900060509000605090006050900039
:10379000AAAA0000AAAA0000AAAA0000AAAA0000D9
:1037A000D0000800D0000800D0000800D0000800B9
:1037B000D0000800D0000800D0000800D0000800A9
:1037C0004000300040003000400030004000300039
:1037D00000008000000080000000800000008000E9
:1037E00000008000000080000000800000008000D9
:1037F00000008000000080000000800000008000C9
:1038000000008000000080004000300040003000D8
:103810004000300040003000D0000800D000080018
:10382000D0000800D0000800D0000800D000080038
:10383000D0001000D0001000D0001000D000100008
:10384000D0001000D0001000AAAA0000AAAA000010
:10385000AAAA0000AAAA0000AAAA0000AAAA000018
:103860000808FF000808FF000808FF000808FF001C
:103870000808FF000808FF000808FF000808FF000C
:103880000808FF000808FF000808FF000808FF00FC
:10389000AAAA0000AAAA0000AAAA0000AAAA0000D8
:1038A000AAAA0000AAAA0000D0001000D0001000B0
:1038B000D0001000D0001000D0001000D000100088
:1038C00000000000000000000000000000000000F8
:1038D0001010180010101800101018001010180008
:1038E00010101800605090006050900060509000E0
:1038F0006050900060509000500040005000400028
:103900005000400050004000500040005000400077
:103910005000400050004000605090006050900007
:10392000605090006050900060509000101018009F
:1039300010101800101018001010180010101800A7
:103940000000000000000000000000000000000077
:103950000080080000800800008008000080080047
:1039600010602800106028001060280010602800F7
:103970006050900060509000605090006050900047
:103980001010180010101800101018001010180057
:103990000000000000000000000000000000000027
:1039A00000000000000000001010180010101800A7
:1039B0001010180010101800605090006050900017
:1039C0006050900060509000106028001060280047
:1039D00010602800106028000080080000800800A7
:1039E0000808FF000808FF000808FF000808FF009B
:1039F0000808FF000808FF00C0001000C000100009
:103A0000C0001000C0001000C0001000C000100076
:103A10000800150008001500080015000800150032
:103A20000800150008001500080015000800150022
:103A30000800150008001500080015000800150012
:103A4000C0001000C0001000C0001000C000100036
:103A500060509000AAAA0000AAAA0000AAAA00002A
:103A6000605090000808FF000808FF000808FF00E9
:103A7000FF00FF0000996600FF00FF00FF0000004C
:103A8000FF000000FFFF0000FFFF000000FF00003C
:103A9000030506060D0A040D0000020001020304DE
:103AA00005060708090A0B0C0D0E0F10111213144E
:103AB00015161718191A1B1C1D1E1F202122230062
:103AC0000102030405060708090A0B0C0D0E0F106E
:103AD0001112131415161718191A1B1C1D1E1F205E
:103AE000212223000102030405060708090A0B0C22
:103AF0000D0E0F101112131415161718191A1B1C7E
:103B00001D1E1F20212223000102030405060708B1
:103B1000090A0B0C0D0E0F1011121314151617189D
:103B2000191A1B1C1D1E1F20212223000102030441
:103B300005060708090A0B0C0D0E0F1011121314BD
:103B400015161718191A1B1C1D1E1F2021222300D1
:103B50000102030405060708090A0B0C0D0E0F10DD
:103B60001112131415161718191A1B1C1D1E1F20CD
:103B7000212223000102030405060708090A0B0C91
:103B80000D0E0F101112131415161718191A1B1CED
:103B90001D1E1F2021222300010203D4D500010095
:103BA000E8300008FF00000000FF00000000FF00F8
:103BB000D4CB0CB96400000010B505200007014902
:103BC000014A03E0FF8700004C0C002001231B0288
:103BD0004B40838054688482240C136800BF00BF6C
:103BE00000BF00BF83821B0C83828482936800BF66
:103BF00083820123DB014B400C32546800BF00BFBD
:103C000000BF00BF00BF00BF00BF00BF00BF818278
:103C100083808482240C136800BF00BF00BF00BFF4
:103C200083821B0C83828482936800BF838201237A
:103C30009B014B400C32546800BF00BF00BF00BF67
:103C400000BF00BF00BF00BF00BF818283808482AD
:103C5000240C136800BF00BF00BF00BF83821B0C91
:103C600083828482936800BF838201235B014B407F
:103C70000C32546800BF00BF00BF00BF00BF00BFD0
:103C800000BF00BF00BF818283808482240C136840
:103C900000BF00BF00BF00BF83821B0C83828482F1
:103CA000936800BF838201231B014B400C32546890
:103CB00000BF00BF00BF00BF00BF00BF00BF00BF0C
:103CC00000BF818283808482240C136800BF00BF00
:103CD00000BF00BF83821B0C83828482936800BF75
:103CE00083820123DB004B400C32546800BF00BFCD
:103CF00000BF00BF00BF00BF00BF00BF00BF818288
:103D000083808482240C136800BF00BF00BF00BF03
:103D100083821B0C83828482936800BF8382012389
:103D20009B004B400C32546800BF00BF00BF00BF77
:103D300000BF00BF00BF00BF00BF818283808482BC
:103D4000240C136800BF00BF00BF00BF83821B0CA0
:103D500083828482936800BF838201235B004B408F
:103D60000C32546800BF00BF00BF00BF00BF00BFDF
:103D700000BF00BF00BF818283808482240C13684F
:103D800000BF00BF00BF00BF83821B0C8382848200
:103D9000936800BF838201231B004B400C325468A0
:103DA00000BF00BF00BF00BF00BF00BF00BF00BF1B
:103DB00000BF818283808482240C136800BF00BF0F
:103DC00000BF00BF83821B0C83828482936800BF84
:103DD00083820123DB034B400C32546800BF00BFD9
:103DE00000BF00BF00BF00BF00BF00BF00BF818297
:103DF00083808482240C136800BF00BF00BF00BF13
:103E000083821B0C83828482936800BF8382012398
:103E10009B024B400C32546800BF00BF00BF00BF84
:103E200000BF00BF00BF00BF00BF818283808482CB
:103E3000240C136800BF00BF00BF00BF83821B0CAF
:103E400083828482936800BF838201235B024B409C
:103E50000C32546800BF00BF00BF00BF00BF00BFEE
:103E600000BF00BF00BF818283808482240C13685E
:103E700000BF00BF00BF00BF83821B0C838284820F
:103E8000936800BF838200BF00BF00BF00BF00BFB8
:103E900000BF00BF00BF00BF00BF00BF00BF00BF2A
:0C3EA00000BF00BF8182818010BDD4D41F
:00000001FF
